:100000000C9460030C947D030C947D030C947D038D
:100010000C947D030C947D030C947D030C947D0360
:100020000C947D030C947D030C947D030C947D0350
:100030000C947D030C947D030C947D030C947D0340
:100040000C947D030C947D030C947D030C947D0330
:100050000C947D030C947D030C947D030C947D0320
:100060000C947D030C947D030C947D030C947D0310
:1000700000000000005C00000C000C007C287C28C4
:1000800058DC68002410480028542840000C000068
:10009000007884008478000054385400107C1000EC
:1000A00080400000101010000040000060100C00A4
:1000B00038543800487C40004864580044542C00B0
:1000C0001C107C005C5424003854240064140C0080
:1000D00068542C0048543800004800008048000054
:1000E0001028440028282800442810000454080040
:1000F00038445C00781478007C5428003844280088
:100100007C4438007C5444007C140400384474005F
:100110007C107C00447C440020403C007C106C003F
:100120007C4040007C187C0078103C00384438004B
:100130007C1408003844B8007C146800485424003B
:10014000047C04007C407C003C603C007C307C00F3
:100150006C106C000C700C0064544C00007C44006B
:100160000C106000447C00000804080080808000BF
:1001700000040800304878007C48300030484800CF
:1001800030487C00306850001078140090A8780047
:100190007C08700050744000808074007C106800FF
:1001A000447C4000781078007808700030483000B7
:1001B000F82810003048F80078100800505828003F
:1001C000083C4800384078003840380078207800F3
:1001D0004830480098A0780048685800107884009B
:1001E000007C00008478100008040804000000006F
:1001F0000000005F00000007000700147F147F1458
:10020000242A7F2A1223130864623649552250009B
:1002100005030000001C2241000041221C00082AA6
:100220001C2A0808083E080800503000000808088A
:100230000808006060000020100804023E51494593
:100240003E00427F400042615149462141454B31C9
:100250001814127F1027454545393C4A4949300159
:10026000710905033649494936064949291E0036B0
:100270003600000056360000000814224114141401
:10028000141441221408000201510906324979412F
:100290003E7E1111117E7F494949363E414141223E
:1002A0007F4141221C7F494949417F090901013EA3
:1002B000414151327F0808087F00417F41002040C2
:1002C000413F017F081422417F404040407F0204AB
:1002D000027F7F0408107F3E4141413E7F090909AA
:1002E000063E4151215E7F09192946464949493157
:1002F00001017F01013F4040403F1F2040201F7F00
:100300002018207F631408146303047804036151E8
:1003100049454300007F4141020408102041417FCC
:100320000000040201020440404040400001020479
:100330000020545454787F4844443838444444207E
:10034000384444487F3854545418087E0901020840
:100350001454543C7F0804047800447D400020403D
:10036000443D00007F10284400417F40007C041879
:1003700004787C0804047838444444387C14141409
:1003800008081414187C7C080404084854545420A9
:10039000043F4440203C4040207C1C2040201C3C2A
:1003A0004030403C44281028440C5050503C446499
:1003B000544C44000836410000007F0000004136E4
:1003C000080002010302010000000000000000001C
:1003D000065F5F0600000000070700070700001423
:1003E0007F7F147F7F1400242E6B6B3A120000462F
:1003F0006630180C666200307A4F5D377A48000428
:1004000007030000000000001C3E634100000000E4
:1004100041633E1C000000082A3E1C1C3E2A0808BE
:10042000083E3E0808000000A0E060000000000850
:100430000808080808000000006060000000006074
:1004400030180C060301003E7F594D7F3E000042EC
:10045000427F7F40400000627359496F660000226E
:100460006349497F360000181C16137F7F10002750
:100470006745457D3900003C7E4B497930000003DB
:100480006371190F070000367F49497F3600000667
:100490004F49693F1E000000006C6C000000000026
:1004A000A0EC6C00000000081C3663410000001442
:1004B00014141414140000004163361C08000002D8
:1004C0000351590F0600003E7F415D5D1F1E007CF9
:1004D0007E13137E7C0000417F7F49497F36001CDC
:1004E0003E634141632200417F7F41637F1C0041A5
:1004F0007F7F495D416300417F7F491D0103001CEF
:100500003E6341517372007F7F08087F7F000000C7
:10051000417F7F41000000307040417F3F0100413A
:100520007F7F081C776300417F7F41406070007FC0
:100530007F060C067F7F007F7F060C187F7F001CE4
:100540003E6341633E1C00417F7F49090F06001E48
:100550003F21717F5E0000417F7F19396F46002681
:10056000674D597B32000003417F7F410300007FCC
:100570007F40407F7F00001F3F60603F1F00007F83
:100580007F3018307F7F0063771C081C776300077B
:100590004F78784F0700006773594D47637100002B
:1005A0007F7F41410000000103060C18306000000D
:1005B00041417F7F000000080C0603060C08008004
:1005C000808080808080800000030704000000207D
:1005D0007454543C784000413F7F44447C38003898
:1005E0007C44446C280000307848493F7F40003804
:1005F0007C54545C180000487E7F49030200009838
:10060000BCA4A4F87C0400417F7F08047C7800002F
:10061000447D7D4000000040C484FD7D0000004119
:100620007F7F10386C440000417F7F400000007CD9
:100630007C0C180C7C78007C7C04047C78000038EE
:100640007C44447C38000084FCF8A4243C18001846
:100650003C24A4F8FC8400447C78441C1800004826
:100660005C54547424000000043E7F442400003C89
:100670007C40403C7C40001C3C60603C1C00003CDA
:100680007C6030607C3C00446C3810386C44009CCA
:10069000BCA0A0FC7C00004C64745C4C64000008AE
:1006A000083E7741410000000000777700000041DC
:1006B00041773E0808000002030103020301000025
:1006C00011241FBECFEFD4E0DEBFCDBF13E0A0E00A
:1006D000B1E0ECE2FCE102C005900D92AA32B10754
:1006E000D9F723E0AAE2B3E001C01D92AA33B20712
:1006F000E1F70E947B070C94140E0C9400008C9A76
:10070000EAE8F0E080818860808380818160808376
:100710001092870010928600EBE8F0E08081806400
:10072000808308958FE08093001489EF90E0019713
:10073000F1F700C00000A1E0B4E18C91EAE2F3E03F
:1007400090E09183808389EF90E00197F1F700C0FA
:1007500000008C9190E09383828389EF90E0019771
:10076000F1F700C000008C9190E09583848389EFBD
:1007700090E00197F1F700C000008C9190E0978322
:1007800086830895CF93DF938AE591E00E941C0B46
:10079000CAE2D3E089818F9388818F9380E891E0CA
:1007A0009F938F930E94060B8B818F938A818F93E7
:1007B00087E991E09F938F930E94060B8D818F9321
:1007C0008C818F938EEA91E09F938F930E94060B0A
:1007D0008F818F938E818F9385EC91E09F938F9380
:1007E0000E94060B8DB79EB740960FB6F8949EBF39
:1007F0000FBE8DBFDF91CF91089585B7826085BF11
:1008000085B78E7F85BF8FB780688FBF8BB78064B9
:100810008BBF8A980E94CE052FE38DE093E0215094
:1008200080409040E1F700C0000043E063E08BE2CD
:100830000E94B00540E460EE8FE00E94B00508958C
:10084000CF92DF92EF92FF920F931F93CF93DF939C
:10085000CDB7DEB72C970FB6F894DEBF0FBECDBF75
:10086000E982FA820B831C832D833E834F83588752
:1008700069877A878B879C87CB80DC8049815A8106
:1008800062E070E081E30E9475058CED91E00E94CA
:100890001C0BA60161E070E085E30E9475051C1445
:1008A0001D04D4F47E0125E0E20EF11CCE018C0D76
:1008B0009D1DFC0135966F0116E3F70141917F0103
:1008C000042E000C550B61E070E0812F0E9475052D
:1008D0001F5FEC14FD0489F78EEE91E00E941C0B63
:1008E0000E9499058FEF91E00E941C0B2C960FB689
:1008F000F894DEBF0FBECDBFDF91CF911F910F9156
:10090000FF90EF90DF90CF900895CF92DF92EF921B
:10091000FF921F93CF93DF936C0181E60E946705DE
:10092000C82F82E60E9467052C2F30E0382BF60195
:100930003183208385E60E94670590E0F60193836A
:10094000828318161906ACF47601F4E0EF0EF11C60
:1009500016E6C0E0D0E0812F0E946705F701819381
:100960007F0121961F5FF60182819381C817D90705
:1009700094F340E061E08CE20E94B00510923303F2
:1009800010923203DF91CF911F91FF90EF90DF9093
:10099000CF90089581E090E09093330380933203E9
:1009A00008950E94920380912A0390912B03089549
:1009B0000E94920380912C0390912D0308950F9330
:1009C0001F93CF93DF930E949203CAE2D3E0088182
:1009D00019810E9492038A819B81023E110554F481
:1009E000093111054CF0873E910544F4499744F0D4
:1009F00083E407C084E505C082E403C082E501C04A
:100A00008CE4DF91CF911F910F9108950E94920382
:100A100080912E0390912F0308950E94920380915C
:100A200030039091310308950E94920320912E0388
:100A300030912F0344E6429FC001439F900D112443
:100A40006FEF70E00E94DE0ACB0108950E949203CE
:100A5000209130033091310344E6429FC001439F0F
:100A6000900D11246FEF70E00E94DE0ACB01089513
:100A70008DE092E00E941C0B0E94DF04282F082EBC
:100A8000000C330B3F938F938AE292E09F938F93F6
:100A90000E94060B0E9414059F938F938EEA91E0AB
:100AA0009F938F930E94060B0E9426059F938F931E
:100AB00085EC91E09F938F930E94060B8DB79EB7B4
:100AC0000C960FB6F8949EBF0FBE8DBF0895CF93BE
:100AD000C82FC49883E00E94D50A8C2F0E94D50AA3
:100AE0000E94D80AC49ACF910895EF92FF920F9373
:100AF0001F93CF93DF93C82F8B017A01C49882E0B4
:100B00000E94D50A8C2F0E94D50A101611064CF4AB
:100B1000E7010E0D1F1D89910E94D50AC017D1074C
:100B2000D1F7C49ADF91CF911F910F91FF90EF9071
:100B30000895C4988BE392E00E941C0B81E80E9408
:100B4000D50A8CE492E00E941C0BC49A0895C498C4
:100B500080EA0E94D50AC49A8CE20E946705089533
:100B60001F93CF93DF93182FD62FC42FC49885E0FF
:100B70000E94D50A812F0E94D50A8D2F0E94D50A86
:100B80008C2F0E94D50AC49ADF91CF911F910895AE
:100B9000C49880EC0E94D50AC49A08950E94C00AA5
:100BA0000E94C30A0E94C8058EE00E946705807EED
:100BB000803831F08CE592E00E941C0B81E00895B2
:100BC00080E008955D9BFECF8CB9089590BD89B9F2
:100BD00088E18AB98EE880BD80E091E09093370388
:100BE0008093360308958BB18CB108955F9B03C049
:100BF0008CB15F99FDCF089591E097BB18BA8093AF
:100C0000001098BB08958EEA90E00E94FC0581EAEE
:100C100090E00E94FC058AED90E00E94FC0582E1D4
:100C200090E00E94FC0588EC90E00E94FC0588EAB8
:100C300090E00E94FC058FE390E00E94FC0585EDAA
:100C400090E00E94FC0580E890E00E94FC0581E8AD
:100C500090E00E94FC0580E590E00E94FC0589ED93
:100C600090E00E94FC0581E290E00E94FC0580E299
:100C700090E00E94FC0582E090E00E94FC058BED74
:100C800090E00E94FC0580E390E00E94FC058DEA64
:100C900090E00E94FC0580E090E00E94FC0584EA60
:100CA00090E00E94FC0586EA90E00E94FC058FEA35
:100CB00090E00E94FC0580E190E00E94FC05089510
:100CC00091E097BB98BB8093001218BA0895806B8F
:100CD0000E94FC0580E090E00E94FC0580E190E02D
:100CE0000E94FC050895CF93DF930E946706C0E839
:100CF000D0E080E090E00E94600681EE94E00197F1
:100D0000F1F700C000002197A1F7DF91CF9108957E
:100D1000CF93DF930E946706C0E8D0E08FEF90E0AA
:100D20000E94600681EE94E00197F1F700C0000098
:100D30002197A1F7DF91CF9108950F931F93CF9340
:100D4000DF9300E010E0C8010E946706C0E8D0E031
:100D500080E090E00E9460062197D1F70F5F1F4F5F
:100D60000830110581F7DF91CF911F910F91089500
:100D7000AF92BF92CF92DF92EF92FF920F931F93A9
:100D8000CF93DF93A12CB12CC12CD12C0F2EF0E9E5
:100D9000EF2EF2E0FF2EF02DC5010E94670601E064
:100DA00010E0CC2DDD2D03C00F5F1F4F2196209743
:100DB00079F48FEF90E00E946006DF93CF93FF926B
:100DC000EF920E94060B0F900F900F900F90ECCFB8
:100DD0008C2D9D2D0E946006DF93CF93FF92EF92A2
:100DE0000E94060B0F900F900F900F900038110586
:100DF000D8F28FEFA81AB80A88E0A816B10461F6F5
:100E0000DF91CF911F910F91FF90EF90DF90CF90E6
:100E1000BF90AF900895CF93DF93EC018F70992727
:100E20000E94FC05CE01807E992780610E94FC050E
:100E3000DF91CF91089580E090E00E94600680EC01
:100E400090E00E94600680ED90E00E94600688EDD0
:100E500090E00E9460068CEF90E00E9460068CEFAC
:100E600090E00E94600688E190E00E94600680E1C8
:100E700090E00E94600608950F931F93CF93DF9335
:100E800080978C01000F111F000F111F000F111F01
:100E9000E801C953DC4F01531C4FFE01849190E0DF
:100EA0000E9460062196C017D107B9F7DF91CF9154
:100EB0001F910F9108950F931F93CF93DF93FC0120
:100EC00001900020E9F73197E81BF90B1E161F0669
:100ED0006CF4EC018C010E0F1F1F8991082E000C81
:100EE000990B0E943C07C017D107B9F7DF91CF914A
:100EF0001F910F910895CF93DF93CDB7DEB7EA9797
:100F00000FB6F894DEBF0FBECDBF85B7806885BF32
:100F100080B7806280BF8FE190E00E94E6050E946A
:100F200003060E949D06CE0101960E9436098EE9B5
:100F300092E00E941C0B0E94FD0384EA92E00E9452
:100F40001C0B8CE0EEE4F1E0DE01939601900D9233
:100F50008A95E1F7EBA0FCA00DA11EA12FA138A559
:100F600049A55AA56BA57CA58DA59EA50E94200428
:100F700083EB92E00E941C0BCC24C394D12C0F2E47
:100F8000F3EE4F2EF2E05F2EF02D0F2EF6EF6F2EC8
:100F9000F2E07F2EF02D2FEF8FE392E02150804082
:100FA0009040E1F700C00000DF92CF9289809A80E4
:100FB000AB80BC80CD80DE80EF80F88409851A8507
:100FC0002B853C854D855E856F857889CE01419660
:100FD0000E947B0980E1FE017196DE01119601906D
:100FE0000D928A95E1F7C9A0DAA0EBA0FCA00DA1B3
:100FF0001EA12FA138A549A55AA56BA57CA58DA535
:101000009EA50E94200482EC92E00E941C0B0F908F
:101010000F908091320390913303892B09F4BBCF59
:1010200080ED92E00E941C0B0E94A70580FFB3CFC9
:10103000CE018F960E9485045F924F920E94060B0C
:101040008BA9282F082E000C330B3F938F937F9290
:101050006F920E94060B0F900F900F900F900F90C1
:101060000F9099CFCF93DF9381E090E00E940B0720
:10107000C2E0D0E0CE010E9467068AEF92E00E94B3
:101080005B072196C630D105A9F7DF91CF9108956E
:10109000AF92BF92CF92DF92EF92FF920F931F9386
:1010A000CF93DF937C01EB015A01690180E090E06E
:1010B0000E94670681E090E00E940B07C7010E9432
:1010C0005B070E94320882E090E00E94670681E0A0
:1010D00090E00E940B07C130D10559F589EF92E0ED
:1010E0000E945B0782E090E00E94670684E190E046
:1010F0000E940B07C5010E945B0783E090E00E94FD
:10110000670681E090E00E940B0783E090E00E9478
:10111000670684E190E00E940B07C6010E945B070E
:1011200084E090E00E94670681E090E00E940B0757
:101130006FC082E090E00E94670684E190E00E9428
:101140000B07C5010E945B0783E090E00E946706E1
:1011500081E090E00E940B07C230D10559F589EF7C
:1011600092E00E945B0783E090E00E94670684E1C2
:1011700090E00E940B07C6010E945B0784E090E0AC
:101180000E94670681E090E00E940B0784E090E0F7
:101190000E94670684E190E00E940B07C8010E944C
:1011A0005B0785E090E00E94670681E090E00E9486
:1011B0000B0747C083E090E00E94670684E190E05F
:1011C0000E940B07C6010E945B0784E090E00E942A
:1011D000670681E090E00E940B07C330D105C1F49F
:1011E00089EF92E00E945B0784E090E00E9467062E
:1011F00084E190E00E940B07C8010E945B0785E034
:1012000090E00E94670681E090E00E940B0719C001
:1012100084E090E00E94670684E190E00E940B0762
:10122000C8010E945B0785E090E00E94670681E0AC
:1012300090E00E940B07249721F489EF92E00E942E
:101240005B0785E090E00E94670684E190E00E94E1
:101250000B070E941B07DF91CF911F910F91FF9009
:10126000EF90DF90CF90BF90AF900895CF93DF9332
:10127000AEE3B1E04EE051E011965C934E930A2E3E
:101280001B2E1B961C920E9211241A970A2E1B2EAF
:101290001D961C920E9211241C970A2E1B2E1F962F
:1012A0001C920E9211241E97CEE2D1E059834883FE
:1012B000DB87CA87DD87CC87DF87CE872EE131E0E9
:1012C000F901518340833387228735872487378705
:1012D0002687FA015183408333872287D587C487C5
:1012E000B787A68720E1DC0101900D922A95E1F7EE
:1012F000DF91CF9108954F925F926F927F928F927C
:101300009F92AF92BF92CF92DF92EF92FF920F9394
:101310001F93CF93DF93CDB7DEB760970FB6F894E6
:10132000DEBF0FBECDBF3C0189829A82AB82BC82F8
:10133000CD82DE82EF82F88609871A872B873C8769
:101340004D875E876F87788B4BA05CA0E980FA8021
:10135000CB84DC84AD84BE848F84988887B317BA2D
:10136000C19AFA82E982DC86CB86BE86AD86988AEF
:101370008F8609851A852F8138854D815E81B2015E
:101380008B819C810E9448080E94DF04843549F4C7
:1013900081E04816510409F47DC0E1E04E1A51087D
:1013A00082C0823449F4F4E04F16510409F478C045
:1013B0008FEF481A580A77C0B1991AC0E1E04E166B
:1013C0005104B1F480E1F601DE01119601900D9215
:1013D0008A95E1F7F601E080F18002851385A48407
:1013E000B584868497840E949D06C02ED12E5BC052
:1013F000B1991AC0F2E04F165104B1F480E1F50141
:10140000DE01119601900D928A95E1F7F501E080D9
:10141000F180C284D38404851585868497840E94D4
:101420009D06A02EB12E3FC0B19918C0F3E04F1613
:101430005104A1F480E1F401DE01119601900D92B6
:101440008A95E1F7F401E080F180C284D384A4841A
:10145000B584868497840E949D0625C0B19923C0D7
:10146000F4E04F165104F9F480E1F701DE01119622
:1014700001900D928A95E1F7F70100811181C284F4
:10148000D384A484B584868497840E949D06E02E2C
:10149000F12E09C00F2EF3E04F2E512CF02D03C07A
:1014A00044244394512CFA82E982DC86CB86BE86A2
:1014B000AD86988A8F8680E1FE013196D301019036
:1014C0000D928A95E1F7F301F182E082D386C2861C
:1014D000B586A48697868686518A408AC30160961F
:1014E0000FB6F894DEBF0FBECDBFDF91CF911F9135
:1014F0000F91FF90EF90DF90CF90BF90AF909F90B3
:101500008F907F906F905F904F9008958F929F92F1
:10151000AF92BF92CF92DF92EF92FF920F931F9301
:10152000CF93DF93CDB7DEB760970FB6F894DEBFE9
:101530000FBECDBFCB82DC82ED82FE820F83188787
:1015400029873A87B40109851A852F8138854D810D
:101550005E818B819C810E94480860960FB6F8944A
:10156000DEBF0FBECDBFDF91CF911F910F91FF90D6
:10157000EF90DF90CF90BF90AF909F908F900895A5
:101580006B986A98089580EB87BBBE9881E58DB90A
:1015900008958FB9779BFECF089580E487BB8DB9FE
:1015A0000895779BFECF8FB108950E94C90A0895D0
:1015B00081E60E94C90A0E94D10A089597FB072E6E
:1015C00016F4009407D077FD09D00E94F20A07FCB8
:1015D00005D03EF4909581959F4F08957095619543
:1015E0007F4F0895AA1BBB1B51E107C0AA1FBB1F59
:1015F000A617B70710F0A61BB70B881F991F5A959F
:10160000A9F780959095BC01CD010895A0E0B0E0C8
:10161000ECE0FBE00C94ED0DAE014B5F5F4FFA0187
:1016200061917191AF0180913603909137030E94CF
:101630004C0BE2E00C94090E0F931F93CF93DF93B2
:10164000E0913603F0913703238121FF1BC08C0109
:10165000D0E0C0E0F80181918F0160913603709174
:101660003703DB011896ED91FC911997882331F02F
:101670000995892B79F3DFEFCFEFECCF8AE009955D
:10168000892B19F08FEF9FEF02C08D2F9C2FDF91D8
:10169000CF911F910F910895ABE0B0E0E2E5FBE040
:1016A0000C94DD0D6C017B018A01FC01178216820E
:1016B000838181FFCCC1CE0101963C01F60193816B
:1016C000F70193FD859193FF81917F01882309F4B0
:1016D000BAC1853239F493FD859193FF81917F01E1
:1016E000853229F4B60190E00E94430DE7CF912C9A
:1016F000212C312CFFE1F315D8F08B3279F038F43E
:10170000803279F08332A1F4232D20611DC08D3207
:1017100061F0803369F4232D216016C0832D82602F
:10172000382EE32DE4603E2E2AC0F32DF8601DC054
:1017300037FC2DC020ED280F2A3040F08E32B9F44E
:1017400036FC81C1232D2064322E19C036FE06C01E
:101750008AE0989E200D1124922E11C0EAE02E9E60
:10176000200D1124222EF32DF0623F2E08C08C365E
:1017700021F4832D8068382E02C0883641F4F701A9
:1017800093FD859193FF81917F018111B3CF982FB4
:101790009F7D9554933028F40C5F1F4F9FE39983EE
:1017A0000DC0833631F0833771F0833509F059C0AD
:1017B00021C0F801808189830E5F1F4F88248394A4
:1017C000912C530113C02801F2E04F0E511CF80177
:1017D000A080B18036FE03C0692D70E002C06FEFBB
:1017E0007FEFC5010E94380D4C018201F32DFF7778
:1017F0003F2E16C0280122E0420E511CF801A080A5
:10180000B18036FE03C0692D70E002C06FEF7FEF3C
:10181000C5010E942D0D4C01F32DF0683F2E820171
:1018200033FC1BC0822D90E088169906B0F4B601F7
:1018300080E290E00E94430D2A94F4CFF50137FC3A
:10184000859137FE81915F01B60190E00E94430DC2
:1018500021102A9421E0821A91088114910471F7D1
:10186000E8C0843611F0893641F5F80137FE07C02B
:1018700060817181828193810C5F1F4F08C06081FC
:101880007181072E000C880B990B0E5F1F4FF32DF3
:10189000FF763F2E97FF09C09095809570956195D2
:1018A0007F4F8F4F9F4FF0683F2E2AE030E0A3011B
:1018B0000E947F0D882E861845C0853731F4232D70
:1018C0002F7EB22E2AE030E025C0932D997FB92ECD
:1018D0008F36C1F018F4883579F0B5C0803719F02B
:1018E000883721F0B0C0E92FE061BE2EB4FE0DC0F4
:1018F000FB2DF460BF2E09C034FE0AC0292F2660DC
:10190000B22E06C028E030E005C020E130E002C081
:1019100020E132E0F801B7FE07C060817181828169
:1019200093810C5F1F4F06C06081718180E090E061
:101930000E5F1F4FA3010E947F0D882E8618FB2D7E
:10194000FF773F2E36FE0DC0232D2E7FA22E891449
:1019500058F434FE0BC032FC09C0832D8E7EA82EB5
:1019600005C0B82CA32C03C0B82C01C0B92CA4FE10
:101970000FC0FE01E80DF11D8081803321F49A2D06
:10198000997EA92E09C0A2FE06C0B394B39404C0E8
:101990008A2D867809F0B394A3FC11C0A0FE06C07E
:1019A000B21488F4280C922C9B180EC0B21460F468
:1019B000B60180E290E00E94430DB394F7CFB214D9
:1019C00018F42B1802C0982C212CA4FE10C0B601CC
:1019D00080E390E00E94430DA2FE17C0A1FC03C06B
:1019E00088E790E002C088E590E0B6010CC08A2D3F
:1019F000867859F0A1FE02C08BE201C080E2A7FC0C
:101A00008DE2B60190E00E94430D891438F4B601CE
:101A100080E390E00E94430D9A94F7CF8A94F301FB
:101A2000E80DF11D8081B60190E00E94430D811008
:101A3000F5CF222009F442CEB60180E290E00E9468
:101A4000430D2A94F6CFF6018681978102C08FEF6D
:101A50009FEF2B96E2E10C94F90DFC01059061508B
:101A600070400110D8F7809590958E0F9F1F0895B4
:101A7000FC016150704001900110D8F7809590955D
:101A80008E0F9F1F08950F931F93CF93DF93FB013A
:101A9000238121FD03C08FEF9FEF2CC022FF16C0D2
:101AA00046815781248135814217530744F4A08130
:101AB000B1819D012F5F3F4F318320838C9326811D
:101AC00037812F5F3F4F3783268314C08B01EC0192
:101AD000FB010084F185E02D0995892BE1F6D80101
:101AE00016968D919C911797019617969C938E93BD
:101AF0001697CE01DF91CF911F910F910895FA01B2
:101B0000AA27283051F1203181F1E8946F936E7F3C
:101B10006E5F7F4F8F4F9F4FAF4FB1E03ED0B4E02D
:101B20003CD0670F781F891F9A1FA11D680F791F6E
:101B30008A1F911DA11D6A0F711D811D911DA11D7F
:101B400020D009F468943F912AE0269F112430198F
:101B5000305D3193DEF6CF010895462F4770405D2A
:101B60004193B3E00FD0C9F7F6CF462F4F70405DD9
:101B70004A3318F0495D31FD4052419302D0A9F734
:101B8000EACFB4E0A6959795879577956795BA952E
:101B9000C9F700976105710508959B01AC010A2EF4
:101BA00006945795479537952795BA95C9F7620FCB
:101BB000731F841F951FA01D08952F923F924F926F
:101BC0005F926F927F928F929F92AF92BF92CF92CD
:101BD000DF92EF92FF920F931F93CF93DF93CDB7D6
:101BE000DEB7CA1BDB0B0FB6F894DEBF0FBECDBF4E
:101BF00009942A88398848885F846E847D848C841F
:101C00009B84AA84B984C884DF80EE80FD800C8127
:101C10001B81AA81B981CE0FD11D0FB6F894DEBF0A
:0C1C20000FBECDBFED010895F894FFCF7A
:101C2C000000000200000000E205000000000000BF
:101C3C00FC0209030C030F0300000000000000006D
:101C4C00050308030B030E03000000000000000056
:101C5C001103140317031A03000000000000000016
:101C6C001D032003230326030000000000000700CF
:101C7C00020061620000000000003D3D3D3D3D3D25
:101C8C003D3D3D41444320535452554354207661CD
:101C9C006C756573203D3D3D3D3D3D3D3D3D3D00FD
:101CAC00566572746963616C20617869733A20209F
:101CBC0020253464200A00486F72697A6F6E746153
:101CCC006C20617869733A20253464200A004C65D5
:101CDC00667420736C696465723A2020202020257C
:101CEC003464200A00526967687420736C696465F7
:101CFC00723A20202020253464200A006166746525
:101D0C0072206669727374207772697465006166FB
:101D1C00746572206C6173742077726974650061EC
:101D2C00667465722072657175657374003D3D3D16
:101D3C003D3D3D3D3D3D2053454E534F5253203D7F
:101D4C003D3D3D3D3D3D3D3D3D004A4F5953544980
:101D5C00434B3A2020202563200A006265666F728F
:101D6C00652053504920777269746500616674650B
:101D7C00722053504920777269746500204D43508E
:101D8C0032353135206973204E4F5420696E2063F3
:101D9C006F6E66696775726174696F6E206D6F64C2
:101DAC00652061667465722072657365742021000C
:101DBC006C696E653A202020253464200A00726517
:101DCC007365740061667465722063616E20696E60
:101DDC0069740061667465722063616E2073656E50
:101DEC0064000A6D6573736167652073656E7400BA
:101DFC00496E74657272757074207265636569766C
:101E0C006564006D657373616765207265636569F0
:101E1C007665643A20002578002320004F707469A1
:101E2C006F6E733A00413A00414100414200414318
:101E3C0000423A00424100424200424300433A0011
:0A1E4C0043410043420043430000FD
:00000001FF
