:100000000C9460030C9443050C947D030C947D03C5
:100010000C947D030C947D030C947D030C947D0360
:100020000C947D030C947D030C947D030C947D0350
:100030000C947D030C947D030C947D030C947D0340
:100040000C947D030C947D030C947D030C947D0330
:100050000C947D030C947D030C947D030C947D0320
:100060000C947D030C947D030C947D030C947D0310
:1000700000000000005C00000C000C007C287C28C4
:1000800058DC68002410480028542840000C000068
:10009000007884008478000054385400107C1000EC
:1000A00080400000101010000040000060100C00A4
:1000B00038543800487C40004864580044542C00B0
:1000C0001C107C005C5424003854240064140C0080
:1000D00068542C0048543800004800008048000054
:1000E0001028440028282800442810000454080040
:1000F00038445C00781478007C5428003844280088
:100100007C4438007C5444007C140400384474005F
:100110007C107C00447C440020403C007C106C003F
:100120007C4040007C187C0078103C00384438004B
:100130007C1408003844B8007C146800485424003B
:10014000047C04007C407C003C603C007C307C00F3
:100150006C106C000C700C0064544C00007C44006B
:100160000C106000447C00000804080080808000BF
:1001700000040800304878007C48300030484800CF
:1001800030487C00306850001078140090A8780047
:100190007C08700050744000808074007C106800FF
:1001A000447C4000781078007808700030483000B7
:1001B000F82810003048F80078100800505828003F
:1001C000083C4800384078003840380078207800F3
:1001D0004830480098A0780048685800107884009B
:1001E000007C00008478100008040804000000006F
:1001F0000000005F00000007000700147F147F1458
:10020000242A7F2A1223130864623649552250009B
:1002100005030000001C2241000041221C00082AA6
:100220001C2A0808083E080800503000000808088A
:100230000808006060000020100804023E51494593
:100240003E00427F400042615149462141454B31C9
:100250001814127F1027454545393C4A4949300159
:10026000710905033649494936064949291E0036B0
:100270003600000056360000000814224114141401
:10028000141441221408000201510906324979412F
:100290003E7E1111117E7F494949363E414141223E
:1002A0007F4141221C7F494949417F090901013EA3
:1002B000414151327F0808087F00417F41002040C2
:1002C000413F017F081422417F404040407F0204AB
:1002D000027F7F0408107F3E4141413E7F090909AA
:1002E000063E4151215E7F09192946464949493157
:1002F00001017F01013F4040403F1F2040201F7F00
:100300002018207F631408146303047804036151E8
:1003100049454300007F4141020408102041417FCC
:100320000000040201020440404040400001020479
:100330000020545454787F4844443838444444207E
:10034000384444487F3854545418087E0901020840
:100350001454543C7F0804047800447D400020403D
:10036000443D00007F10284400417F40007C041879
:1003700004787C0804047838444444387C14141409
:1003800008081414187C7C080404084854545420A9
:10039000043F4440203C4040207C1C2040201C3C2A
:1003A0004030403C44281028440C5050503C446499
:1003B000544C44000836410000007F0000004136E4
:1003C000080002010302010000000000000000001C
:1003D000065F5F0600000000070700070700001423
:1003E0007F7F147F7F1400242E6B6B3A120000462F
:1003F0006630180C666200307A4F5D377A48000428
:1004000007030000000000001C3E634100000000E4
:1004100041633E1C000000082A3E1C1C3E2A0808BE
:10042000083E3E0808000000A0E060000000000850
:100430000808080808000000006060000000006074
:1004400030180C060301003E7F594D7F3E000042EC
:10045000427F7F40400000627359496F660000226E
:100460006349497F360000181C16137F7F10002750
:100470006745457D3900003C7E4B497930000003DB
:100480006371190F070000367F49497F3600000667
:100490004F49693F1E000000006C6C000000000026
:1004A000A0EC6C00000000081C3663410000001442
:1004B00014141414140000004163361C08000002D8
:1004C0000351590F0600003E7F415D5D1F1E007CF9
:1004D0007E13137E7C0000417F7F49497F36001CDC
:1004E0003E634141632200417F7F41637F1C0041A5
:1004F0007F7F495D416300417F7F491D0103001CEF
:100500003E6341517372007F7F08087F7F000000C7
:10051000417F7F41000000307040417F3F0100413A
:100520007F7F081C776300417F7F41406070007FC0
:100530007F060C067F7F007F7F060C187F7F001CE4
:100540003E6341633E1C00417F7F49090F06001E48
:100550003F21717F5E0000417F7F19396F46002681
:10056000674D597B32000003417F7F410300007FCC
:100570007F40407F7F00001F3F60603F1F00007F83
:100580007F3018307F7F0063771C081C776300077B
:100590004F78784F0700006773594D47637100002B
:1005A0007F7F41410000000103060C18306000000D
:1005B00041417F7F000000080C0603060C08008004
:1005C000808080808080800000030704000000207D
:1005D0007454543C784000413F7F44447C38003898
:1005E0007C44446C280000307848493F7F40003804
:1005F0007C54545C180000487E7F49030200009838
:10060000BCA4A4F87C0400417F7F08047C7800002F
:10061000447D7D4000000040C484FD7D0000004119
:100620007F7F10386C440000417F7F400000007CD9
:100630007C0C180C7C78007C7C04047C78000038EE
:100640007C44447C38000084FCF8A4243C18001846
:100650003C24A4F8FC8400447C78441C1800004826
:100660005C54547424000000043E7F442400003C89
:100670007C40403C7C40001C3C60603C1C00003CDA
:100680007C6030607C3C00446C3810386C44009CCA
:10069000BCA0A0FC7C00004C64745C4C64000008AE
:1006A000083E7741410000000000777700000041DC
:1006B00041773E0808000002030103020301000025
:1006C00011241FBECFEFD4E0DEBFCDBF13E0A0E00A
:1006D000B1E0E2EFFDE102C005900D92A034B10758
:1006E000D9F723E0A0E4B3E001C01D92A035B20722
:1006F000E1F70E9412080C94F70E0C9457058C9A9F
:100700008EB588608EBD8EB581608EBD1BBC1ABC57
:100710008FB580648FBD08958FE08093001489EFBA
:1007200090E00197F1F700C00000A1E0B4E18C91E6
:10073000E0E4F3E090E09183808389EF90E001971B
:10074000F1F700C000008C9190E09383828389EFE1
:1007500090E00197F1F700C000008C9190E0958344
:10076000848389EF90E00197F1F700C000008C913D
:1007700090E0978386830895CF93DF938EE491E092
:100780000E94FF0BC0E4D3E089818F9388818F930F
:1007900084E791E09F938F930E94E20B8B818F936C
:1007A0008A818F938BE891E09F938F930E94E20B55
:1007B0008D818F938C818F9382EA91E09F938F93A9
:1007C0000E94E20B8F818F938E818F9389EB91E052
:1007D0009F938F930E94E20B8DB79EB740960FB602
:1007E000F8949EBF0FBE8DBFDF91CF9108958A9878
:1007F0000E9467062FE38DE093E0215080409040F7
:10080000E1F700C0000043E06FE18BE20E9449067F
:1008100040E460EE8FE00E9449068EE00E94F705FA
:10082000807E803429F080ED91E00E94FF0B0895D6
:10083000F89485B7826085BF85B78E7F85BF8FB7F7
:1008400080688FBF8BB780648BBF789440E050E0A6
:1008500062E070E08CE20E9405060895CF92DF927C
:10086000EF92FF920F931F93CF93DF93CDB7DEB735
:100870002C970FB6F894DEBF0FBECDBFE982FA8287
:100880000B831C832D833E834F83588769877A8728
:100890008B879C8749815A8162E070E081E30E94E6
:1008A00005064B815C8161E070E085E30E940506EE
:1008B0008C818F938B818F938FEF91E09F938F9398
:1008C0000E94E20B6B817C81AE014B5F5F4F86E340
:1008D0000E9405060F900F900F900F908B819C81C6
:1008E0001816190604F56E0185E0C80ED11C00E04B
:1008F00010E00F2EFCE1EF2EF2E0FF2EF02DF601BE
:1009000081916F011F928F93FF92EF920E94E20BF1
:100910000F5F1F4F0F900F900F900F908B819C8156
:100920000817190764F30E943B062C960FB6F8943B
:10093000DEBF0FBECDBFDF91CF911F910F91FF9012
:10094000EF90DF90CF900895CF92DF92FF920F93B8
:100950001F93CF93DF93EC016130710509F042C022
:1009600081E60E94F705182F82E60E94F705212FE5
:1009700030E0382B3983288385E60E94F705282F3D
:1009800030E03B832A831F928F9380E292E09F9313
:100990008F930E94E20B0F900F900F900F908A811F
:1009A0009B8118161906C4F46E0184E0C80ED11C90
:1009B0000F2EF6E6FF2EF02D00E010E08F2D0E94A6
:1009C000F705F60181936F010F5F1F4FF3948A8142
:1009D0009B810817190794F340E061E08CE20E94C4
:1009E000490645C06230710509F041C081E70E94A7
:1009F000F705182F82E70E94F705212F30E0382BEA
:100A00003983288385E70E94F705282F30E03B8350
:100A10002A831F928F9382E492E09F938F930E9488
:100A2000E20B0F900F900F900F908A819B81181608
:100A30001906C4F46E01F4E0CF0ED11C0F2EF6E7B8
:100A4000FF2EF02D00E010E08F2D0E94F705F6013B
:100A500081936F010F5F1F4FF3948A819B81081769
:100A6000190794F340E062E08CE20E94490610927C
:100A7000490310924803DF91CF911F910F91FF908E
:100A8000DF90CF9008951F920F920FB60F9211240E
:100A90008F939F9381E090E0909349038093480364
:100AA0009F918F910F900FBE0F901F9018951F92DE
:100AB0000F920FB60F9211240F900FBE0F901F9040
:100AC00018950E948C0380914003909141030895F2
:100AD0000E948C03809142039091430308950F93E9
:100AE0001F93CF93DF930E948C03C0E4D3E008816F
:100AF00019810E948C038A819B81023E110554F466
:100B0000093111054CF0873E910544F4499744F0B2
:100B100083E407C084E505C082E403C082E501C028
:100B20008CE4DF91CF911F910F9108950E948C0367
:100B3000809144039091450308950E948C03809115
:100B400046039091470308950E948C03209144032B
:100B50003091450344E6429FC001439F900D11240C
:100B60006FEF70E00E94BA0BCB0108950E948C03D6
:100B7000209146033091470344E6429FC001439FC2
:100B8000900D11246FEF70E00E94BA0BCB01089515
:100B900084E692E00E94FF0B0E946F05282F082E2A
:100BA000000C330B3F938F9381E892E09F938F93D8
:100BB0000E94E20B0E94A4059F938F9382EA91E02A
:100BC0009F938F930E94E20B0E94B6059F938F9391
:100BD00089EB91E09F938F930E94E20B8DB79EB7B4
:100BE0000C960FB6F8949EBF0FBE8DBF0895CF939D
:100BF000C82FC49883E00E94B20B8C2F0E94B20BC6
:100C00000E94B50BC49ACF910895EF92FF920F9373
:100C10001F93CF93DF93C82F8B017A01C49882E092
:100C20000E94B20B8C2F0E94B20B101611064CF4CE
:100C3000E7010E0D1F1D89910E94B20BC017D1074D
:100C4000D1F7C49ADF91CF911F910F91FF90EF9050
:100C50000895CF93DF93D82FC62FC49882E00E94C7
:100C6000B20B8D2F0E94B20B8C2F0E94B20BC49A34
:100C7000DF91CF910895C49881E80E94B20BC49A85
:100C80000895C49880EA0E94B20B0E94B50BC49AE2
:100C900008951F93CF93DF93182FD62FC42FC49896
:100CA00085E00E94B20B812F0E94B20B8D2F0E9413
:100CB000B20B8C2F0E94B20BC49ADF91CF911F917F
:100CC0000895C49880EC0E94B20BC49A08950E94C3
:100CD000980B0E9461068EE00E94F705807E8038A6
:100CE00031F082E992E00E94FF0B81E0089580E0FC
:100CF00008955D9BFECF8CB9089590BD89B988E1B8
:100D00008AB98EE880BD80E091E090934D03809396
:100D10004C0308958BB18CB108955F9B03C08CB1D7
:100D20005F99FDCF089591E097BB18BA80930010AA
:100D300098BB08958EEA90E00E94930681EA90E0C5
:100D40000E9493068AED90E00E94930682E190E073
:100D50000E94930688EC90E00E94930688EA90E057
:100D60000E9493068FE390E00E94930685ED90E049
:100D70000E94930680E890E00E94930681E890E04C
:100D80000E94930680E590E00E94930689ED90E032
:100D90000E94930681E290E00E94930680E290E038
:100DA0000E94930682E090E00E9493068BED90E013
:100DB0000E94930680E390E00E9493068DEA90E003
:100DC0000E94930680E090E00E94930684EA90E0FF
:100DD0000E94930686EA90E00E9493068FEA90E0D4
:100DE0000E94930680E190E00E949306089591E0AE
:100DF00097BB98BB8093001218BA0895806B0E942D
:100E0000930680E090E00E94930680E190E00E94CB
:100E100093060895CF93DF930E94FE06C0E8D0E0CA
:100E200080E090E00E94F70681EE94E00197F1F7F0
:100E300000C000002197A1F7DF91CF910895CF93D3
:100E4000DF930E94FE06C0E8D0E08FEF90E00E94A2
:100E5000F70681EE94E00197F1F700C000002197BA
:100E6000A1F7DF91CF9108950F931F93CF93DF9355
:100E700000E010E0C8010E94FE06C0E8D0E080E07B
:100E800090E00E94F7062197D1F70F5F1F4F0830BF
:100E9000110581F7DF91CF911F910F910895AF92C6
:100EA000BF92CF92DF92EF92FF920F931F93CF9357
:100EB000DF93A12CB12CC12CD12C0F2EF6ECEF2EF0
:100EC000F2E0FF2EF02DC5010E94FE0601E010E0C9
:100ED000CC2DDD2D03C00F5F1F4F2196209779F495
:100EE0008FEF90E00E94F706DF93CF93FF92EF928F
:100EF0000E94E20B0F900F900F900F90ECCF8C2D73
:100F00009D2D0E94F706DF93CF93FF92EF920E94F0
:100F1000E20B0F900F900F900F9000381105D8F250
:100F20008FEFA81AB80A88E0A816B10461F6DF911D
:100F3000CF911F910F91FF90EF90DF90CF90BF90D6
:100F4000AF900895CF93DF93EC018F7099270E94A3
:100F50009306CE01807E992780610E949306DF91DF
:100F6000CF91089580E090E00E94F70680EC90E039
:100F70000E94F70680ED90E00E94F70688ED90E071
:100F80000E94F7068CEF90E00E94F7068CEF90E04D
:100F90000E94F70688E190E00E94F70680E190E069
:100FA0000E94F70608950F931F93CF93DF938097C6
:100FB0008C01000F111F000F111F000F111FE801FE
:100FC000C953DC4F01531C4FFE01849190E00E94F5
:100FD000F7062196C017D107B9F7DF91CF911F917E
:100FE0000F9108950F931F93CF93DF93FC0101900E
:100FF0000020E9F73197E81BF90B1E161F066CF469
:10100000EC018C010E0F1F1F8991082E000C990B0B
:101010000E94D307C017D107B9F7DF91CF911F9175
:101020000F910895CF93DF93CDB7DEB7A8970FB692
:10103000F894DEBF0FBECDBF85B7806885BF80B78F
:10104000806280BF8FE190E00E947D060E947F0356
:101050000E949A060E943407CE0101960E940E0A51
:1010600084ED92E00E94FF0B0E94F7038AED92E06C
:101070000E94FF0BFE0171968CE0DF011D928A95A4
:10108000E9F787E090E09A8B898B81E68D8B82E689
:101090008E8B83E68F8B8E010B5E1F4F6E01B8E146
:1010A000CB0ED11C0F2EFCE1EF2EF2E0FF2EF02D27
:1010B000F80181918F011F928F93FF92EF920E940E
:1010C000E20B0F900F900F900F900C151D0581F7FC
:1010D00083E0082F8B8B1C8AE988FA8810E02D8921
:1010E0003E894F89588D698D7A8D8B8D9C8D0E949C
:1010F0002E0489EE92E00E94FF0B0F2EF8EFAF2E28
:10110000F2E0BF2EF02D0F2EF3E07F2EF02D612C9C
:101110000F2EFEE24F2EF2E05F2EF02D0F2EF4E0A8
:101120002F2EF3E03F2EF02D4E01F1E28F0E911C99
:101130000F2EFCE1CF2EF2E0DF2EF02D2FEF8FE30C
:1011400092E0215080409040E1F700C00000072D60
:101150007B8A6C8AE988FA88162D2D893E894F8909
:10116000588D698D7A8D8B8D9C8D0E942E048CE21A
:101170000E94F705182F1F928F93BF92AF920E9483
:10118000E20B13700F900F900F900F90B9F2F8943C
:10119000612F70E0CE014D960E94A404789488A13E
:1011A0008F938F8D8F935F924F920E94E20B3F92AD
:1011B0002F920E94E20B9F928F92DF92CF920E9419
:1011C000E20B0FB6F894DEBF0FBECDBF8F8D98A196
:1011D00018161906D4F47E01B1E2EB0EF11C00E002
:1011E00010E0F70181917F011F928F93DF92CF92E0
:1011F0000E94E20B0F5F1F4F0F900F900F900F9008
:101200008F8D98A10817190764F38AE090E00E9477
:10121000F80B94CFCF93DF9381E090E00E94A20778
:10122000C2E0D0E0CE010E94FE0680E193E00E9481
:10123000F2072196C630D105A9F7DF91CF91089525
:10124000AF92BF92CF92DF92EF92FF920F931F93D4
:10125000CF93DF937C01EB015A01690180E090E0BC
:101260000E94FE0681E090E00E94A207C7010E9452
:10127000F2070E940A0982E090E00E94FE0681E0E7
:1012800090E00E94A207C130D10559F58FE093E0AC
:101290000E94F20782E090E00E94FE0684E190E066
:1012A0000E94A207C5010E94F20783E090E00E941D
:1012B000FE0681E090E00E94A20783E090E00E9499
:1012C000FE0684E190E00E94A207C6010E94F20798
:1012D00084E090E00E94FE0681E090E00E94A20778
:1012E0006FC082E090E00E94FE0684E190E00E94E0
:1012F000A207C5010E94F20783E090E00E94FE066B
:1013000081E090E00E94A207C230D10559F58FE03C
:1013100093E00E94F20783E090E00E94FE0684E1E1
:1013200090E00E94A207C6010E94F20784E090E0CC
:101330000E94FE0681E090E00E94A20784E090E017
:101340000E94FE0684E190E00E94A207C8010E946C
:10135000F20785E090E00E94FE0681E090E00E94A6
:10136000A20747C083E090E00E94FE0684E190E07F
:101370000E94A207C6010E94F20784E090E00E944A
:10138000FE0681E090E00E94A207C330D105C1F4BF
:101390008FE093E00E94F20784E090E00E94FE0656
:1013A00084E190E00E94A207C8010E94F20785E054
:1013B00090E00E94FE0681E090E00E94A20719C022
:1013C00084E090E00E94FE0684E190E00E94A20783
:1013D000C8010E94F20785E090E00E94FE0681E0CD
:1013E00090E00E94A207249721F48FE093E00E94EE
:1013F000F20785E090E00E94FE0684E190E00E9402
:10140000A2070E94B207DF91CF911F910F91FF9029
:10141000EF90DF90CF90BF90AF900895CF93DF9380
:10142000AEE3B1E04EE051E011965C934E930A2E8C
:101430001B2E1B961C920E9211241A970A2E1B2EFD
:101440001D961C920E9211241C970A2E1B2E1F967D
:101450001C920E9211241E97CEE2D1E0598348834C
:10146000DB87CA87DD87CC87DF87CE872EE131E037
:10147000F901518340833387228735872487378753
:101480002687FA015183408333872287D587C48713
:10149000B787A68720E1DC0101900D922A95E1F73C
:1014A000DF91CF9108954F925F926F927F928F92CA
:1014B0009F92AF92BF92CF92DF92EF92FF920F93E3
:1014C0001F93CF93DF93CDB7DEB760970FB6F89435
:1014D000DEBF0FBECDBF3C0189829A82AB82BC8247
:1014E000CD82DE82EF82F88609871A872B873C87B8
:1014F0004D875E876F87788B4BA05CA0E980FA8070
:10150000CB84DC84AD84BE848F84988887B317BA7B
:10151000C19AFA82E982DC86CB86BE86AD86988A3D
:101520008F8609851A852F8138854D815E81B201AC
:101530008B819C810E9420090E946F05843549F4AB
:1015400081E04816510409F47DC0E1E04E1A5108CB
:1015500082C0823449F4F4E04F16510409F478C093
:101560008FEF481A580A77C0B1991AC0E1E04E16B9
:101570005104B1F480E1F601DE01119601900D9263
:101580008A95E1F7F601E080F18002851385A48455
:10159000B584868497840E943407C02ED12E5BC008
:1015A000B1991AC0F2E04F165104B1F480E1F5018F
:1015B000DE01119601900D928A95E1F7F501E08028
:1015C000F180C284D38404851585868497840E9423
:1015D0003407A02EB12E3FC0B19918C0F3E04F16CA
:1015E0005104A1F480E1F401DE01119601900D9205
:1015F0008A95E1F7F401E080F180C284D384A48469
:10160000B584868497840E94340725C0B19923C08D
:10161000F4E04F165104F9F480E1F701DE01119670
:1016200001900D928A95E1F7F70100811181C28442
:10163000D384A484B584868497840E943407E02EE2
:10164000F12E09C00F2EF3E04F2E512CF02D03C0C8
:1016500044244394512CFA82E982DC86CB86BE86F0
:10166000AD86988A8F8680E1FE013196D301019084
:101670000D928A95E1F7F301F182E082D386C2866A
:10168000B586A48697868686518A408AC30160966D
:101690000FB6F894DEBF0FBECDBFDF91CF911F9183
:1016A0000F91FF90EF90DF90CF90BF90AF909F9001
:1016B0008F907F906F905F904F9008958F929F9240
:1016C000AF92BF92CF92DF92EF92FF920F931F9350
:1016D000CF93DF93CDB7DEB760970FB6F894DEBF38
:1016E0000FBECDBFCB82DC82ED82FE820F831887D6
:1016F00029873A87B40109851A852F8138854D815C
:101700005E818B819C810E94200960960FB6F894BF
:10171000DEBF0FBECDBFDF91CF911F910F91FF9024
:10172000EF90DF90CF90BF90AF909F908F900895F3
:101730006B986A9880EB87BBBE9881E58DB9089558
:1017400080EB87BBBE9881E58DB908958FB9779BF3
:10175000FECF089580E487BB8DB90895779BFECFB7
:101760008FB108950E94A60B089581E60E94A60BF2
:101770008FB1089597FB072E16F4009407D077FDDC
:1017800009D00E94CE0B07FC05D03EF490958195C0
:101790009F4F0895709561957F4F0895AA1BBB1BBD
:1017A00051E107C0AA1FBB1FA617B70710F0A61B61
:1017B000B70B881F991F5A95A9F780959095BC0182
:1017C000CD010895A0E0B0E0E8EEFBE00C94D00E6F
:1017D000AE014B5F5F4FFA0161917191AF01809152
:1017E0004C0390914D030E942F0CE2E00C94EC0E00
:1017F00060914C0370914D030E94260E08950F9343
:101800001F93CF93DF93E0914C03F0914D0323811D
:1018100021FF1BC08C01D0E0C0E0F80181918F0155
:1018200060914C0370914D03DB011896ED91FC9192
:101830001997882331F00995892B79F3DFEFCFEFE2
:10184000ECCF8AE00995892B19F08FEF9FEF02C04A
:101850008D2F9C2FDF91CF911F910F910895ABE0B9
:10186000B0E0E5E3FCE00C94C00E6C017B018A0162
:10187000FC0117821682838181FFCCC1CE010196C3
:101880003C01F6019381F70193FD859193FF8191CE
:101890007F01882309F4BAC1853239F493FD85911B
:1018A00093FF81917F01853229F4B60190E00E9477
:1018B000260EE7CF912C212C312CFFE1F315D8F027
:1018C0008B3279F038F4803279F08332A1F4232D11
:1018D00020611DC08D3261F0803369F4232D2160B9
:1018E00016C0832D8260382EE32DE4603E2E2AC080
:1018F000F32DF8601DC037FC2DC020ED280F2A30D5
:1019000040F08E32B9F436FC81C1232D2064322E92
:1019100019C036FE06C08AE0989E200D1124922E32
:1019200011C0EAE02E9E200D1124222EF32DF0622C
:101930003F2E08C08C3621F4832D8068382E02C0DB
:10194000883641F4F70193FD859193FF81917F01E2
:101950008111B3CF982F9F7D9554933028F40C5F5D
:101960001F4F9FE399830DC0833631F0833771F0A9
:10197000833509F059C021C0F801808189830E5F49
:101980001F4F88248394912C530113C02801F2E047
:101990004F0E511CF801A080B18036FE03C0692DA6
:1019A00070E002C06FEF7FEFC5010E941B0E4C017B
:1019B0008201F32DFF773F2E16C0280122E0420E50
:1019C000511CF801A080B18036FE03C0692D70E083
:1019D00002C06FEF7FEFC5010E94100E4C01F32D86
:1019E000F0683F2E820133FC1BC0822D90E08816E8
:1019F0009906B0F4B60180E290E00E94260E2A9487
:101A0000F4CFF50137FC859137FE81915F01B60176
:101A100090E00E94260E21102A9421E0821A91085B
:101A20008114910471F7E8C0843611F0893641F5CC
:101A3000F80137FE07C060817181828193810C5F5C
:101A40001F4F08C060817181072E000C880B990B15
:101A50000E5F1F4FF32DFF763F2E97FF09C0909525
:101A60008095709561957F4F8F4F9F4FF0683F2E07
:101A70002AE030E0A3010E94620E882E861845C03D
:101A8000853731F4232D2F7EB22E2AE030E025C099
:101A9000932D997FB92E8F36C1F018F4883579F0DF
:101AA000B5C0803719F0883721F0B0C0E92FE06168
:101AB000BE2EB4FE0DC0FB2DF460BF2E09C034FE57
:101AC0000AC0292F2660B22E06C028E030E005C0EB
:101AD00020E130E002C020E132E0F801B7FE07C0AB
:101AE00060817181828193810C5F1F4F06C060818C
:101AF000718180E090E00E5F1F4FA3010E94620E93
:101B0000882E8618FB2DFF773F2E36FE0DC0232D25
:101B10002E7FA22E891458F434FE0BC032FC09C06B
:101B2000832D8E7EA82E05C0B82CA32C03C0B82C04
:101B300001C0B92CA4FE0FC0FE01E80DF11D80818B
:101B4000803321F49A2D997EA92E09C0A2FE06C0E9
:101B5000B394B39404C08A2D867809F0B394A3FC9F
:101B600011C0A0FE06C0B21488F4280C922C9B1859
:101B70000EC0B21460F4B60180E290E00E94260E1E
:101B8000B394F7CFB21418F42B1802C0982C212C60
:101B9000A4FE10C0B60180E390E00E94260EA2FED3
:101BA00017C0A1FC03C088E790E002C088E590E080
:101BB000B6010CC08A2D867859F0A1FE02C08BE2D6
:101BC00001C080E2A7FC8DE2B60190E00E94260EE3
:101BD000891438F4B60180E390E00E94260E9A94AE
:101BE000F7CF8A94F301E80DF11D8081B60190E0F2
:101BF0000E94260E8110F5CF222009F442CEB601B4
:101C000080E290E00E94260E2A94F6CFF6018681AB
:101C1000978102C08FEF9FEF2B96E2E10C94DC0ED0
:101C2000FC010590615070400110D8F780959095A7
:101C30008E0F9F1F0895FC016150704001900110AC
:101C4000D8F7809590958E0F9F1F08950F931F933F
:101C5000CF93DF93FB01238121FD03C08FEF9FEF23
:101C60002CC022FF16C0468157812481358142173E
:101C7000530744F4A081B1819D012F5F3F4F318311
:101C800020838C93268137812F5F3F4F37832683B4
:101C900014C08B01EC01FB010084F185E02D099556
:101CA000892BE1F6D80116968D919C911797019694
:101CB00017969C938E931697CE01DF91CF911F912B
:101CC0000F910895FA01AA27283051F1203181F1AE
:101CD000E8946F936E7F6E5F7F4F8F4F9F4FAF4F34
:101CE000B1E03ED0B4E03CD0670F781F891F9A1F47
:101CF000A11D680F791F8A1F911DA11D6A0F711DFB
:101D0000811D911DA11D20D009F468943F912AE006
:101D1000269F11243019305D3193DEF6CF010895EE
:101D2000462F4770405D4193B3E00FD0C9F7F6CF1F
:101D3000462F4F70405D4A3318F0495D31FD4052E7
:101D4000419302D0A9F7EACFB4E0A695979587957D
:101D500077956795BA95C9F700976105710508955C
:101D60009B01AC010A2E0694579547953795279508
:101D7000BA95C9F7620F731F841F951FA01D0895A0
:101D80002F923F924F925F926F927F928F929F928B
:101D9000AF92BF92CF92DF92EF92FF920F931F9379
:101DA000CF93DF93CDB7DEB7CA1BDB0B0FB6F8942A
:101DB000DEBF0FBECDBF09942A88398848885F846A
:101DC0006E847D848C849B84AA84B984C884DF80DB
:101DD000EE80FD800C811B81AA81B981CE0FD11DBF
:101DE0000FB6F894DEBF0FBECDBFED010895F89495
:021DF000FFCF23
:101DF2000000000200000000790600000000000060
:101E020012031F032203250300000000000000004C
:101E12001B031E0321032403000000000000000036
:101E220027032A032D0330030000000000000000F6
:101E32003303360339033C030000000000003D3D3C
:101E42003D3D3D3D3D3D3D4144432053545255436C
:101E5200542076616C756573203D3D3D3D3D3D3DB1
:101E62003D3D3D00566572746963616C206178691D
:101E7200733A202020253464200A00486F72697A60
:101E82006F6E74616C20617869733A202534642026
:101E92000A004C65667420736C696465723A20208E
:101EA200202020253464200A005269676874207358
:101EB2006C696465723A20202020253464200A006F
:101EC200204D435032353135206973204E4F542016
:101ED200696E204C6F6F704261636B206D6F646539
:101EE20020616674657220726573657420210043F7
:101EF200414E2073656E64206D6573736167652062
:101F02006C656E6774683A2025640A0025782000A3
:101F120043414E20726563656976652030206D65A8
:101F22007373616765206C656E6774683A20256417
:101F32000A0043414E20726563656976652031204F
:101F42006D657373616765206C656E6774683A20AE
:101F520025640A003D3D3D3D3D3D3D3D3D2053450F
:101F62004E534F5253203D3D3D3D3D3D3D3D3D3D58
:101F7200004A4F59535449434B3A202020256320AD
:101F82000A00204D435032353135206973204E4FBF
:101F92005420696E20636F6E666967757261746939
:101FA2006F6E206D6F646520616674657220726564
:101FB2007365742021006C696E653A2020202534F7
:101FC20064200A007265736574006166746572202C
:101FD20063616E20696E6974006166746572206364
:101FE200616E2073656E64007374617475733A2058
:101FF20025780A0072656365697665643A20002374
:1020020020004F7074696F6E733A00413A0041418B
:1020120000414200414300423A0042410042420034
:10202200424300433A00434100434200434300001D
:00000001FF
