:100000000C9460030C945F050C947D030C947D03A9
:100010000C947D030C947D030C947D030C947D0360
:100020000C947D030C947D030C947D030C947D0350
:100030000C947D030C947D030C947D030C947D0340
:100040000C947D030C947D030C947D030C947D0330
:100050000C947D030C947D030C947D030C947D0320
:100060000C947D030C947D030C947D030C947D0310
:1000700000000000005C00000C000C007C287C28C4
:1000800058DC68002410480028542840000C000068
:10009000007884008478000054385400107C1000EC
:1000A00080400000101010000040000060100C00A4
:1000B00038543800487C40004864580044542C00B0
:1000C0001C107C005C5424003854240064140C0080
:1000D00068542C0048543800004800008048000054
:1000E0001028440028282800442810000454080040
:1000F00038445C00781478007C5428003844280088
:100100007C4438007C5444007C140400384474005F
:100110007C107C00447C440020403C007C106C003F
:100120007C4040007C187C0078103C00384438004B
:100130007C1408003844B8007C146800485424003B
:10014000047C04007C407C003C603C007C307C00F3
:100150006C106C000C700C0064544C00007C44006B
:100160000C106000447C00000804080080808000BF
:1001700000040800304878007C48300030484800CF
:1001800030487C00306850001078140090A8780047
:100190007C08700050744000808074007C106800FF
:1001A000447C4000781078007808700030483000B7
:1001B000F82810003048F80078100800505828003F
:1001C000083C4800384078003840380078207800F3
:1001D0004830480098A0780048685800107884009B
:1001E000007C00008478100008040804000000006F
:1001F0000000005F00000007000700147F147F1458
:10020000242A7F2A1223130864623649552250009B
:1002100005030000001C2241000041221C00082AA6
:100220001C2A0808083E080800503000000808088A
:100230000808006060000020100804023E51494593
:100240003E00427F400042615149462141454B31C9
:100250001814127F1027454545393C4A4949300159
:10026000710905033649494936064949291E0036B0
:100270003600000056360000000814224114141401
:10028000141441221408000201510906324979412F
:100290003E7E1111117E7F494949363E414141223E
:1002A0007F4141221C7F494949417F090901013EA3
:1002B000414151327F0808087F00417F41002040C2
:1002C000413F017F081422417F404040407F0204AB
:1002D000027F7F0408107F3E4141413E7F090909AA
:1002E000063E4151215E7F09192946464949493157
:1002F00001017F01013F4040403F1F2040201F7F00
:100300002018207F631408146303047804036151E8
:1003100049454300007F4141020408102041417FCC
:100320000000040201020440404040400001020479
:100330000020545454787F4844443838444444207E
:10034000384444487F3854545418087E0901020840
:100350001454543C7F0804047800447D400020403D
:10036000443D00007F10284400417F40007C041879
:1003700004787C0804047838444444387C14141409
:1003800008081414187C7C080404084854545420A9
:10039000043F4440203C4040207C1C2040201C3C2A
:1003A0004030403C44281028440C5050503C446499
:1003B000544C44000836410000007F0000004136E4
:1003C000080002010302010000000000000000001C
:1003D000065F5F0600000000070700070700001423
:1003E0007F7F147F7F1400242E6B6B3A120000462F
:1003F0006630180C666200307A4F5D377A48000428
:1004000007030000000000001C3E634100000000E4
:1004100041633E1C000000082A3E1C1C3E2A0808BE
:10042000083E3E0808000000A0E060000000000850
:100430000808080808000000006060000000006074
:1004400030180C060301003E7F594D7F3E000042EC
:10045000427F7F40400000627359496F660000226E
:100460006349497F360000181C16137F7F10002750
:100470006745457D3900003C7E4B497930000003DB
:100480006371190F070000367F49497F3600000667
:100490004F49693F1E000000006C6C000000000026
:1004A000A0EC6C00000000081C3663410000001442
:1004B00014141414140000004163361C08000002D8
:1004C0000351590F0600003E7F415D5D1F1E007CF9
:1004D0007E13137E7C0000417F7F49497F36001CDC
:1004E0003E634141632200417F7F41637F1C0041A5
:1004F0007F7F495D416300417F7F491D0103001CEF
:100500003E6341517372007F7F08087F7F000000C7
:10051000417F7F41000000307040417F3F0100413A
:100520007F7F081C776300417F7F41406070007FC0
:100530007F060C067F7F007F7F060C187F7F001CE4
:100540003E6341633E1C00417F7F49090F06001E48
:100550003F21717F5E0000417F7F19396F46002681
:10056000674D597B32000003417F7F410300007FCC
:100570007F40407F7F00001F3F60603F1F00007F83
:100580007F3018307F7F0063771C081C776300077B
:100590004F78784F0700006773594D47637100002B
:1005A0007F7F41410000000103060C18306000000D
:1005B00041417F7F000000080C0603060C08008004
:1005C000808080808080800000030704000000207D
:1005D0007454543C784000413F7F44447C38003898
:1005E0007C44446C280000307848493F7F40003804
:1005F0007C54545C180000487E7F49030200009838
:10060000BCA4A4F87C0400417F7F08047C7800002F
:10061000447D7D4000000040C484FD7D0000004119
:100620007F7F10386C440000417F7F400000007CD9
:100630007C0C180C7C78007C7C04047C78000038EE
:100640007C44447C38000084FCF8A4243C18001846
:100650003C24A4F8FC8400447C78441C1800004826
:100660005C54547424000000043E7F442400003C89
:100670007C40403C7C40001C3C60603C1C00003CDA
:100680007C6030607C3C00446C3810386C44009CCA
:10069000BCA0A0FC7C00004C64745C4C64000008AE
:1006A000083E7741410000000000777700000041DC
:1006B00041773E0808000002030103020301000025
:1006C00011241FBECFEFD4E0DEBFCDBF13E0A0E00A
:1006D000B1E0E6EFFBE202C005900D92AA38B10747
:1006E000D9F723E0AAE8B3E001C01D92AA39B20706
:1006F000E1F70E94270F0C94F9150C9473058C9A5E
:100700008EB588608EBD8EB581608EBD1BBC1ABC57
:100710008FB580648FBD08958FE08093001489EFBA
:1007200090E00197F1F700C00000A1E0B4E18C91E6
:10073000EAE8F3E090E09183808389EF90E001970D
:10074000F1F700C000008C9190E09383828389EFE1
:1007500090E00197F1F700C000008C9190E0958344
:10076000848389EF90E00197F1F700C000008C913D
:1007700090E0978386830895CF93DF938AE591E095
:100780000E940113CAE8D3E089818F9388818F93F7
:1007900080E891E09F938F930E94E4128B818F9366
:1007A0008A818F9387E991E09F938F930E94E4124F
:1007B0008D818F938C818F938EEA91E09F938F939D
:1007C0000E94E4128F818F938E818F9385EC91E04C
:1007D0009F938F930E94E4128DB79EB740960FB6F9
:1007E000F8949EBF0FBE8DBFDF91CF9108958A9878
:1007F0000E948A072FE38DE093E0215080409040D3
:10080000E1F700C0000043E06FEF8AE20E946C074E
:1008100041EB6FEF89E20E946C0745E067EC88E2EC
:100820000E946C0743E06FE18BE20E946C0740E09E
:1008300060EE8FE00E946C078EE00E941A07807EB7
:1008400029F08CED91E00E9401130895F89485B78A
:10085000826085BF85B78E7F85BF8FB780688FBF69
:100860008BB780648BBF789460E08CE20E944C0769
:100870000895CF92DF92EF92FF920F931F93CF9341
:10088000DF93CDB7DEB72C970FB6F894DEBF0FBE5F
:10089000CDBFE982FA820B831C832D833E834F8375
:1008A000588769877A878B879C8709811A81B80165
:1008B00076956795769567957695679581E30E941D
:1008C0004C07602F6295660F607E82E30E944C07A2
:1008D0008A818F9389818F9389E092E09F938F9390
:1008E0000E94E4126B8185E30E944C078C818F93F8
:1008F0008B818F9386E192E09F938F930E94E41205
:100900006B817C81AE014B5F5F4F86E30E942807BD
:100910000E945E0787E292E09F938F930E94E41209
:100920000FB6F894DEBF0FBECDBF8B819C81181629
:10093000190624F56E0195E0C90ED11C00E010E007
:100940000F2EF6E3EF2EF2E0FF2EF02DF60181914F
:100950006F01282F082E000C330B3F938F93FF92CB
:10096000EF920E94E4120F5F1F4F0F900F900F90B5
:100970000F908B819C810817190744F382E892E05D
:100980000E9401132C960FB6F894DEBF0FBECDBFA8
:10099000DF91CF911F910F91FF90EF90DF90CF905B
:1009A0000895CF92DF92FF920F931F93CF93DF931F
:1009B000EC016130710509F041C081E60E941A071F
:1009C000182F82E60E941A07212F30E0322F2227AB
:1009D000282B36952795329522952F7023273F7027
:1009E00023273983288385E60E941A0790E09B839A
:1009F0008A8318161906C4F46E0184E0C80ED11C4F
:100A00000F2EF6E6FF2EF02D00E010E08F2D0E9455
:100A10001A07F60181936F010F5F1F4FF3948A81CC
:100A20009B810817190794F340E061E08CE20E9473
:100A30006C07109293031092920339C062307105D3
:100A4000B1F581E70E941A07182F82E70E941A0762
:100A5000212F30E0382B3983288385E70E941A073D
:100A600090E09B838A8318161906C4F46E01F4E0A3
:100A7000CF0ED11C0F2EF6E7FF2EF02D00E010E078
:100A80008F2D0E941A07F60181936F010F5F1F4F90
:100A9000F3948A819B810817190794F340E062E080
:100AA0008CE20E946C071092930310929203DF91E4
:100AB000CF911F910F91FF90DF90CF9008951F92DB
:100AC0000F920FB60F9211248F939F9381E090E0C5
:100AD00090939303809392039F918F910F900FBEF9
:100AE0000F901F9018951F920F920FB60F9211241E
:100AF0000F900FBE0F901F901895EF92FF920F93DB
:100B00001F93CF93DF93CDB7DEB72C970FB6F89432
:100B1000DEBF0FBECDBFFE0131968CE0DF011D921E
:100B20008A95E9F783E090E09A83898381E090E0F9
:100B30009C838B830E948B06E980FA800B811C8149
:100B4000282F3E814F81588569857A858B859C85C4
:100B50000E9439042C960FB6F894DEBF0FBECDBFAD
:100B6000DF91CF911F910F91FF90EF900895EF9239
:100B7000FF920F931F93CF93DF93CDB7DEB72C97E0
:100B80000FB6F894DEBF0FBECDBFFE0131968CE0EC
:100B9000DF011D928A95E9F787E090E09A838983C7
:100BA00083E090E09C838B830E948406E980FA8036
:100BB0000B811C81282F3E814F81588569857A855C
:100BC0008B859C850E9439042C960FB6F894DEBF65
:100BD0000FBECDBFDF91CF911F910F91FF90EF908E
:100BE0000895EF92FF920F931F93CF93DF93CDB7AA
:100BF000DEB72C970FB6F894DEBF0FBECDBFFE0157
:100C000031968CE0DF011D928A95E9F781E090E052
:100C10009A8389839C838B830E94D206E980FA8021
:100C20000B811C81282F3E814F81588569857A85EB
:100C30008B859C850E9439042C960FB6F894DEBFF4
:100C40000FBECDBFDF91CF911F910F91FF90EF901D
:100C50000895CF92DF92EF92FF920F931F93CF935D
:100C6000DF93CDB7DEB72C970FB6F894DEBF0FBE7B
:100C7000CDBF0E9484066C010E947D068E830E9477
:100C8000B2068F830E94B90688870E94130789875E
:100C9000C60199279F938F93DF92CF9289E392E0C9
:100CA0009F938F930E94E4128AE2E82E89831A822E
:100CB00085E0082F8B831C82F12C10E02C2D3E81C7
:100CC0004F81588569857A858B859C850E9439047A
:100CD0000F900F900F900F900F900F902C960FB6D3
:100CE000F894DEBF0FBECDBFDF91CF911F910F9162
:100CF000FF90EF90DF90CF9008950E948C03809139
:100D00008A0390918B0308950E948C0380918C0339
:100D100090918D0308950F931F93CF93DF930E94BB
:100D20008C03CAE8D3E0088119810E948C038A8170
:100D30009B81023E110554F4093111054CF0873EA8
:100D4000910544F4499744F083E407C084E505C065
:100D500082E403C082E501C08CE4DF91CF911F9152
:100D60000F9108950E948C0380918E0390918F03C0
:100D700008950E948C0380919003909191030895AF
:100D80000E948C0320918E0330918F0344E6429F92
:100D9000C001439F900D11246FEF70E00E94BC12C0
:100DA000CB0108950E948C03209190033091910310
:100DB00044E6429FC001439F900D11246FEF70E005
:100DC0000E94BC12CB01089586E592E00E940113B7
:100DD0000E948B06282F082E000C330B3F938F9315
:100DE00083E792E09F938F930E94E4120E94C006D3
:100DF0009F938F938EEA91E09F938F930E94E412CA
:100E00000E94D2069F938F9385EC91E09F938F93DE
:100E10000E94E4128DB79EB70C960FB6F8949EBF51
:100E20000FBE8DBF089586B3869591E089278170A6
:100E300090E00895CF93C82FC49883E00E94B41225
:100E40008C2F0E94B4120E94B712C49ACF910895B9
:100E5000EF92FF920F931F93CF93DF93C82F8B01D5
:100E60007A01C49882E00E94B4128C2F0E94B412BE
:100E7000101611064CF4E7010E0D1F1D89910E94FA
:100E8000B412C017D107D1F7C49ADF91CF911F9147
:100E90000F91FF90EF900895CF93DF93D82FC62F37
:100EA000C49882E00E94B4128D2F0E94B4128C2F3D
:100EB0000E94B412C49ADF91CF910895C49881E83A
:100EC0000E94B412C49A0895C49880EA0E94B41291
:100ED0000E94B712C49A08951F93CF93DF93182FDF
:100EE000D62FC42FC49885E00E94B412812F0E948F
:100EF000B4128D2F0E94B4128C2F0E94B412C49A87
:100F0000DF91CF911F910895C49880EC0E94B41294
:100F1000C49A08950E94A8120E9484078EE00E943D
:100F20001A07807E803831F084E892E00E94011335
:100F300081E0089580E008955D9BFECF8CB908950F
:100F400090BD89B988E18AB98EE880BD80E091E0E2
:100F5000909397038093960308958BB18CB1089575
:100F60005F9B03C08CB15F99FDCF0895E0E0F0E195
:100F70008EEA808381EA80838AED808382E18083A8
:100F800088EC808388EA80838FE3808385ED80838B
:100F900080E8808381E8808380E5808389ED808399
:100FA00081E2808380E2808382E080838BED808396
:100FB00080E380838DEA8083108284EA808386EADE
:100FC00080838FEA808380E180830895809300107E
:100FD0000895809300120895806B80930010089507
:100FE000806B8093001080E890E0E0E0F2E11082F6
:100FF000A1EEB4E01197F1F700C000000197B9F736
:101000000895806B8093001080E890E0E0E0F2E1CA
:101010002FEF2083A1EEB4E01197F1F700C000009C
:101020000197B9F7089520E030E0A0E0B0E1E0E0FA
:10103000F2E1C901806B8C9380E890E01082019707
:10104000E9F72F5F3F4F2830310599F708955F92F8
:101050006F927F928F929F92AF92BF92CF92DF92C8
:10106000EF92FF920F931F93CF93DF93C12CD12C5C
:10107000A12C6894BB24B4F8612C712C0F2EE12CA8
:10108000F2E1FF2EF02D08EB12E055245A94C60130
:10109000806BF501808388248394912CC62DD72DF5
:1010A00004C0EFEF8E1A9E0A2196209769F4F7018B
:1010B0005082DF93CF931F930F930E94E4120F90FF
:1010C0000F900F900F90EDCFF7011082DF93CF9329
:1010D0001F930F930E94E4120F900F900F900F90A8
:1010E000E0E88E169104E8F2FFEFCF1ADF0A88E0FD
:1010F000C816D10461F6DF91CF911F910F91FF9037
:10110000EF90DF90CF90BF90AF909F908F907F90A7
:101110006F905F9008958038910590F49C012F7036
:101120003327E0E0F0E12083807F9927959587952C
:101130009595879595958795959587954096808304
:101140000895E0E0F2E1108280EC808380ED8083FE
:1011500088ED80838CEF8083808388E1808380E1C9
:101160008083089580979C01220F331F220F331F25
:10117000220F331FF901E953FC4F21533C4FA0E0EC
:10118000B2E194919C933196E217F307D1F7089559
:101190000F931F93CF93DF93FC0101900020E9F799
:1011A0003197E81BF90B1E161F066CF4EC018C013D
:1011B0000E0F1F1F8991082E000C990B0E94B20878
:1011C000C017D107B9F7DF91CF911F910F91089503
:1011D00082E090E00E948B0825E030E0A0E0B0E1E2
:1011E000E0E0F2E18FEFA901406B4C9380838083B4
:1011F0008083808380838083808380832F5F3F4FC1
:101200002E30310581F721E130E0A0E0B0E1E0E0EF
:10121000F2E18FEFA901406B4C9380838083808340
:10122000808380838083808380832F5F3F4F2C3136
:10123000310581F725E230E0A0E0B0E1E0E0F2E145
:101240008FEFA901406B4C938083808380838083E0
:1012500080838083808380832F5F3F4F2C323105D2
:1012600081F721E330E0A0E0B0E1E0E0F2E18FEFD0
:10127000A901406B4C93808380838083808380832B
:101280008083808380832F5F3F4F2433310581F734
:101290002DE330E0A0E0B0E1E0E0F2E18FEFA90162
:1012A000406B4C93808380838083808380838083A2
:1012B000808380832F5F3F4F2034310581F721E405
:1012C00030E0A0E0B0E1E0E0F2E18FEFA901406B97
:1012D0004C9380838083808380838083808380831A
:1012E00080832F5F3F4F2C34310581F721E630E0BA
:1012F000A0E0B0E1E0E0F2E18FEFA901406B4C9398
:1013000080838083808380838083808380838083C5
:101310002F5F3F4F2436310581F72BE630E0A0E008
:10132000B0E1E0E0F2E18FEFA901406B4C938083E4
:1013300080838083808380838083808380832F5F0A
:101340003F4F2037310581F725E730E0A0E0B0E1DD
:10135000E0E0F2E18FEFA901406B4C938083808342
:101360008083808380838083808380832F5F3F4F4F
:101370002C37310581F783E090E00E948B0821E053
:1013800030E0A0E0B0E1E0E0F2E18FEFA901406BD6
:101390004C93808380838083808380838083808359
:1013A00080832F5F3F4F2430310581F72DE030E0FF
:1013B000A0E0B0E1E0E0F2E18FEFA901406B4C93D7
:1013C0008083808380838083808380838083808305
:1013D0002F5F3F4F2031310581F721E130E0A0E060
:1013E000B0E1E0E0F2E18FEFA901406B4C93808324
:1013F00080838083808380838083808380832F5F4A
:101400003F4F2431310581F72BE130E0A0E0B0E11E
:10141000E0E0F2E18FEFA901406B4C938083808381
:101420008083808380838083808380832F5F3F4F8E
:101430002032310581F721E230E0A0E0B0E1E0E0C8
:10144000F2E18FEFA901406B4C938083808380830E
:10145000808380838083808380832F5F3F4F24320B
:10146000310581F72DE230E0A0E0B0E1E0E0F2E10B
:101470008FEFA901406B4C938083808380838083AE
:1014800080838083808380832F5F3F4F20333105AB
:1014900081F721E330E0A0E0B0E1E0E0F2E18FEF9E
:1014A000A901406B4C9380838083808380838083F9
:1014B0008083808380832F5F3F4F2433310581F702
:1014C0002DE330E0A0E0B0E1E0E0F2E18FEFA90130
:1014D000406B4C9380838083808380838083808370
:1014E000808380832F5F3F4F2034310581F72DE4C7
:1014F00030E0A0E0B0E1E0E0F2E18FEFA901406B65
:101500004C938083808380838083808380838083E7
:1015100080832F5F3F4F2035310581F721E630E092
:10152000A0E0B0E1E0E0F2E18FEFA901406B4C9365
:101530008083808380838083808380838083808393
:101540002F5F3F4F2436310581F72BE630E0A0E0D6
:10155000B0E1E0E0F2E18FEFA901406B4C938083B2
:1015600080838083808380838083808380832F5FD8
:101570003F4F2037310581F721E730E0A0E0B0E1AF
:10158000E0E0F2E18FEFA901406B4C938083808310
:101590008083808380838083808380832F5F3F4F1D
:1015A0002437310581F72DE730E0A0E0B0E1E0E03D
:1015B000F2E18FEFA901406B4C938083808380839D
:1015C000808380838083808380832F5F3F4F203898
:1015D000310581F784E090E00E948B0821E030E043
:1015E000A0E0B0E1E0E0F2E18FEFA901406B4C93A5
:1015F00080838083808380838083808380838083D3
:101600002F5F3F4F2430310581F721E130E0A0E02A
:10161000B0E1E0E0F2E18FEFA901406B4C938083F1
:1016200080838083808380838083808380832F5F17
:101630003F4F2C31310581F721E230E0A0E0B0E1ED
:10164000E0E0F2E18FEFA901406B4C93808380834F
:101650008083808380838083808380832F5F3F4F5C
:101660002432310581F72DE230E0A0E0B0E1E0E086
:10167000F2E18FEFA901406B4C93808380838083DC
:10168000808380838083808380832F5F3F4F2033DC
:10169000310581F721E330E0A0E0B0E1E0E0F2E1E4
:1016A0008FEFA901406B4C9380838083808380837C
:1016B00080838083808380832F5F3F4F2433310575
:1016C00081F72DE330E0A0E0B0E1E0E0F2E18FEF60
:1016D000A901406B4C9380838083808380838083C7
:1016E0008083808380832F5F3F4F2034310581F7D3
:1016F00021E430E0A0E0B0E1E0E0F2E18FEFA90109
:10170000406B4C938083808380838083808380833D
:10171000808380832F5F3F4F2C34310581F721E692
:1017200030E0A0E0B0E1E0E0F2E18FEFA901406B32
:101730004C938083808380838083808380838083B5
:1017400080832F5F3F4F2C36310581F721E730E052
:10175000A0E0B0E1E0E0F2E18FEFA901406B4C9333
:101760008083808380838083808380838083808361
:101770002F5F3F4F2437310581F72DE730E0A0E0A0
:10178000B0E1E0E0F2E18FEFA901406B4C93808380
:1017900080838083808380838083808380832F5FA6
:1017A0003F4F2038310581F785E090E00E948B089B
:1017B00021E030E0A0E0B0E1E0E0F2E18FEFA9014C
:1017C000406B4C938083808380838083808380837D
:1017D000808380832F5F3F4F2430310581F721E1E3
:1017E00030E0A0E0B0E1E0E0F2E18FEFA901406B72
:1017F0004C938083808380838083808380838083F5
:1018000080832F5F3F4F2831310581F721E230E09F
:10181000A0E0B0E1E0E0F2E18FEFA901406B4C9372
:1018200080838083808380838083808380838083A0
:101830002F5F3F4F2432310581F72DE230E0A0E0E9
:10184000B0E1E0E0F2E18FEFA901406B4C938083BF
:1018500080838083808380838083808380832F5FE5
:101860003F4F2033310581F721E330E0A0E0B0E1C4
:10187000E0E0F2E18FEFA901406B4C93808380831D
:101880008083808380838083808380832F5F3F4F2A
:101890002433310581F72DE330E0A0E0B0E1E0E052
:1018A000F2E18FEFA901406B4C93808380838083AA
:1018B000808380838083808380832F5F3F4F2034A9
:1018C000310581F721E430E0A0E0B0E1E0E0F2E1B1
:1018D0008FEFA901406B4C9380838083808380834A
:1018E00080838083808380832F5F3F4F2434310542
:1018F00081F72DE630E0A0E0B0E1E0E0F2E18FEF2B
:10190000A901406B4C938083808380838083808394
:101910008083808380832F5F3F4F2037310581F79D
:1019200021E730E0A0E0B0E1E0E0F2E18FEFA901D3
:10193000406B4C938083808380838083808380830B
:10194000808380832F5F3F4F2437310581F72DE758
:1019500030E0A0E0B0E1E0E0F2E18FEFA901406B00
:101960004C93808380838083808380838083808383
:1019700080832F5F3F4F2038310581F786E090E06C
:101980000E948B0821E030E0A0E0B0E1E0E0F2E16D
:101990008FEFA901406B4C93808380838083808389
:1019A00080838083808380832F5F3F4F2430310585
:1019B00081F729E030E0A0E0B0E1E0E0F2E18FEF74
:1019C000A901406B4C9380838083808380838083D4
:1019D0008083808380832F5F3F4F2031310581F7E3
:1019E00021E130E0A0E0B0E1E0E0F2E18FEFA90119
:1019F000406B4C938083808380838083808380834B
:101A0000808380832F5F3F4F2431310581F729E1A7
:101A100030E0A0E0B0E1E0E0F2E18FEFA901406B3F
:101A20004C938083808380838083808380838083C2
:101A300080832F5F3F4F2C31310581F72DE230E05D
:101A4000A0E0B0E1E0E0F2E18FEFA901406B4C9340
:101A5000808380838083808380838083808380836E
:101A60002F5F3F4F2033310581F721E330E0A0E0C5
:101A7000B0E1E0E0F2E18FEFA901406B4C9380838D
:101A800080838083808380838083808380832F5FB3
:101A90003F4F2433310581F72DE330E0A0E0B0E182
:101AA000E0E0F2E18FEFA901406B4C9380838083EB
:101AB0008083808380838083808380832F5F3F4FF8
:101AC0002034310581F721E430E0A0E0B0E1E0E02E
:101AD000F2E18FEFA901406B4C9380838083808378
:101AE000808380838083808380832F5F3F4F243473
:101AF000310581F72DE630E0A0E0B0E1E0E0F2E171
:101B00008FEFA901406B4C93808380838083808317
:101B100080838083808380832F5F3F4F2037310510
:101B200081F721E730E0A0E0B0E1E0E0F2E18FEF03
:101B3000A901406B4C938083808380838083808362
:101B40008083808380832F5F3F4F2437310581F767
:101B50002DE730E0A0E0B0E1E0E0F2E18FEFA90195
:101B6000406B4C93808380838083808380838083D9
:101B7000808380832F5F3F4F2038310581F787E0D6
:101B800090E00E948B0825E030E0A0E0B0E1E0E0CA
:101B9000F2E18FEFA901406B4C93808380838083B7
:101BA000808380838083808380832F5F3F4F2C30AE
:101BB000310581F721E130E0A0E0B0E1E0E0F2E1C1
:101BC0008FEFA901406B4C93808380838083808357
:101BD00080838083808380832F5F3F4F2431310552
:101BE00081F72DE130E0A0E0B0E1E0E0F2E18FEF3D
:101BF000A901406B4C9380838083808380838083A2
:101C00008083808380832F5F3F4F2032310581F7AF
:101C100025E230E0A0E0B0E1E0E0F2E18FEFA901E1
:101C2000406B4C9380838083808380838083808318
:101C3000808380832F5F3F4F2C32310581F725E36E
:101C400030E0A0E0B0E1E0E0F2E18FEFA901406B0D
:101C50004C93808380838083808380838083808390
:101C600080832F5F3F4F2C33310581F721E430E033
:101C7000A0E0B0E1E0E0F2E18FEFA901406B4C930E
:101C8000808380838083808380838083808380833C
:101C90002F5F3F4F2434310581F72DE630E0A0E07F
:101CA000B0E1E0E0F2E18FEFA901406B4C9380835B
:101CB00080838083808380838083808380832F5F81
:101CC0003F4F2037310581F725E730E0A0E0B0E154
:101CD000E0E0F2E18FEFA901406B4C9380838083B9
:101CE0008083808380838083808380832F5F3F4FC6
:101CF0002C37310581F7089508951816190654F404
:101D000020E030E0E0E0F2E160832F5F3F4F821798
:101D10009307D1F70895CF93DF93EC01CB01880FA0
:101D2000991F880F991F880F991F0E948B08C06BFD
:101D3000C0930010DF91CF910895EF92FF920F931F
:101D40001F93CF93DF93181619066CF47B018C0157
:101D5000C0E0D0E0B70184E090E00E947D0E2196C3
:101D60000C171D07B9F7DF91CF911F910F91FF90CD
:101D7000EF9008950F931F93CF93DF938C01CB01C6
:101D8000EA010E948B08006B009300101C161D06D0
:101D900054F480E090E0E0E0F2E12FE0208301964F
:101DA000C817D907D9F7DF91CF911F910F910895E7
:101DB000892B89F0E0E0F2E18EE080839FE190835F
:101DC0002FE320833FE730834EEF4083308320832F
:101DD000908380830895E0E0F2E18EE0808391E1DA
:101DE000908321E2208331E4308342E840833083D2
:101DF00020839083808308950E94130861E070E03F
:101E000080E090E00E948B0E86EC92E00E94C80871
:101E100061E070E081E090E00E948B0E81E090E054
:101E20000E94D80E63E070E081E090E00E948B0E8B
:101E300081E090E00E94D80E65E070E081E090E0E3
:101E40000E948B0E80E090E00E94D80E0895CF9300
:101E5000DF93CDB7DEB7A8970FB6F894DEBF0FBEFD
:101E6000CDBF85B7806885BF80B7806280BF8FE1B6
:101E700090E00E94A0078DEC92E00E9401130E9466
:101E80007F030E94B6070E941308CE0101960E94AC
:101E900028110E94F7038CE0EEE4F1E0DE01519698
:101EA00001900D928A95E1F78E010B5E1F4F6E0136
:101EB0002BE1C20ED11C0F2EFFEDEF2EF2E0FF2E14
:101EC000F02DF80181918F01282F082E000C330B83
:101ED0003F938F93FF92EF920E94E4120F900F9026
:101EE0000F900F900C151D0561F70F2EF3EF8F2E3D
:101EF000F2E09F2EF02D0F2EFFEFAF2EF2E0BF2E5F
:101F0000F02D0F2EFFE0CF2EF3E0DF2EF02D0F2E61
:101F1000F8E16F2EF3E07F2EF02D0F2EF1E24F2E21
:101F2000F3E05F2EF02D0F2EF2E32F2EF3E03F2E85
:101F3000F02D0E94FC0E83EE92E00E940113FFEF51
:101F40002FEF82E0F15020408040E1F700C000C058
:101F50000E9429068091920390919303892B49F363
:101F60008CE20E941A07182F8DE20E941A07E82EB1
:101F70008DE10E941A07F82E8CE10E941A07082FA3
:101F80001F921F939F928F920E94E4121F92EF92D2
:101F9000BF92AF920E94E4121F92FF92DF92CF9203
:101FA0000E94E4121F920F937F926F920E94E4129C
:101FB00013700FB6F894DEBF0FBECDBF09F4B9CFD2
:101FC000612F70E0CE014D960E94D1048AE090E02E
:101FD0000E94FA128E8D8F938D8D8F935F924F9208
:101FE0000E94E41288A18F938F8D8F933F922F923E
:101FF0000E94E41287E493E09F938F930E94E4127F
:102000000FB6F894DEBF0FBECDBF8F8D98A1181606
:102010001906ACF47E0191E2E90EF11C00E010E03B
:10202000F70181917F01082E000C990B0E94FA1292
:102030000F5F1F4F8F8D98A1081719078CF382E847
:1020400092E00E94011375CFCF93DF9381E090E07F
:102050000E948B08C2E0D0E0CE010E94EC078BE525
:1020600093E00E94C8082196C630D105A9F7DF91F8
:10207000CF910895AF92BF92CF92DF92EF92FF92ED
:102080000F931F93CF93DF937C01EB015A016901FA
:1020900080E090E00E94EC0781E090E00E948B08D5
:1020A000C7010E94C8080E94241082E090E00E94AC
:1020B000EC0781E090E00E948B08C130D10559F512
:1020C0008AE593E00E94C80882E090E00E94EC0755
:1020D00084E190E00E948B08C5010E94C80883E05B
:1020E00090E00E94EC0781E090E00E948B0883E082
:1020F00090E00E94EC0784E190E00E948B08C6010A
:102100000E94C80884E090E00E94EC0781E090E023
:102110000E948B086FC082E090E00E94EC0784E18F
:1021200090E00E948B08C5010E94C80883E090E0FF
:102130000E94EC0781E090E00E948B08C230D1053C
:1021400059F58AE593E00E94C80883E090E00E9478
:10215000EC0784E190E00E948B08C6010E94C80849
:1021600084E090E00E94EC0781E090E00E948B0800
:1021700084E090E00E94EC0784E190E00E948B08EC
:10218000C8010E94C80885E090E00E94EC0781E049
:1021900090E00E948B0847C083E090E00E94EC072B
:1021A00084E190E00E948B08C6010E94C80884E088
:1021B00090E00E94EC0781E090E00E948B08C33021
:1021C000D105C1F48AE593E00E94C80884E090E05C
:1021D0000E94EC0784E190E00E948B08C8010E94F5
:1021E000C80885E090E00E94EC0781E090E00E9442
:1021F0008B0819C084E090E00E94EC0784E190E035
:102200000E948B08C8010E94C80885E090E00E94E7
:10221000EC0781E090E00E948B08249721F48AE586
:1022200093E00E94C80885E090E00E94EC0784E1FA
:1022300090E00E948B080E94A108DF91CF911F912E
:102240000F91FF90EF90DF90CF90BF90AF900895E7
:10225000CF93DF93AEE3B1E04EE051E011965C9393
:102260004E930A2E1B2E1B961C920E9211241A9727
:102270000A2E1B2E1D961C920E9211241C970A2EBC
:102280001B2E1F961C920E9211241E97CEE2D1E0B7
:1022900059834883DB87CA87DD87CC87DF87CE8772
:1022A0002EE131E0F901518340833387228735875E
:1022B000248737872687FA01518340833387228713
:1022C000D587C487B787A68720E1DC0101900D92EE
:1022D0002A95E1F7DF91CF9108954F925F926F9227
:1022E0007F928F929F92AF92BF92CF92DF92EF92A6
:1022F000FF920F931F93CF93DF93CDB7DEB7609715
:102300000FB6F894DEBF0FBECDBF3C0189829A8222
:10231000AB82BC82CD82DE82EF82F88609871A8783
:102320002B873C874D875E876F87788B4BA05CA09F
:10233000E980FA80CB84DC84AD84BE848F84988865
:1023400009851A852F8138854D815E81B2018B8187
:102350009C810E943A100E948B06843549F481E0EA
:102360004816510409F47DC0E1E04E1A510882C0BC
:10237000823449F4F4E04F16510409F478C08FEF29
:10238000481A580A77C0B1991AC0E1E04E165104B4
:10239000B1F480E1F601DE01119601900D928A956B
:1023A000E1F7F601E080F18002851385A484B5840D
:1023B000868497840E941308C02ED12E5BC0B199E9
:1023C0001AC0F2E04F165104B1F480E1F501DE01CC
:1023D000119601900D928A95E1F7F501E080F18068
:1023E000C284D38404851585868497840E9413084B
:1023F000A02EB12E3FC0B19918C0F3E04F16510482
:10240000A1F480E1F401DE01119601900D928A950C
:10241000E1F7F401E080F180C284D384A484B58420
:10242000868497840E94130825C0B19923C0F4E0E4
:102430004F165104F9F480E1F701DE011196019085
:102440000D928A95E1F7F70100811181C284D3844E
:10245000A484B584868497840E941308E02EF12E0C
:1024600009C00F2EF3E04F2E512CF02D03C0442451
:102470004394512CFA82E982DC86CB86BE86AD86F7
:10248000988A8F8680E1FE013196D30101900D92EA
:102490008A95E1F7F301F182E082D386C286B586A0
:1024A000A48697868686518A408AC30160960FB6B5
:1024B000F894DEBF0FBECDBFDF91CF911F910F917A
:1024C000FF90EF90DF90CF90BF90AF909F908F9054
:1024D0007F906F905F904F9008958F929F92AF92F0
:1024E000BF92CF92DF92EF92FF920F931F93CF9301
:1024F000DF93CDB7DEB760970FB6F894DEBF0FBE9F
:10250000CDBFCB82DC82ED82FE820F8318872987C4
:102510003A87B40109851A852F8138854D815E81FE
:102520008B819C810E943A1060960FB6F894DEBFB2
:102530000FBECDBFDF91CF911F910F91FF90EF9014
:10254000DF90CF90BF90AF909F908F9008950895A7
:102550006B986A9880EB87BBBE9881E58DB908952A
:102560008FB9779BFECF08950E94B012089581E63F
:102570000E94B0128FB1089597FB072E16F40094B5
:1025800007D077FD09D00E94D01207FC05D03EF499
:10259000909581959F4F0895709561957F4F08950F
:1025A000AA1BBB1B51E107C0AA1FBB1FA617B70779
:1025B00010F0A61BB70B881F991F5A95A9F7809595
:1025C0009095BC01CD010895A0E0B0E0EAEEF2E103
:1025D0000C94D215AE014B5F5F4FFA01619171917E
:1025E000AF0180919603909197030E943113E2E02E
:1025F0000C94EE1560919603709197030E94281534
:1026000008950F931F93CF93DF93E0919603F0917A
:102610009703238121FF1BC08C01D0E0C0E0F801AB
:1026200081918F016091960370919703DB01189659
:10263000ED91FC911997882331F00995892B79F355
:10264000DFEFCFEFECCF8AE00995892B19F08FEF00
:102650009FEF02C08D2F9C2FDF91CF911F910F9183
:102660000895ABE0B0E0E7E3F3E10C94C2156C0130
:102670007B018A01FC0117821682838181FFCCC114
:10268000CE0101963C01F6019381F70193FD8591FE
:1026900093FF81917F01882309F4BAC1853239F40F
:1026A00093FD859193FF81917F01853229F4B601D5
:1026B00090E00E942815E7CF912C212C312CFFE1CE
:1026C000F315D8F08B3279F038F4803279F0833218
:1026D000A1F4232D20611DC08D3261F0803369F497
:1026E000232D216016C0832D8260382EE32DE460F7
:1026F0003E2E2AC0F32DF8601DC037FC2DC020ED02
:10270000280F2A3040F08E32B9F436FC81C1232DD7
:102710002064322E19C036FE06C08AE0989E200D35
:102720001124922E11C0EAE02E9E200D1124222E9B
:10273000F32DF0623F2E08C08C3621F4832D806883
:10274000382E02C0883641F4F70193FD859193FF3E
:1027500081917F018111B3CF982F9F7D9554933044
:1027600028F40C5F1F4F9FE399830DC0833631F02F
:10277000833771F0833509F059C021C0F801808199
:1027800089830E5F1F4F88248394912C530113C0BB
:102790002801F2E04F0E511CF801A080B18036FEF6
:1027A00003C0692D70E002C06FEF7FEFC5010E948A
:1027B0001D154C018201F32DFF773F2E16C0280115
:1027C00022E0420E511CF801A080B18036FE03C009
:1027D000692D70E002C06FEF7FEFC5010E941215F6
:1027E0004C01F32DF0683F2E820133FC1BC0822D7B
:1027F00090E088169906B0F4B60180E290E00E945D
:1028000028152A94F4CFF50137FC859137FE819184
:102810005F01B60190E00E94281521102A9421E062
:10282000821A91088114910471F7E8C0843611F07E
:10283000893641F5F80137FE07C0608171818281D8
:1028400093810C5F1F4F08C060817181072E000CBF
:10285000880B990B0E5F1F4FF32DFF763F2E97FFCE
:1028600009C090958095709561957F4F8F4F9F4FD0
:10287000F0683F2E2AE030E0A3010E946415882E04
:10288000861845C0853731F4232D2F7EB22E2AE0DD
:1028900030E025C0932D997FB92E8F36C1F018F402
:1028A000883579F0B5C0803719F0883721F0B0C08D
:1028B000E92FE061BE2EB4FE0DC0FB2DF460BF2EEB
:1028C00009C034FE0AC0292F2660B22E06C028E0B7
:1028D00030E005C020E130E002C020E132E0F80144
:1028E000B7FE07C060817181828193810C5F1F4FA9
:1028F00006C06081718180E090E00E5F1F4FA301F0
:102900000E946415882E8618FB2DFF773F2E36FE19
:102910000DC0232D2E7FA22E891458F434FE0BC037
:1029200032FC09C0832D8E7EA82E05C0B82CA32CA6
:1029300003C0B82C01C0B92CA4FE0FC0FE01E80DE5
:10294000F11D8081803321F49A2D997EA92E09C032
:10295000A2FE06C0B394B39404C08A2D867809F011
:10296000B394A3FC11C0A0FE06C0B21488F4280CD6
:10297000922C9B180EC0B21460F4B60180E290E075
:102980000E942815B394F7CFB21418F42B1802C084
:10299000982C212CA4FE10C0B60180E390E00E9488
:1029A0002815A2FE17C0A1FC03C088E790E002C072
:1029B00088E590E0B6010CC08A2D867859F0A1FE1A
:1029C00002C08BE201C080E2A7FC8DE2B60190E07C
:1029D0000E942815891438F4B60180E390E00E9423
:1029E00028159A94F7CF8A94F301E80DF11D8081A0
:1029F000B60190E00E9428158110F5CF222009F43D
:102A000042CEB60180E290E00E9428152A94F6CFCB
:102A1000F6018681978102C08FEF9FEF2B96E2E14E
:102A20000C94DE15FC010590615070400110D8F740
:102A3000809590958E0F9F1F0895FC016150704006
:102A400001900110D8F7809590958E0F9F1F0895E3
:102A50000F931F93CF93DF93FB01238121FD03C0CD
:102A60008FEF9FEF2CC022FF16C046815781248133
:102A700035814217530744F4A081B1819D012F5F36
:102A80003F4F318320838C93268137812F5F3F4FC7
:102A90003783268314C08B01EC01FB010084F18590
:102AA000E02D0995892BE1F6D80116968D919C9120
:102AB0001797019617969C938E931697CE01DF91E8
:102AC000CF911F910F910895FA01AA27283051F153
:102AD000203181F1E8946F936E7F6E5F7F4F8F4F4F
:102AE0009F4FAF4FB1E03ED0B4E03CD0670F781FAE
:102AF000891F9A1FA11D680F791F8A1F911DA11D93
:102B00006A0F711D811D911DA11D20D009F46894CB
:102B10003F912AE0269F11243019305D3193DEF673
:102B2000CF010895462F4770405D4193B3E00FD029
:102B3000C9F7F6CF462F4F70405D4A3318F0495D14
:102B400031FD4052419302D0A9F7EACFB4E0A695F7
:102B50009795879577956795BA95C9F70097610519
:102B6000710508959B01AC010A2E0694579547956F
:102B700037952795BA95C9F7620F731F841F951F64
:102B8000A01D08952F923F924F925F926F927F9275
:102B90008F929F92AF92BF92CF92DF92EF92FF926D
:102BA0000F931F93CF93DF93CDB7DEB7CA1BDB0B19
:102BB0000FB6F894DEBF0FBECDBF09942A883988BE
:102BC00048885F846E847D848C849B84AA84B984C5
:102BD000C884DF80EE80FD800C811B81AA81B981D1
:102BE000CE0FD11D0FB6F894DEBF0FBECDBFED01E5
:062BF0000895F894FFCFE8
:102BF60000000002000000009C070000000000002A
:102C06005D036A036D03700300000000000000000E
:102C1600660369036C036F030000000000000000F8
:102C26007203750378037B030000000000000000B8
:102C36007E038103840387030000000000008607EB
:102C4600060061626364656600003D3D3D3D3D3DB5
:102C56003D3D3D41444320535452554354207661F3
:102C66006C756573203D3D3D3D3D3D3D3D3D3D0023
:102C7600566572746963616C20617869733A2020C5
:102C860020253464200A00486F72697A6F6E746179
:102C96006C20617869733A20253464200A004C65FB
:102CA600667420736C696465723A202020202025A2
:102CB6003464200A00526967687420736C6964651D
:102CC600723A20202020253464200A00204D4350EB
:102CD60032353135206973204E4F5420696E204EAF
:102CE6006F726D616C206D6F6465206166746572CC
:102CF60020726573657420210073656E74204944E3
:102D06003A2025780A0073656E74206C656E6774C8
:102D1600683A2025640A0073656E74206D657373C6
:102D26006167653A20002578006A6F797374696374
:102D36003A202564207C2063616E5F646174613A89
:102D46002025640A0D003D3D3D3D3D3D3D3D3D2078
:102D560053454E534F5253203D3D3D3D3D3D3D3D38
:102D66003D3D004A4F59535449434B3A20202025B4
:102D760063200A00204D43503235313520697320D7
:102D86004E4F5420696E20636F6E66696775726177
:102D960074696F6E206D6F6465206166746572205C
:102DA60072657365742021006C696E653A20202077
:102DB600253464200A004C696665733A003D3D3D42
:102DC6003D3D205245534554203D3D3D3D3D00256A
:102DD6007820003D3D3D3D204C4F4F50203D3D3D30
:102DE6003D0A007374617475733A2025780A00658C
:102DF60072726F7220666C61673A2025780A0052FB
:102E060045433A2025780A005445433A2025780A56
:102E16000072656365697665642049443A202578C1
:102E26000A007265636569766564206C656E677411
:102E3600683A2025640A00726563656976656420D0
:102E46006D6573736167653A20002320004F7074C7
:102E5600696F6E733A00413A0041410041420041B8
:102E66004300423A00424100424200424300433A94
:0A2E760000434100434200434300C3
:00000001FF
