:100000000C9460030C945F050C947D030C947D03A9
:100010000C947D030C947D030C947D030C947D0360
:100020000C947D030C947D030C947D030C947D0350
:100030000C947D030C947D030C947D030C947D0340
:100040000C947D030C947D030C947D030C947D0330
:100050000C947D030C947D030C947D030C947D0320
:100060000C947D030C947D030C947D030C947D0310
:1000700000000000005C00000C000C007C287C28C4
:1000800058DC68002410480028542840000C000068
:10009000007884008478000054385400107C1000EC
:1000A00080400000101010000040000060100C00A4
:1000B00038543800487C40004864580044542C00B0
:1000C0001C107C005C5424003854240064140C0080
:1000D00068542C0048543800004800008048000054
:1000E0001028440028282800442810000454080040
:1000F00038445C00781478007C5428003844280088
:100100007C4438007C5444007C140400384474005F
:100110007C107C00447C440020403C007C106C003F
:100120007C4040007C187C0078103C00384438004B
:100130007C1408003844B8007C146800485424003B
:10014000047C04007C407C003C603C007C307C00F3
:100150006C106C000C700C0064544C00007C44006B
:100160000C106000447C00000804080080808000BF
:1001700000040800304878007C48300030484800CF
:1001800030487C00306850001078140090A8780047
:100190007C08700050744000808074007C106800FF
:1001A000447C4000781078007808700030483000B7
:1001B000F82810003048F80078100800505828003F
:1001C000083C4800384078003840380078207800F3
:1001D0004830480098A0780048685800107884009B
:1001E000007C00008478100008040804000000006F
:1001F0000000005F00000007000700147F147F1458
:10020000242A7F2A1223130864623649552250009B
:1002100005030000001C2241000041221C00082AA6
:100220001C2A0808083E080800503000000808088A
:100230000808006060000020100804023E51494593
:100240003E00427F400042615149462141454B31C9
:100250001814127F1027454545393C4A4949300159
:10026000710905033649494936064949291E0036B0
:100270003600000056360000000814224114141401
:10028000141441221408000201510906324979412F
:100290003E7E1111117E7F494949363E414141223E
:1002A0007F4141221C7F494949417F090901013EA3
:1002B000414151327F0808087F00417F41002040C2
:1002C000413F017F081422417F404040407F0204AB
:1002D000027F7F0408107F3E4141413E7F090909AA
:1002E000063E4151215E7F09192946464949493157
:1002F00001017F01013F4040403F1F2040201F7F00
:100300002018207F631408146303047804036151E8
:1003100049454300007F4141020408102041417FCC
:100320000000040201020440404040400001020479
:100330000020545454787F4844443838444444207E
:10034000384444487F3854545418087E0901020840
:100350001454543C7F0804047800447D400020403D
:10036000443D00007F10284400417F40007C041879
:1003700004787C0804047838444444387C14141409
:1003800008081414187C7C080404084854545420A9
:10039000043F4440203C4040207C1C2040201C3C2A
:1003A0004030403C44281028440C5050503C446499
:1003B000544C44000836410000007F0000004136E4
:1003C000080002010302010000000000000000001C
:1003D000065F5F0600000000070700070700001423
:1003E0007F7F147F7F1400242E6B6B3A120000462F
:1003F0006630180C666200307A4F5D377A48000428
:1004000007030000000000001C3E634100000000E4
:1004100041633E1C000000082A3E1C1C3E2A0808BE
:10042000083E3E0808000000A0E060000000000850
:100430000808080808000000006060000000006074
:1004400030180C060301003E7F594D7F3E000042EC
:10045000427F7F40400000627359496F660000226E
:100460006349497F360000181C16137F7F10002750
:100470006745457D3900003C7E4B497930000003DB
:100480006371190F070000367F49497F3600000667
:100490004F49693F1E000000006C6C000000000026
:1004A000A0EC6C00000000081C3663410000001442
:1004B00014141414140000004163361C08000002D8
:1004C0000351590F0600003E7F415D5D1F1E007CF9
:1004D0007E13137E7C0000417F7F49497F36001CDC
:1004E0003E634141632200417F7F41637F1C0041A5
:1004F0007F7F495D416300417F7F491D0103001CEF
:100500003E6341517372007F7F08087F7F000000C7
:10051000417F7F41000000307040417F3F0100413A
:100520007F7F081C776300417F7F41406070007FC0
:100530007F060C067F7F007F7F060C187F7F001CE4
:100540003E6341633E1C00417F7F49090F06001E48
:100550003F21717F5E0000417F7F19396F46002681
:10056000674D597B32000003417F7F410300007FCC
:100570007F40407F7F00001F3F60603F1F00007F83
:100580007F3018307F7F0063771C081C776300077B
:100590004F78784F0700006773594D47637100002B
:1005A0007F7F41410000000103060C18306000000D
:1005B00041417F7F000000080C0603060C08008004
:1005C000808080808080800000030704000000207D
:1005D0007454543C784000413F7F44447C38003898
:1005E0007C44446C280000307848493F7F40003804
:1005F0007C54545C180000487E7F49030200009838
:10060000BCA4A4F87C0400417F7F08047C7800002F
:10061000447D7D4000000040C484FD7D0000004119
:100620007F7F10386C440000417F7F400000007CD9
:100630007C0C180C7C78007C7C04047C78000038EE
:100640007C44447C38000084FCF8A4243C18001846
:100650003C24A4F8FC8400447C78441C1800004826
:100660005C54547424000000043E7F442400003C89
:100670007C40403C7C40001C3C60603C1C00003CDA
:100680007C6030607C3C00446C3810386C44009CCA
:10069000BCA0A0FC7C00004C64745C4C64000008AE
:1006A000083E7741410000000000777700000041DC
:1006B00041773E0808000002030103020301000025
:1006C00011241FBECFEFD4E0DEBFCDBF13E0A0E00A
:1006D000B1E0E6E2FBE202C005900D92A437B1075B
:1006E000D9F723E0A4E7B3E001C01D92A438B20714
:1006F000E1F70E94BF0E0C9491150C9473058C9A2F
:100700008EB588608EBD8EB581608EBD1BBC1ABC57
:100710008FB580648FBD08958FE08093001489EFBA
:1007200090E00197F1F700C00000A1E0B4E18C91E6
:10073000E4E7F3E090E09183808389EF90E0019714
:10074000F1F700C000008C9190E09383828389EFE1
:1007500090E00197F1F700C000008C9190E0958344
:10076000848389EF90E00197F1F700C000008C913D
:1007700090E0978386830895CF93DF938AE591E095
:100780000E949912C4E7D3E089818F9388818F9367
:1007900080E891E09F938F930E947C128B818F93CE
:1007A0008A818F9387E991E09F938F930E947C12B7
:1007B0008D818F938C818F938EEA91E09F938F939D
:1007C0000E947C128F818F938E818F9385EC91E0B4
:1007D0009F938F930E947C128DB79EB740960FB661
:1007E000F8949EBF0FBE8DBFDF91CF9108958A9878
:1007F0000E9485072FE38DE093E0215080409040D8
:10080000E1F700C0000043E06FEF8AE20E94670753
:1008100041EB6FEF89E20E94670745E067EC88E2F1
:100820000E94670743E06FE18BE20E94670740E0A8
:1008300060EE8FE00E9467078EE00E941507807EC1
:1008400029F08CED91E00E9499120895F89485B7F3
:10085000826085BF85B78E7F85BF8FB780688FBF69
:100860008BB780648BBF789460E08CE20E9447076E
:100870000895CF92DF92EF92FF920F931F93CF9341
:10088000DF93CDB7DEB72C970FB6F894DEBF0FBE5F
:10089000CDBFE982FA820B831C832D833E834F8375
:1008A000588769877A878B879C8709811A81B80165
:1008B00076956795769567957695679581E30E941D
:1008C0004707602F6295660F607E82E30E944707AC
:1008D0008A818F9389818F9389E092E09F938F9390
:1008E0000E947C126B8185E30E9447078C818F9365
:1008F0008B818F9386E192E09F938F930E947C126D
:100900006B817C81AE014B5F5F4F86E30E942307C2
:100910000E94590787E292E09F938F930E947C1276
:100920000FB6F894DEBF0FBECDBF8B819C81181629
:10093000190624F56E0195E0C90ED11C00E010E007
:100940000F2EF6E3EF2EF2E0FF2EF02DF60181914F
:100950006F01282F082E000C330B3F938F93FF92CB
:10096000EF920E947C120F5F1F4F0F900F900F901D
:100970000F908B819C810817190744F383E792E05D
:100980000E9499122C960FB6F894DEBF0FBECDBF11
:10099000DF91CF911F910F91FF90EF90DF90CF905B
:1009A0000895CF92DF92FF920F931F93CF93DF931F
:1009B000EC016130710509F041C081E60E94150724
:1009C000182F82E60E941507212F30E0322F2227B0
:1009D000282B36952795329522952F7023273F7027
:1009E00023273983288385E60E94150790E09B839F
:1009F0008A8318161906C4F46E0184E0C80ED11C4F
:100A00000F2EF6E6FF2EF02D00E010E08F2D0E9455
:100A10001507F60181936F010F5F1F4FF3948A81D1
:100A20009B810817190794F340E061E08CE20E9473
:100A3000670710927D0310927C0339C06230710504
:100A4000B1F581E70E941507182F82E70E9415076C
:100A5000212F30E0382B3983288385E70E94150742
:100A600090E09B838A8318161906C4F46E01F4E0A3
:100A7000CF0ED11C0F2EF6E7FF2EF02D00E010E078
:100A80008F2D0E941507F60181936F010F5F1F4F95
:100A9000F3948A819B810817190794F340E062E080
:100AA0008CE20E94670710927D0310927C03DF9115
:100AB000CF911F910F91FF90DF90CF9008951F92DB
:100AC0000F920FB60F9211248F939F9381E090E0C5
:100AD00090937D0380937C039F918F910F900FBE25
:100AE0000F901F9018951F920F920FB60F9211241E
:100AF0000F900FBE0F901F901895EF92FF920F93DB
:100B00001F93CF93DF93CDB7DEB72C970FB6F89432
:100B1000DEBF0FBECDBFFE0131968CE0DF011D921E
:100B20008A95E9F783E090E09A83898381E090E0F9
:100B30009C838B830E948606E980FA800B811C814E
:100B4000282F3E814F81588569857A858B859C85C4
:100B50000E9439042C960FB6F894DEBF0FBECDBFAD
:100B6000DF91CF911F910F91FF90EF900895EF9239
:100B7000FF920F931F93CF93DF93CDB7DEB72C97E0
:100B80000FB6F894DEBF0FBECDBFFE0131968CE0EC
:100B9000DF011D928A95E9F787E090E09A838983C7
:100BA00083E090E09C838B830E947F06E980FA803B
:100BB0000B811C81282F3E814F81588569857A855C
:100BC0008B859C850E9439042C960FB6F894DEBF65
:100BD0000FBECDBFDF91CF911F910F91FF90EF908E
:100BE0000895EF92FF920F931F93CF93DF93CDB7AA
:100BF000DEB72C970FB6F894DEBF0FBECDBFFE0157
:100C000031968CE0DF011D928A95E9F781E090E052
:100C10009A8389839C838B830E94CD06E980FA8026
:100C20000B811C81282F3E814F81588569857A85EB
:100C30008B859C850E9439042C960FB6F894DEBFF4
:100C40000FBECDBFDF91CF911F910F91FF90EF901D
:100C50000895DF92EF92FF920F931F93CF93DF934C
:100C6000CDB7DEB72C970FB6F894DEBF0FBECDBF61
:100C70000E947F06D82E8D2D0D2C000C990B9F9372
:100C8000DF9289E392E09F938F930E947C120E94EF
:100C900078068E830E94AD068F830E94B4068887F3
:100CA0000E940E079AE2E92E99831A8295E0092F95
:100CB0009B831C82F12C10E02D2D3E814F815885A5
:100CC000682F7A858B859C850E9439040F900F9040
:100CD0000F900F902C960FB6F894DEBF0FBECDBFCD
:100CE000DF91CF911F910F91FF90EF90DF900895CA
:100CF0000E948C03809174039091750308950E9463
:100D00008C03809176039091770308950F931F933E
:100D1000CF93DF930E948C03C4E7D3E0088119814D
:100D20000E948C038A819B81023E110554F4093193
:100D300011054CF0873E910544F4499744F083E453
:100D400007C084E505C082E403C082E501C08CE4ED
:100D5000DF91CF911F910F9108950E948C03809194
:100D600078039091790308950E948C0380917A030F
:100D700090917B0308950E948C0320917803309119
:100D8000790344E6429FC001439F900D11246FEF09
:100D900070E00E945412CB0108950E948C032091B0
:100DA0007A0330917B0344E6429FC001439F900D3C
:100DB00011246FEF70E00E945412CB01089587E474
:100DC00092E00E9499120E948606282F082E000C9D
:100DD000330B3F938F9384E692E09F938F930E940F
:100DE0007C120E94BB069F938F938EEA91E09F93A3
:100DF0008F930E947C120E94CD069F938F9385EC67
:100E000091E09F938F930E947C128DB79EB70C96B2
:100E10000FB6F8949EBF0FBE8DBF089586B386951A
:100E200091E08927817090E00895CF93C82FC498EE
:100E300083E00E944C128C2F0E944C120E944F1291
:100E4000C49ACF910895EF92FF920F931F93CF937F
:100E5000DF93C82F8B017A01C49882E00E944C1264
:100E60008C2F0E944C12101611064CF4E7010E0D47
:100E70001F1D89910E944C12C017D107D1F7C49A47
:100E8000DF91CF911F910F91FF90EF900895CF9335
:100E9000DF93D82FC62FC49882E00E944C128D2F6A
:100EA0000E944C128C2F0E944C12C49ADF91CF9159
:100EB0000895C49881E80E944C12C49A0895C49879
:100EC00080EA0E944C120E944F12C49A08951F9308
:100ED000CF93DF93182FD62FC42FC49885E00E949C
:100EE0004C12812F0E944C128D2F0E944C128C2F7D
:100EF0000E944C12C49ADF91CF911F910895C4981B
:100F000080EC0E944C12C49A08950E9440120E94E4
:100F10007F078EE00E941507807E803831F085E7DC
:100F200092E00E94991281E0089580E008955D9B0F
:100F3000FECF8CB9089590BD89B988E18AB98EE851
:100F400080BD80E091E090938103809380030895B9
:100F50008BB18CB108955F9B03C08CB15F99FDCFBD
:100F60000895E0E0F0E18EEA808381EA80838AEDF3
:100F7000808382E1808388EC808388EA80838FE3AA
:100F8000808385ED808380E8808381E8808380E5AD
:100F9000808389ED808381E2808380E2808382E0A8
:100FA00080838BED808380E380838DEA8083108251
:100FB00084EA808386EA80838FEA808380E180836D
:100FC0000895809300100895809300120895806B17
:100FD000809300100895806B8093001080E890E06B
:100FE000E0E0F2E11082A1EEB4E01197F1F700C069
:100FF00000000197B9F70895806B8093001080E896
:1010000090E0E0E0F2E12FEF2083A1EEB4E0119751
:10101000F1F700C000000197B9F7089520E030E033
:10102000A0E0B0E1E0E0F2E1C901806B8C9380E8E0
:1010300090E010820197E9F72F5F3F4F283031058C
:1010400099F708955F926F927F928F929F92AF92DD
:10105000BF92CF92DF92EF92FF920F931F93CF93A5
:10106000DF93C12CD12CA12C6894BB24B4F8612C43
:10107000712C0F2EE12CF2E1FF2EF02D09EA12E087
:1010800055245A94C601806BF5018083882483948B
:10109000912CC62DD72D04C0EFEF8E1A9E0A2196F3
:1010A000209769F4F7015082DF93CF931F930F933A
:1010B0000E947C120F900F900F900F90EDCFF701D0
:1010C0001082DF93CF931F930F930E947C120F9097
:1010D0000F900F900F90E0E88E169104E8F2FFEF6A
:1010E000CF1ADF0A88E0C816D10461F6DF91CF91EC
:1010F0001F910F91FF90EF90DF90CF90BF90AF9036
:101100009F908F907F906F905F9008959C012F70BB
:101110003327E0E0F0E12083807E9927806180839F
:101120000895E0E0F2E1108280EC808380ED80831E
:1011300088ED80838CEF8083808388E1808380E1E9
:101140008083089580979C01220F331F220F331F45
:10115000220F331FF901E953FC4F21533C4FA0E00C
:10116000B2E194919C933196E217F307D1F7089579
:101170000F931F93CF93DF93FC0101900020E9F7B9
:101180003197E81BF90B1E161F066CF4EC018C015D
:101190000E0F1F1F8991082E000C990B0E94A208A8
:1011A000C017D107B9F7DF91CF911F910F91089523
:1011B000E0E0F0E182E0808380E1808325E030E0C0
:1011C000A0E0B0E1E0E0F2E18FEFA901406B4C93C9
:1011D00080838083808380838083808380838083F7
:1011E0002F5F3F4F2E30310581F721E130E0A0E045
:1011F000B0E1E0E0F2E18FEFA901406B4C93808316
:1012000080838083808380838083808380832F5F3B
:101210003F4F2C31310581F725E230E0A0E0B0E10D
:10122000E0E0F2E18FEFA901406B4C938083808373
:101230008083808380838083808380832F5F3F4F80
:101240002C32310581F721E330E0A0E0B0E1E0E0AD
:10125000F2E18FEFA901406B4C9380838083808300
:10126000808380838083808380832F5F3F4F2433FC
:10127000310581F72DE330E0A0E0B0E1E0E0F2E1FC
:101280008FEFA901406B4C938083808380838083A0
:1012900080838083808380832F5F3F4F203431059C
:1012A00081F721E430E0A0E0B0E1E0E0F2E18FEF8F
:1012B000A901406B4C9380838083808380838083EB
:1012C0008083808380832F5F3F4F2C34310581F7EB
:1012D00021E630E0A0E0B0E1E0E0F2E18FEFA9012B
:1012E000406B4C9380838083808380838083808362
:1012F000808380832F5F3F4F2436310581F72BE6B3
:1013000030E0A0E0B0E1E0E0F2E18FEFA901406B56
:101310004C938083808380838083808380838083D9
:1013200080832F5F3F4F2037310581F725E730E07D
:10133000A0E0B0E1E0E0F2E18FEFA901406B4C9357
:101340008083808380838083808380838083808385
:101350002F5F3F4F2C37310581F7E0E0F0E183E06C
:10136000808380E1808321E030E0A0E0B0E1E0E034
:10137000F2E18FEFA901406B4C93808380838083DF
:10138000808380838083808380832F5F3F4F2430DE
:10139000310581F72DE030E0A0E0B0E1E0E0F2E1DE
:1013A0008FEFA901406B4C9380838083808380837F
:1013B00080838083808380832F5F3F4F203131057E
:1013C00081F721E130E0A0E0B0E1E0E0F2E18FEF71
:1013D000A901406B4C9380838083808380838083CA
:1013E0008083808380832F5F3F4F2431310581F7D5
:1013F0002BE130E0A0E0B0E1E0E0F2E18FEFA90105
:10140000406B4C9380838083808380838083808340
:10141000808380832F5F3F4F2032310581F721E2A7
:1014200030E0A0E0B0E1E0E0F2E18FEFA901406B35
:101430004C938083808380838083808380838083B8
:1014400080832F5F3F4F2432310581F72DE230E05A
:10145000A0E0B0E1E0E0F2E18FEFA901406B4C9336
:101460008083808380838083808380838083808364
:101470002F5F3F4F2033310581F721E330E0A0E0BB
:10148000B0E1E0E0F2E18FEFA901406B4C93808383
:1014900080838083808380838083808380832F5FA9
:1014A0003F4F2433310581F72DE330E0A0E0B0E178
:1014B000E0E0F2E18FEFA901406B4C9380838083E1
:1014C0008083808380838083808380832F5F3F4FEE
:1014D0002034310581F72DE430E0A0E0B0E1E0E018
:1014E000F2E18FEFA901406B4C938083808380836E
:1014F000808380838083808380832F5F3F4F20356C
:10150000310581F721E630E0A0E0B0E1E0E0F2E172
:101510008FEFA901406B4C9380838083808380830D
:1015200080838083808380832F5F3F4F2436310503
:1015300081F72BE630E0A0E0B0E1E0E0F2E18FEFF0
:10154000A901406B4C938083808380838083808358
:101550008083808380832F5F3F4F2037310581F761
:1015600021E730E0A0E0B0E1E0E0F2E18FEFA90197
:10157000406B4C93808380838083808380838083CF
:10158000808380832F5F3F4F2437310581F72DE71C
:1015900030E0A0E0B0E1E0E0F2E18FEFA901406BC4
:1015A0004C93808380838083808380838083808347
:1015B00080832F5F3F4F2038310581F7E0E0F0E175
:1015C00084E0808380E1808321E030E0A0E0B0E12E
:1015D000E0E0F2E18FEFA901406B4C9380838083C0
:1015E0008083808380838083808380832F5F3F4FCD
:1015F0002430310581F721E130E0A0E0B0E1E0E006
:10160000F2E18FEFA901406B4C938083808380834C
:10161000808380838083808380832F5F3F4F2C3142
:10162000310581F721E230E0A0E0B0E1E0E0F2E155
:101630008FEFA901406B4C938083808380838083EC
:1016400080838083808380832F5F3F4F24323105E6
:1016500081F72DE230E0A0E0B0E1E0E0F2E18FEFD1
:10166000A901406B4C938083808380838083808337
:101670008083808380832F5F3F4F2033310581F744
:1016800021E330E0A0E0B0E1E0E0F2E18FEFA9017A
:10169000406B4C93808380838083808380838083AE
:1016A000808380832F5F3F4F2433310581F72DE303
:1016B00030E0A0E0B0E1E0E0F2E18FEFA901406BA3
:1016C0004C93808380838083808380838083808326
:1016D00080832F5F3F4F2034310581F721E430E0D4
:1016E000A0E0B0E1E0E0F2E18FEFA901406B4C93A4
:1016F00080838083808380838083808380838083D2
:101700002F5F3F4F2C34310581F721E630E0A0E018
:10171000B0E1E0E0F2E18FEFA901406B4C938083F0
:1017200080838083808380838083808380832F5F16
:101730003F4F2C36310581F721E730E0A0E0B0E1E2
:10174000E0E0F2E18FEFA901406B4C93808380834E
:101750008083808380838083808380832F5F3F4F5B
:101760002437310581F72DE730E0A0E0B0E1E0E07B
:10177000F2E18FEFA901406B4C93808380838083DB
:10178000808380838083808380832F5F3F4F2038D6
:10179000310581F7E0E0F0E185E0808380E180833E
:1017A00021E030E0A0E0B0E1E0E0F2E18FEFA9015C
:1017B000406B4C938083808380838083808380838D
:1017C000808380832F5F3F4F2430310581F721E1F3
:1017D00030E0A0E0B0E1E0E0F2E18FEFA901406B82
:1017E0004C93808380838083808380838083808305
:1017F00080832F5F3F4F2831310581F721E230E0B0
:10180000A0E0B0E1E0E0F2E18FEFA901406B4C9382
:1018100080838083808380838083808380838083B0
:101820002F5F3F4F2432310581F72DE230E0A0E0F9
:10183000B0E1E0E0F2E18FEFA901406B4C938083CF
:1018400080838083808380838083808380832F5FF5
:101850003F4F2033310581F721E330E0A0E0B0E1D4
:10186000E0E0F2E18FEFA901406B4C93808380832D
:101870008083808380838083808380832F5F3F4F3A
:101880002433310581F72DE330E0A0E0B0E1E0E062
:10189000F2E18FEFA901406B4C93808380838083BA
:1018A000808380838083808380832F5F3F4F2034B9
:1018B000310581F721E430E0A0E0B0E1E0E0F2E1C1
:1018C0008FEFA901406B4C9380838083808380835A
:1018D00080838083808380832F5F3F4F2434310552
:1018E00081F72DE630E0A0E0B0E1E0E0F2E18FEF3B
:1018F000A901406B4C9380838083808380838083A5
:101900008083808380832F5F3F4F2037310581F7AD
:1019100021E730E0A0E0B0E1E0E0F2E18FEFA901E3
:10192000406B4C938083808380838083808380831B
:10193000808380832F5F3F4F2437310581F72DE768
:1019400030E0A0E0B0E1E0E0F2E18FEFA901406B10
:101950004C93808380838083808380838083808393
:1019600080832F5F3F4F2038310581F7E0E0F0E1C1
:1019700086E0808380E1808321E030E0A0E0B0E178
:10198000E0E0F2E18FEFA901406B4C93808380830C
:101990008083808380838083808380832F5F3F4F19
:1019A0002430310581F729E030E0A0E0B0E1E0E04B
:1019B000F2E18FEFA901406B4C9380838083808399
:1019C000808380838083808380832F5F3F4F20319B
:1019D000310581F721E130E0A0E0B0E1E0E0F2E1A3
:1019E0008FEFA901406B4C93808380838083808339
:1019F00080838083808380832F5F3F4F2431310534
:101A000081F729E130E0A0E0B0E1E0E0F2E18FEF22
:101A1000A901406B4C938083808380838083808383
:101A20008083808380832F5F3F4F2C31310581F786
:101A30002DE230E0A0E0B0E1E0E0F2E18FEFA901BB
:101A4000406B4C93808380838083808380838083FA
:101A5000808380832F5F3F4F2033310581F721E35F
:101A600030E0A0E0B0E1E0E0F2E18FEFA901406BEF
:101A70004C93808380838083808380838083808372
:101A800080832F5F3F4F2433310581F72DE330E012
:101A9000A0E0B0E1E0E0F2E18FEFA901406B4C93F0
:101AA000808380838083808380838083808380831E
:101AB0002F5F3F4F2034310581F721E430E0A0E073
:101AC000B0E1E0E0F2E18FEFA901406B4C9380833D
:101AD00080838083808380838083808380832F5F63
:101AE0003F4F2434310581F72DE630E0A0E0B0E12E
:101AF000E0E0F2E18FEFA901406B4C93808380839B
:101B00008083808380838083808380832F5F3F4FA7
:101B10002037310581F721E730E0A0E0B0E1E0E0D7
:101B2000F2E18FEFA901406B4C9380838083808327
:101B3000808380838083808380832F5F3F4F24371F
:101B4000310581F72DE730E0A0E0B0E1E0E0F2E11F
:101B50008FEFA901406B4C938083808380838083C7
:101B600080838083808380832F5F3F4F20383105BF
:101B700081F7E0E0F0E187E0808380E1808325E089
:101B800030E0A0E0B0E1E0E0F2E18FEFA901406BCE
:101B90004C93808380838083808380838083808351
:101BA00080832F5F3F4F2C30310581F721E130E0FA
:101BB000A0E0B0E1E0E0F2E18FEFA901406B4C93CF
:101BC00080838083808380838083808380838083FD
:101BD0002F5F3F4F2431310581F72DE130E0A0E048
:101BE000B0E1E0E0F2E18FEFA901406B4C9380831C
:101BF00080838083808380838083808380832F5F42
:101C00003F4F2032310581F725E230E0A0E0B0E11E
:101C1000E0E0F2E18FEFA901406B4C938083808379
:101C20008083808380838083808380832F5F3F4F86
:101C30002C32310581F725E330E0A0E0B0E1E0E0AF
:101C4000F2E18FEFA901406B4C9380838083808306
:101C5000808380838083808380832F5F3F4F2C33FA
:101C6000310581F721E430E0A0E0B0E1E0E0F2E10D
:101C70008FEFA901406B4C938083808380838083A6
:101C800080838083808380832F5F3F4F243431059E
:101C900081F72DE630E0A0E0B0E1E0E0F2E18FEF87
:101CA000A901406B4C9380838083808380838083F1
:101CB0008083808380832F5F3F4F2037310581F7FA
:101CC00025E730E0A0E0B0E1E0E0F2E18FEFA9012C
:101CD000406B4C9380838083808380838083808368
:101CE000808380832F5F3F4F2C37310581F7089524
:101CF00022E030E0A0E0B0E190E1E0E0F2E18FEF3F
:101D00001C929C93A901406B4C93808380838083B9
:101D1000808380838083808380832F5F3F4F263042
:101D2000310571F7A0E0B0E188E08C9380E18C93FD
:101D300081EB8C93E0E0F2E18FEF808380838083FE
:101D4000808380838083808380831C9290E59C9332
:101D500096EB9C93808380838083808380838083C1
:101D6000808380830895E0E0F2E18FEF80838083B9
:101D70008083808380838083808380830895CF9352
:101D8000DF93CDB7DEB7A8970FB6F894DEBF0FBECE
:101D9000CDBF85B7806885BF80B7806280BF8FE187
:101DA00090E00E949B0787EB92E00E9499120E94AC
:101DB0007F030E94B1070E940E08CE0101960E9487
:101DC000C0100E94F7038CE0EEE4F1E0DE015196D2
:101DD00001900D928A95E1F78E010B5E1F4F6E0107
:101DE0002BE1C20ED11C0F2EF9ECEF2EF2E0FF2EEC
:101DF000F02DF80181918F01282F082E000C330B54
:101E00003F938F93FF92EF920E947C120F900F905E
:101E10000F900F900C151D0561F70F2EFDED8F2E05
:101E2000F2E09F2EF02D0F2EF9EEAF2EF2E0BF2E36
:101E3000F02D0F2EF9EFCF2EF2E0DF2EF02D0F2E2A
:101E4000F2E06F2EF3E07F2EF02D0F2EFBE04F2EF1
:101E5000F3E05F2EF02D0F2EFCE12F2EF3E03F2E4E
:101E6000F02D0E94780E8DEC92E00E949912FFEF07
:101E70002FEF82E0F15020408040E1F700C000C029
:101E80000E94290680917C0390917D03892B49F360
:101E90008CE20E941507182F8DE20E941507E82E8C
:101EA0008DE10E941507F82E8CE10E941507082F7E
:101EB0001F921F939F928F920E947C121F92EF920B
:101EC000BF92AF920E947C121F92FF92DF92CF923C
:101ED0000E947C121F920F937F926F920E947C123D
:101EE00013700FB6F894DEBF0FBECDBF09F4B9CFA3
:101EF000612F70E0CE014D960E94D1048AE090E0FF
:101F00000E9492128E8D8F938D8D8F935F924F9240
:101F10000E947C1288A18F938F8D8F933F922F9276
:101F20000E947C1281E393E09F938F930E947C1226
:101F30000FB6F894DEBF0FBECDBF8F8D98A11816D7
:101F40001906ACF47E0191E2E90EF11C00E010E00C
:101F5000F70181917F01082E000C990B0E949212CB
:101F60000F5F1F4F8F8D98A1081719078CF383E718
:101F700092E00E94991275CFCF93DF9381E090E0B9
:101F80000E948608C2E0D0E0CE010E94E70785E407
:101F900093E00E94B8082196C630D105A9F7DF91D9
:101FA000CF910895AF92BF92CF92DF92EF92FF92BE
:101FB0000F931F93CF93DF937C01EB015A016901CB
:101FC00080E090E00E94E70781E090E00E948608B0
:101FD000C7010E94B8080E94BC0F82E090E00E94F6
:101FE000E70781E090E00E948608C130D10559F5ED
:101FF00084E493E00E94B80882E090E00E94E70742
:1020000084E190E00E948608C5010E94B80883E040
:1020100090E00E94E70781E090E00E94860883E05C
:1020200090E00E94E70784E190E00E948608C601E4
:102030000E94B80884E090E00E94E70781E090E009
:102040000E9486086FC082E090E00E94E70784E16A
:1020500090E00E948608C5010E94B80883E090E0E5
:102060000E94E70781E090E00E948608C230D10517
:1020700059F584E493E00E94B80883E090E00E9460
:10208000E70784E190E00E948608C6010E94B80834
:1020900084E090E00E94E70781E090E00E948608DB
:1020A00084E090E00E94E70784E190E00E948608C7
:1020B000C8010E94B80885E090E00E94E70781E02F
:1020C00090E00E94860847C083E090E00E94E70706
:1020D00084E190E00E948608C6010E94B80884E06E
:1020E00090E00E94E70781E090E00E948608C330FC
:1020F000D105C1F484E493E00E94B80884E090E044
:102100000E94E70784E190E00E948608C8010E94CF
:10211000B80885E090E00E94E70781E090E00E9427
:10212000860819C084E090E00E94E70784E190E00F
:102130000E948608C8010E94B80885E090E00E94CD
:10214000E70781E090E00E948608249721F484E468
:1021500093E00E94B80885E090E00E94E70784E1E0
:1021600090E00E9486080E949108DF91CF911F9114
:102170000F91FF90EF90DF90CF90BF90AF900895B8
:10218000CF93DF93AEE3B1E04EE051E011965C9364
:102190004E930A2E1B2E1B961C920E9211241A97F8
:1021A0000A2E1B2E1D961C920E9211241C970A2E8D
:1021B0001B2E1F961C920E9211241E97CEE2D1E088
:1021C00059834883DB87CA87DD87CC87DF87CE8743
:1021D0002EE131E0F901518340833387228735872F
:1021E000248737872687FA015183408333872287E4
:1021F000D587C487B787A68720E1DC0101900D92BF
:102200002A95E1F7DF91CF9108954F925F926F92F7
:102210007F928F929F92AF92BF92CF92DF92EF9276
:10222000FF920F931F93CF93DF93CDB7DEB76097E5
:102230000FB6F894DEBF0FBECDBF3C0189829A82F3
:10224000AB82BC82CD82DE82EF82F88609871A8754
:102250002B873C874D875E876F87788B4BA05CA070
:10226000E980FA80CB84DC84AD84BE848F84988836
:1022700009851A852F8138854D815E81B2018B8158
:102280009C810E94D20F0E948606843549F481E029
:102290004816510409F47DC0E1E04E1A510882C08D
:1022A000823449F4F4E04F16510409F478C08FEFFA
:1022B000481A580A77C0B1991AC0E1E04E16510485
:1022C000B1F480E1F601DE01119601900D928A953C
:1022D000E1F7F601E080F18002851385A484B584DE
:1022E000868497840E940E08C02ED12E5BC0B199BF
:1022F0001AC0F2E04F165104B1F480E1F501DE019D
:10230000119601900D928A95E1F7F501E080F18038
:10231000C284D38404851585868497840E940E0820
:10232000A02EB12E3FC0B19918C0F3E04F16510452
:10233000A1F480E1F401DE01119601900D928A95DD
:10234000E1F7F401E080F180C284D384A484B584F1
:10235000868497840E940E0825C0B19923C0F4E0BA
:102360004F165104F9F480E1F701DE011196019056
:102370000D928A95E1F7F70100811181C284D3841F
:10238000A484B584868497840E940E08E02EF12EE2
:1023900009C00F2EF3E04F2E512CF02D03C0442422
:1023A0004394512CFA82E982DC86CB86BE86AD86C8
:1023B000988A8F8680E1FE013196D30101900D92BB
:1023C0008A95E1F7F301F182E082D386C286B58671
:1023D000A48697868686518A408AC30160960FB686
:1023E000F894DEBF0FBECDBFDF91CF911F910F914B
:1023F000FF90EF90DF90CF90BF90AF909F908F9025
:102400007F906F905F904F9008958F929F92AF92C0
:10241000BF92CF92DF92EF92FF920F931F93CF93D1
:10242000DF93CDB7DEB760970FB6F894DEBF0FBE6F
:10243000CDBFCB82DC82ED82FE820F831887298795
:102440003A87B40109851A852F8138854D815E81CF
:102450008B819C810E94D20F60960FB6F894DEBFEC
:102460000FBECDBFDF91CF911F910F91FF90EF90E5
:10247000DF90CF90BF90AF909F908F900895089578
:102480006B986A9880EB87BBBE9881E58DB90895FB
:102490008FB9779BFECF08950E944812089581E678
:1024A0000E9448128FB1089597FB072E16F40094EE
:1024B00007D077FD09D00E94681207FC05D03EF4D2
:1024C000909581959F4F0895709561957F4F0895E0
:1024D000AA1BBB1B51E107C0AA1FBB1FA617B7074A
:1024E00010F0A61BB70B881F991F5A95A9F7809566
:1024F0009095BC01CD010895A0E0B0E0E2E8F2E1E2
:102500000C946A15AE014B5F5F4FFA0161917191B6
:10251000AF0180918003909181030E94C912E2E093
:102520000C94861560918003709181030E94C01401
:1025300008950F931F93CF93DF93E0918003F09161
:102540008103238121FF1BC08C01D0E0C0E0F80192
:1025500081918F016091800370918103DB01189656
:10256000ED91FC911997882331F00995892B79F326
:10257000DFEFCFEFECCF8AE00995892B19F08FEFD1
:102580009FEF02C08D2F9C2FDF91CF911F910F9154
:102590000895ABE0B0E0EFECF2E10C945A156C0159
:1025A0007B018A01FC0117821682838181FFCCC1E5
:1025B000CE0101963C01F6019381F70193FD8591CF
:1025C00093FF81917F01882309F4BAC1853239F4E0
:1025D00093FD859193FF81917F01853229F4B601A6
:1025E00090E00E94C014E7CF912C212C312CFFE108
:1025F000F315D8F08B3279F038F4803279F08332E9
:10260000A1F4232D20611DC08D3261F0803369F467
:10261000232D216016C0832D8260382EE32DE460C7
:102620003E2E2AC0F32DF8601DC037FC2DC020EDD2
:10263000280F2A3040F08E32B9F436FC81C1232DA8
:102640002064322E19C036FE06C08AE0989E200D06
:102650001124922E11C0EAE02E9E200D1124222E6C
:10266000F32DF0623F2E08C08C3621F4832D806854
:10267000382E02C0883641F4F70193FD859193FF0F
:1026800081917F018111B3CF982F9F7D9554933015
:1026900028F40C5F1F4F9FE399830DC0833631F000
:1026A000833771F0833509F059C021C0F80180816A
:1026B00089830E5F1F4F88248394912C530113C08C
:1026C0002801F2E04F0E511CF801A080B18036FEC7
:1026D00003C0692D70E002C06FEF7FEFC5010E945B
:1026E000B5144C018201F32DFF773F2E16C028014F
:1026F00022E0420E511CF801A080B18036FE03C0DA
:10270000692D70E002C06FEF7FEFC5010E94AA142F
:102710004C01F32DF0683F2E820133FC1BC0822D4B
:1027200090E088169906B0F4B60180E290E00E942D
:10273000C0142A94F4CFF50137FC859137FE8191BE
:102740005F01B60190E00E94C01421102A9421E09C
:10275000821A91088114910471F7E8C0843611F04F
:10276000893641F5F80137FE07C0608171818281A9
:1027700093810C5F1F4F08C060817181072E000C90
:10278000880B990B0E5F1F4FF32DFF763F2E97FF9F
:1027900009C090958095709561957F4F8F4F9F4FA1
:1027A000F0683F2E2AE030E0A3010E94FC14882E3E
:1027B000861845C0853731F4232D2F7EB22E2AE0AE
:1027C00030E025C0932D997FB92E8F36C1F018F4D3
:1027D000883579F0B5C0803719F0883721F0B0C05E
:1027E000E92FE061BE2EB4FE0DC0FB2DF460BF2EBC
:1027F00009C034FE0AC0292F2660B22E06C028E088
:1028000030E005C020E130E002C020E132E0F80114
:10281000B7FE07C060817181828193810C5F1F4F79
:1028200006C06081718180E090E00E5F1F4FA301C0
:102830000E94FC14882E8618FB2DFF773F2E36FE53
:102840000DC0232D2E7FA22E891458F434FE0BC008
:1028500032FC09C0832D8E7EA82E05C0B82CA32C77
:1028600003C0B82C01C0B92CA4FE0FC0FE01E80DB6
:10287000F11D8081803321F49A2D997EA92E09C003
:10288000A2FE06C0B394B39404C08A2D867809F0E2
:10289000B394A3FC11C0A0FE06C0B21488F4280CA7
:1028A000922C9B180EC0B21460F4B60180E290E046
:1028B0000E94C014B394F7CFB21418F42B1802C0BE
:1028C000982C212CA4FE10C0B60180E390E00E9459
:1028D000C014A2FE17C0A1FC03C088E790E002C0AC
:1028E00088E590E0B6010CC08A2D867859F0A1FEEB
:1028F00002C08BE201C080E2A7FC8DE2B60190E04D
:102900000E94C014891438F4B60180E390E00E945C
:10291000C0149A94F7CF8A94F301E80DF11D8081D9
:10292000B60190E00E94C0148110F5CF222009F476
:1029300042CEB60180E290E00E94C0142A94F6CF05
:10294000F6018681978102C08FEF9FEF2B96E2E11F
:102950000C947615FC010590615070400110D8F779
:10296000809590958E0F9F1F0895FC0161507040D7
:1029700001900110D8F7809590958E0F9F1F0895B4
:102980000F931F93CF93DF93FB01238121FD03C09E
:102990008FEF9FEF2CC022FF16C046815781248104
:1029A00035814217530744F4A081B1819D012F5F07
:1029B0003F4F318320838C93268137812F5F3F4F98
:1029C0003783268314C08B01EC01FB010084F18561
:1029D000E02D0995892BE1F6D80116968D919C91F1
:1029E0001797019617969C938E931697CE01DF91B9
:1029F000CF911F910F910895FA01AA27283051F124
:102A0000203181F1E8946F936E7F6E5F7F4F8F4F1F
:102A10009F4FAF4FB1E03ED0B4E03CD0670F781F7E
:102A2000891F9A1FA11D680F791F8A1F911DA11D63
:102A30006A0F711D811D911DA11D20D009F468949C
:102A40003F912AE0269F11243019305D3193DEF644
:102A5000CF010895462F4770405D4193B3E00FD0FA
:102A6000C9F7F6CF462F4F70405D4A3318F0495DE5
:102A700031FD4052419302D0A9F7EACFB4E0A695C8
:102A80009795879577956795BA95C9F700976105EA
:102A9000710508959B01AC010A2E06945795479540
:102AA00037952795BA95C9F7620F731F841F951F35
:102AB000A01D08952F923F924F925F926F927F9246
:102AC0008F929F92AF92BF92CF92DF92EF92FF923E
:102AD0000F931F93CF93DF93CDB7DEB7CA1BDB0BEA
:102AE0000FB6F894DEBF0FBECDBF09942A8839888F
:102AF00048885F846E847D848C849B84AA84B98496
:102B0000C884DF80EE80FD800C811B81AA81B981A1
:102B1000CE0FD11D0FB6F894DEBF0FBECDBFED01B5
:062B20000895F894FFCFB8
:102B260000000002000000009707000000000000FF
:102B36004703540357035A03000000000000000037
:102B46005003530356035903000000000000000021
:102B56005C035F03620365030000000000000000E1
:102B660068036B036E037103000000000000860714
:102B7600060061626364656600003D3D3D3D3D3D86
:102B86003D3D3D41444320535452554354207661C4
:102B96006C756573203D3D3D3D3D3D3D3D3D3D00F4
:102BA600566572746963616C20617869733A202096
:102BB60020253464200A00486F72697A6F6E74614A
:102BC6006C20617869733A20253464200A004C65CC
:102BD600667420736C696465723A20202020202573
:102BE6003464200A00526967687420736C696465EE
:102BF600723A20202020253464200A00204D4350BC
:102C060032353135206973204E4F5420696E204E7F
:102C16006F726D616C206D6F64652061667465729C
:102C260020726573657420210073656E74204944B3
:102C36003A2025780A0073656E74206C656E677499
:102C4600683A2025640A0073656E74206D65737397
:102C56006167653A20002578006A6F797374696345
:102C66006B3A2025780A003D3D3D3D3D3D3D3D3DCD
:102C76002053454E534F5253203D3D3D3D3D3D3D36
:102C86003D3D3D004A4F59535449434B3A2020207D
:102C96002563200A00204D435032353135206973B3
:102CA600204E4F5420696E20636F6E666967757299
:102CB6006174696F6E206D6F6465206166746572FC
:102CC6002072657365742021006C696E653A202058
:102CD60020253464200A003D3D3D3D3D20524553AC
:102CE6004554203D3D3D3D3D00257820003D3D3D80
:102CF6003D204C4F4F50203D3D3D3D0A00737461D1
:102D06007475733A2025780A006572726F722066B0
:102D16006C61673A2025780A005245433A202578A7
:102D26000A005445433A2025780A007265636569AE
:102D36007665642049443A2025780A007265636501
:102D460069766564206C656E6774683A2025640A46
:102D5600007265636569766564206D657373616786
:102D6600653A20002320004F7074696F6E733A0035
:102D7600413A00414100414200414300423A00428B
:102D86004100424200424300433A0043410043426D
:042D960000434300B3
:00000001FF
