:100000000C9460030C944C050C947D030C947D03BC
:100010000C947D030C947D030C947D030C947D0360
:100020000C947D030C947D030C947D030C947D0350
:100030000C947D030C947D030C947D030C947D0340
:100040000C947D030C947D030C947D030C947D0330
:100050000C947D030C947D030C947D030C947D0320
:100060000C947D030C947D030C947D030C947D0310
:1000700000000000005C00000C000C007C287C28C4
:1000800058DC68002410480028542840000C000068
:10009000007884008478000054385400107C1000EC
:1000A00080400000101010000040000060100C00A4
:1000B00038543800487C40004864580044542C00B0
:1000C0001C107C005C5424003854240064140C0080
:1000D00068542C0048543800004800008048000054
:1000E0001028440028282800442810000454080040
:1000F00038445C00781478007C5428003844280088
:100100007C4438007C5444007C140400384474005F
:100110007C107C00447C440020403C007C106C003F
:100120007C4040007C187C0078103C00384438004B
:100130007C1408003844B8007C146800485424003B
:10014000047C04007C407C003C603C007C307C00F3
:100150006C106C000C700C0064544C00007C44006B
:100160000C106000447C00000804080080808000BF
:1001700000040800304878007C48300030484800CF
:1001800030487C00306850001078140090A8780047
:100190007C08700050744000808074007C106800FF
:1001A000447C4000781078007808700030483000B7
:1001B000F82810003048F80078100800505828003F
:1001C000083C4800384078003840380078207800F3
:1001D0004830480098A0780048685800107884009B
:1001E000007C00008478100008040804000000006F
:1001F0000000005F00000007000700147F147F1458
:10020000242A7F2A1223130864623649552250009B
:1002100005030000001C2241000041221C00082AA6
:100220001C2A0808083E080800503000000808088A
:100230000808006060000020100804023E51494593
:100240003E00427F400042615149462141454B31C9
:100250001814127F1027454545393C4A4949300159
:10026000710905033649494936064949291E0036B0
:100270003600000056360000000814224114141401
:10028000141441221408000201510906324979412F
:100290003E7E1111117E7F494949363E414141223E
:1002A0007F4141221C7F494949417F090901013EA3
:1002B000414151327F0808087F00417F41002040C2
:1002C000413F017F081422417F404040407F0204AB
:1002D000027F7F0408107F3E4141413E7F090909AA
:1002E000063E4151215E7F09192946464949493157
:1002F00001017F01013F4040403F1F2040201F7F00
:100300002018207F631408146303047804036151E8
:1003100049454300007F4141020408102041417FCC
:100320000000040201020440404040400001020479
:100330000020545454787F4844443838444444207E
:10034000384444487F3854545418087E0901020840
:100350001454543C7F0804047800447D400020403D
:10036000443D00007F10284400417F40007C041879
:1003700004787C0804047838444444387C14141409
:1003800008081414187C7C080404084854545420A9
:10039000043F4440203C4040207C1C2040201C3C2A
:1003A0004030403C44281028440C5050503C446499
:1003B000544C44000836410000007F0000004136E4
:1003C000080002010302010000000000000000001C
:1003D000065F5F0600000000070700070700001423
:1003E0007F7F147F7F1400242E6B6B3A120000462F
:1003F0006630180C666200307A4F5D377A48000428
:1004000007030000000000001C3E634100000000E4
:1004100041633E1C000000082A3E1C1C3E2A0808BE
:10042000083E3E0808000000A0E060000000000850
:100430000808080808000000006060000000006074
:1004400030180C060301003E7F594D7F3E000042EC
:10045000427F7F40400000627359496F660000226E
:100460006349497F360000181C16137F7F10002750
:100470006745457D3900003C7E4B497930000003DB
:100480006371190F070000367F49497F3600000667
:100490004F49693F1E000000006C6C000000000026
:1004A000A0EC6C00000000081C3663410000001442
:1004B00014141414140000004163361C08000002D8
:1004C0000351590F0600003E7F415D5D1F1E007CF9
:1004D0007E13137E7C0000417F7F49497F36001CDC
:1004E0003E634141632200417F7F41637F1C0041A5
:1004F0007F7F495D416300417F7F491D0103001CEF
:100500003E6341517372007F7F08087F7F000000C7
:10051000417F7F41000000307040417F3F0100413A
:100520007F7F081C776300417F7F41406070007FC0
:100530007F060C067F7F007F7F060C187F7F001CE4
:100540003E6341633E1C00417F7F49090F06001E48
:100550003F21717F5E0000417F7F19396F46002681
:10056000674D597B32000003417F7F410300007FCC
:100570007F40407F7F00001F3F60603F1F00007F83
:100580007F3018307F7F0063771C081C776300077B
:100590004F78784F0700006773594D47637100002B
:1005A0007F7F41410000000103060C18306000000D
:1005B00041417F7F000000080C0603060C08008004
:1005C000808080808080800000030704000000207D
:1005D0007454543C784000413F7F44447C38003898
:1005E0007C44446C280000307848493F7F40003804
:1005F0007C54545C180000487E7F49030200009838
:10060000BCA4A4F87C0400417F7F08047C7800002F
:10061000447D7D4000000040C484FD7D0000004119
:100620007F7F10386C440000417F7F400000007CD9
:100630007C0C180C7C78007C7C04047C78000038EE
:100640007C44447C38000084FCF8A4243C18001846
:100650003C24A4F8FC8400447C78441C1800004826
:100660005C54547424000000043E7F442400003C89
:100670007C40403C7C40001C3C60603C1C00003CDA
:100680007C6030607C3C00446C3810386C44009CCA
:10069000BCA0A0FC7C00004C64745C4C64000008AE
:1006A000083E7741410000000000777700000041DC
:1006B00041773E0808000002030103020301000025
:1006C00011241FBECFEFD4E0DEBFCDBF13E0A0E00A
:1006D000B1E0ECEFFDE102C005900D92A232B1074E
:1006E000D9F723E0A2E2B3E001C01D92A233B20722
:1006F000E1F70E9455080C94FC0E0C9460058C9A4E
:100700008EB588608EBD8EB581608EBD1BBC1ABC57
:100710008FB580648FBD08958FE08093001489EFBA
:1007200090E00197F1F700C00000A1E0B4E18C91E6
:10073000E2E2F3E090E09183808389EF90E001971B
:10074000F1F700C000008C9190E09383828389EFE1
:1007500090E00197F1F700C000008C9190E0958344
:10076000848389EF90E00197F1F700C000008C913D
:1007700090E0978386830895CF93DF938AE591E095
:100780000E94040CC2E2D3E089818F9388818F9309
:1007900080E891E09F938F930E94E70B8B818F936A
:1007A0008A818F9387E991E09F938F930E94E70B53
:1007B0008D818F938C818F938EEA91E09F938F939D
:1007C0000E94E70B8F818F938E818F9385EC91E050
:1007D0009F938F930E94E70B8DB79EB740960FB6FD
:1007E000F8949EBF0FBE8DBFDF91CF9108958A9878
:1007F0000E9470062FE38DE093E0215080409040EE
:10080000E1F700C0000043E06FEF8AE20E94520669
:1008100041EB6FEF89E20E94520645E067EC88E207
:100820000E94520643E06FE18BE20E94520640E0D4
:1008300060EE8FE00E9452068EE00E940006807EED
:1008400029F08CED91E00E94040C0895F89485B78E
:10085000826085BF85B78E7F85BF8FB780688FBF69
:100860008BB780648BBF789460E08CE20E94320684
:100870000895EF92FF920F931F93CF93DF93CDB71D
:10088000DEB72C970FB6F894DEBF0FBECDBFE9825E
:10089000FA820B831C832D833E834F83588769879D
:1008A0007A878B879C8709811A81B801769567952D
:1008B000769567957695679581E30E943206602F5D
:1008C0006295660F607E82E30E9432068A818F9372
:1008D00089818F9389E092E09F938F930E94E70B29
:1008E0006B8185E30E9432068C818F938B818F937D
:1008F00086E192E09F938F930E94E70B6B817C814E
:10090000AE014B5F5F4F86E30E940E060E944406D5
:1009100087E292E09F938F930E94E70B0FB6F894C3
:10092000DEBF0FBECDBF8B819C8118161906ACF4BB
:100930007E0195E0E90EF11C00E010E0F7018191E5
:100940007F01082E000C990B0E94FD0B0F5F1F4FBB
:100950008B819C81081719078CF382E692E00E9434
:10096000040C2C960FB6F894DEBF0FBECDBFDF91FE
:10097000CF911F910F91FF90EF900895CF92DF924A
:10098000FF920F931F93CF93DF93EC0161307105BA
:1009900009F041C081E60E940006182F82E60E94FD
:1009A0000006212F30E0322F2227282B369527955D
:1009B000329522952F7023273F7023273983288370
:1009C00085E60E94000690E09B838A83181619062C
:1009D000C4F46E0184E0C80ED11C0F2EF6E6FF2E83
:1009E000F02D00E010E08F2D0E940006F6018193AB
:1009F0006F010F5F1F4FF3948A819B8108171907BE
:100A000094F340E061E08CE20E94520610922B03C6
:100A100010922A0339C062307105B1F581E70E9456
:100A20000006182F82E70E940006212F30E0382BA5
:100A30003983288385E70E94000690E09B838A83A0
:100A400018161906C4F46E01F4E0CF0ED11C0F2E57
:100A5000F6E7FF2EF02D00E010E08F2D0E9400063B
:100A6000F60181936F010F5F1F4FF3948A819B8181
:100A70000817190794F340E062E08CE20E945206E6
:100A800010922B0310922A03DF91CF911F910F91A7
:100A9000FF90DF90CF9008951F920F920FB60F92A4
:100AA00011248F939F9381E090E090932B03809388
:100AB0002A039F918F910F900FBE0F901F90189552
:100AC0001F920F920FB60F9211240F900FBE0F902E
:100AD0001F9018950E948C0380912203909123030C
:100AE00008950E948C03809124039091250308951A
:100AF0000F931F93CF93DF930E948C03C2E2D3E046
:100B0000088119810E948C038A819B81023E110514
:100B100054F4093111054CF0873E910544F449978E
:100B200044F083E407C084E505C082E403C082E5A5
:100B300001C08CE4DF91CF911F910F9108950E9425
:100B40008C03809126039091270308950E948C03C3
:100B5000809128039091290308950E948C0320918D
:100B600026033091270344E6429FC001439F900D26
:100B700011246FEF70E00E94BF0BCB0108950E941B
:100B80008C03209128033091290344E6429FC00141
:100B9000439F900D11246FEF70E00E94BF0BCB01BB
:100BA000089586E392E00E94040C0E947805282FA5
:100BB000082E000C330B3F938F9383E592E09F93B5
:100BC0008F930E94E70B0E94AD059F938F938EEA4F
:100BD00091E09F938F930E94E70B0E94BF059F9324
:100BE0008F9385EC91E09F938F930E94E70B8DB7D5
:100BF0009EB70C960FB6F8949EBF0FBE8DBF08959A
:100C0000CF93C82FC49883E00E94B70B8C2F0E940B
:100C1000B70B0E94BA0BC49ACF910895EF92FF923E
:100C20000F931F93CF93DF93C82F8B017A01C49842
:100C300082E00E94B70B8C2F0E94B70B1016110692
:100C40004CF4E7010E0D1F1D89910E94B70BC017D0
:100C5000D107D1F7C49ADF91CF911F910F91FF90E7
:100C6000EF900895CF93DF93D82FC62FC49882E0DA
:100C70000E94B70B8D2F0E94B70B8C2F0E94B70BD1
:100C8000C49ADF91CF910895C49881E80E94B70B70
:100C9000C49A0895C49880EA0E94B70B0E94BA0BC8
:100CA000C49A08951F93CF93DF93182FD62FC42F84
:100CB000C49885E00E94B70B812F0E94B70B8D2F3F
:100CC0000E94B70B8C2F0E94B70BC49ADF91CF9173
:100CD0001F910895C49880EC0E94B70BC49A0895A0
:100CE0000E949D0B0E946A068EE00E940006807E94
:100CF000803831F084E692E00E94040C81E008958F
:100D000080E008955D9BFECF8CB9089590BD89B9B0
:100D100088E18AB98EE880BD80E091E090932F034E
:100D200080932E0308958BB18CB108955F9B03C00F
:100D30008CB15F99FDCF0895EF92FF920F931F93AF
:100D4000CF93DF93CDB7DEB72C970FB6F894DEBF05
:100D50000FBECDBFFE0131968CE0DF011D928A955A
:100D6000E9F783E090E09A83898381E090E09C83B7
:100D70008B830E947805E980FA800B811C81282FE3
:100D80003E814F81588569857A858B859C850E9437
:100D900039042C960FB6F894DEBF0FBECDBFDF919D
:100DA000CF911F910F91FF90EF90089591E097BB25
:100DB00018BA8093001098BB08958EEA90E00E94C4
:100DC000D60681EA90E00E94D6068AED90E00E9465
:100DD000D60682E190E00E94D60688EC90E00E9460
:100DE000D60688EA90E00E94D6068FE390E00E9443
:100DF000D60685ED90E00E94D60680E890E00E943D
:100E0000D60681E890E00E94D60680E590E00E9438
:100E1000D60689ED90E00E94D60681E290E00E941D
:100E2000D60680E290E00E94D60682E090E00E9422
:100E3000D6068BED90E00E94D60680E390E00E94FB
:100E4000D6068DEA90E00E94D60680E090E00E94EF
:100E5000D60684EA90E00E94D60686EA90E00E94D8
:100E6000D6068FEA90E00E94D60680E190E00E94CC
:100E7000D606089591E097BB98BB8093001218BAEC
:100E80000895806B0E94D60680E090E00E94D6060E
:100E900080E190E00E94D6060895CF93DF930E94F0
:100EA0004107C0E8D0E080E090E00E943A0781EE80
:100EB00094E00197F1F700C000002197A1F7DF91BE
:100EC000CF910895CF93DF930E944107C0E8D0E00F
:100ED0008FEF90E00E943A0781EE94E00197F1F7DE
:100EE00000C000002197A1F7DF91CF9108950F93E3
:100EF0001F93CF93DF9300E010E0C8010E944107E9
:100F0000C0E8D0E080E090E00E943A072197D1F756
:100F10000F5F1F4F0830110581F7DF91CF911F91AF
:100F20000F910895AF92BF92CF92DF92EF92FF920E
:100F30000F931F93CF93DF93A12CB12CC12CD12CF5
:100F40000F2EF8E9EF2EF2E0FF2EF02DC5010E94E2
:100F5000410701E010E0CC2DDD2D03C00F5F1F4FD6
:100F60002196209779F48FEF90E00E943A07DF9363
:100F7000CF93FF92EF920E94E70B0F900F900F908C
:100F80000F90ECCF8C2D9D2D0E943A07DF93CF93CD
:100F9000FF92EF920E94E70B0F900F900F900F902F
:100FA00000381105D8F28FEFA81AB80A88E0A81601
:100FB000B10461F6DF91CF911F910F91FF90EF90F7
:100FC000DF90CF90BF90AF900895CF93DF93EC0167
:100FD0008F7099270E94D606CE01807E9927806166
:100FE0000E94D606DF91CF91089580E090E00E94A4
:100FF0003A0780EC90E00E943A0780ED90E00E9472
:101000003A0788ED90E00E943A078CEF90E00E944A
:101010003A078CEF90E00E943A0788E190E00E9446
:101020003A0780E190E00E943A0708950F931F93DA
:10103000CF93DF9380978C01000F111F000F111FBA
:10104000000F111FE801C953DC4F01531C4FFE0173
:10105000849190E00E943A072196C017D107B9F712
:10106000DF91CF911F910F9108950F931F93CF930D
:10107000DF93FC0101900020E9F73197E81BF90BA1
:101080001E161F066CF4EC018C010E0F1F1F8991B8
:10109000082E000C990B0E941608C017D107B9F74B
:1010A000DF91CF911F910F910895CF93DF93CDB72B
:1010B000DEB76C970FB6F894DEBF0FBECDBF86EAE1
:1010C00092E00E94040C85EB92E00E94040C86EAF8
:1010D00092E00E94040C85B7806885BF80B780626B
:1010E00080BF8FE190E00E9486060E947F030E94ED
:1010F000DD060E947707CE0101960E94130A0E9426
:10110000F7038CE0EEE4F1E0DE01519601900D92E0
:101110008A95E1F78E010B5E1F4F6E012BE1C20E27
:10112000D11C0F2EFFEBEF2EF2E0FF2EF02DF80179
:1011300081918F01282F082E000C330B3F938F9342
:10114000FF92EF920E94E70B0F900F900F900F907D
:101150000C151D0561F70F2EF6E05F2EF02D412CCA
:101160000F2EF3EC6F2EF2E07F2EF02D0F2EFFEC02
:101170008F2EF2E09F2EF02D0F2EFFEDAF2EF2E01E
:10118000BF2EF02D0F2EF8EECF2EF2E0DF2EF02D39
:10119000052D5B8A4C8AE988FA88142D2D893E89B1
:1011A0004F89588D698D7A8D8B8D9C8D0E94390465
:1011B0008CE20E940006E82E8DE20E940006F82EC6
:1011C0008DE10E940006182F8CE10E940006082F76
:1011D0001F92EF927F926F920E94E70B1F92FF92F5
:1011E0009F928F920E94E70B1F921F93BF92AF9224
:1011F0000E94E70B1F920F93DF92CF920E94E70BA2
:10120000FFEF2FEF8EE0F15020408040E1F700C06B
:1012100000000FB6F894DEBF0FBECDBFB9CFCF939D
:10122000DF9381E090E00E94E507C2E0D0E0CE01CC
:101230000E94410782EF92E00E9435082196C63055
:10124000D105A9F7DF91CF910895AF92BF92CF92C8
:10125000DF92EF92FF920F931F93CF93DF937C0166
:10126000EB015A01690180E090E00E94410781E0B2
:1012700090E00E94E507C7010E9435080E940F090F
:1012800082E090E00E94410781E090E00E94E50743
:10129000C130D10559F581EF92E00E94350882E016
:1012A00090E00E94410784E190E00E94E507C501BB
:1012B0000E94350883E090E00E94410781E090E0C1
:1012C0000E94E50783E090E00E94410784E190E0FE
:1012D0000E94E507C6010E94350884E090E00E9464
:1012E000410781E090E00E94E5076FC082E090E056
:1012F0000E94410784E190E00E94E507C5010E9439
:10130000350883E090E00E94410781E090E00E9470
:10131000E507C230D10559F581EF92E00E9435080A
:1013200083E090E00E94410784E190E00E94E5079D
:10133000C6010E94350884E090E00E94410781E0E8
:1013400090E00E94E50784E090E00E94410784E17C
:1013500090E00E94E507C8010E94350885E090E012
:101360000E94410781E090E00E94E50747C083E0CA
:1013700090E00E94410784E190E00E94E507C601E9
:101380000E94350884E090E00E94410781E090E0EF
:101390000E94E507C330D105C1F481EF92E00E94BD
:1013A000350884E090E00E94410784E190E00E94CB
:1013B000E507C8010E94350885E090E00E944107DA
:1013C00081E090E00E94E50719C084E090E00E946F
:1013D000410784E190E00E94E507C8010E943508BA
:1013E00085E090E00E94410781E090E00E94E507DF
:1013F000249721F481EF92E00E94350885E090E087
:101400000E94410784E190E00E94E5070E94F507F1
:10141000DF91CF911F910F91FF90EF90DF90CF90D0
:10142000BF90AF900895CF93DF93AEE3B1E04EE06D
:1014300051E011965C934E930A2E1B2E1B961C9224
:101440000E9211241A970A2E1B2E1D961C920E9294
:1014500011241C970A2E1B2E1F961C920E921124EB
:101460001E97CEE2D1E059834883DB87CA87DD87A8
:10147000CC87DF87CE872EE131E0F90151834083AD
:10148000338722873587248737872687FA01518358
:10149000408333872287D587C487B787A68720E113
:1014A000DC0101900D922A95E1F7DF91CF9108952B
:1014B0004F925F926F927F928F929F92AF92BF9264
:1014C000CF92DF92EF92FF920F931F93CF93DF9310
:1014D000CDB7DEB760970FB6F894DEBF0FBECDBFB5
:1014E0003C0189829A82AB82BC82CD82DE82EF820D
:1014F000F88609871A872B873C874D875E876F8719
:10150000788B4BA05CA0E980FA80CB84DC84AD842E
:10151000BE848F84988887B317BAC19AFA82E98209
:10152000DC86CB86BE86AD86988A8F8609851A852D
:101530002F8138854D815E81B2018B819C810E9413
:1015400025090E947805843549F481E04816510444
:1015500009F47DC0E1E04E1A510882C0823449F49A
:10156000F4E04F16510409F478C08FEF481A580A76
:1015700077C0B1991AC0E1E04E165104B1F480E190
:10158000F601DE01119601900D928A95E1F7F601C0
:10159000E080F18002851385A484B58486849784D5
:1015A0000E947707C02ED12E5BC0B1991AC0F2E01D
:1015B0004F165104B1F480E1F501DE01119601905E
:1015C0000D928A95E1F7F501E080F180C284D38421
:1015D00004851585868497840E947707A02EB12EF6
:1015E0003FC0B19918C0F3E04F165104A1F480E157
:1015F000F401DE01119601900D928A95E1F7F40154
:10160000E080F180C284D384A484B58486849784E6
:101610000E94770725C0B19923C0F4E04F1651040A
:10162000F9F480E1F701DE01119601900D928A959F
:10163000E1F7F70100811181C284D384A484B584C9
:10164000868497840E947707E02EF12E09C00F2E22
:10165000F3E04F2E512CF02D03C044244394512C21
:10166000FA82E982DC86CB86BE86AD86988A8F8632
:1016700080E1FE013196D30101900D928A95E1F748
:10168000F301F182E082D386C286B586A48697866E
:101690008686518A408AC30160960FB6F894DEBFF1
:1016A0000FBECDBFDF91CF911F910F91FF90EF90B3
:1016B000DF90CF90BF90AF909F908F907F906F9072
:1016C0005F904F9008958F929F92AF92BF92CF926A
:1016D000DF92EF92FF920F931F93CF93DF93CDB7DB
:1016E000DEB760970FB6F894DEBF0FBECDBFCB82DA
:1016F000DC82ED82FE820F83188729873A87B40146
:1017000009851A852F8138854D815E818B819C8169
:101710000E94250960960FB6F894DEBF0FBECDBFBC
:10172000DF91CF911F910F91FF90EF90DF90CF90BD
:10173000BF90AF909F908F9008956B986A9880EBC0
:1017400087BBBE9881E58DB9089580EB87BBBE98B5
:1017500081E58DB908958FB9779BFECF089580E418
:1017600087BB8DB90895779BFECF8FB108950E94F6
:10177000AB0B089581E60E94AB0B8FB1089597FBE8
:10178000072E16F4009407D077FD09D00E94D30BE2
:1017900007FC05D03EF4909581959F4F0895709574
:1017A00061957F4F0895AA1BBB1B51E107C0AA1F7B
:1017B000BB1FA617B70710F0A61BB70B881F991FF2
:1017C0005A95A9F780959095BC01CD010895A0E0A8
:1017D000B0E0EDEEFBE00C94D50EAE014B5F5F4F39
:1017E000FA0161917191AF0180912E0390912F03C5
:1017F0000E94340CE2E00C94F10E60912E03709183
:101800002F030E942B0E08950F931F93CF93DF9306
:10181000E0912E03F0912F03238121FF1BC08C0147
:10182000D0E0C0E0F80181918F0160912E037091AA
:101830002F03DB011896ED91FC911997882331F065
:101840000995892B79F3DFEFCFEFECCF8AE009958B
:10185000892B19F08FEF9FEF02C08D2F9C2FDF9106
:10186000CF911F910F910895ABE0B0E0EAE3FCE067
:101870000C94C50E6C017B018A01FC011782168253
:10188000838181FFCCC1CE0101963C01F601938199
:10189000F70193FD859193FF81917F01882309F4DE
:1018A000BAC1853239F493FD859193FF81917F010F
:1018B000853229F4B60190E00E942B0EE7CF912CDF
:1018C000212C312CFFE1F315D8F08B3279F038F46C
:1018D000803279F08332A1F4232D20611DC08D3236
:1018E00061F0803369F4232D216016C0832D82605E
:1018F000382EE32DE4603E2E2AC0F32DF8601DC083
:1019000037FC2DC020ED280F2A3040F08E32B9F47C
:1019100036FC81C1232D2064322E19C036FE06C04C
:101920008AE0989E200D1124922E11C0EAE02E9E8E
:10193000200D1124222EF32DF0623F2E08C08C368C
:1019400021F4832D8068382E02C0883641F4F701D7
:1019500093FD859193FF81917F018111B3CF982FE2
:101960009F7D9554933028F40C5F1F4F9FE399831C
:101970000DC0833631F0833771F0833509F059C0DB
:1019800021C0F801808189830E5F1F4F88248394D2
:10199000912C530113C02801F2E04F0E511CF801A5
:1019A000A080B18036FE03C0692D70E002C06FEFE9
:1019B0007FEFC5010E94200E4C018201F32DFF77BD
:1019C0003F2E16C0280122E0420E511CF801A080D3
:1019D000B18036FE03C0692D70E002C06FEF7FEF6B
:1019E000C5010E94150E4C01F32DF0683F2E8201B7
:1019F00033FC1BC0822D90E088169906B0F4B60126
:101A000080E290E00E942B0E2A94F4CFF50137FC7F
:101A1000859137FE81915F01B60190E00E942B0E07
:101A200021102A9421E0821A91088114910471F7FF
:101A3000E8C0843611F0893641F5F80137FE07C059
:101A400060817181828193810C5F1F4F08C060812A
:101A50007181072E000C880B990B0E5F1F4FF32D21
:101A6000FF763F2E97FF09C0909580957095619500
:101A70007F4F8F4F9F4FF0683F2E2AE030E0A30149
:101A80000E94670E882E861845C0853731F4232DB5
:101A90002F7EB22E2AE030E025C0932D997FB92EFB
:101AA0008F36C1F018F4883579F0B5C0803719F059
:101AB000883721F0B0C0E92FE061BE2EB4FE0DC022
:101AC000FB2DF460BF2E09C034FE0AC0292F26600A
:101AD000B22E06C028E030E005C020E130E002C0B0
:101AE00020E132E0F801B7FE07C060817181828198
:101AF00093810C5F1F4F06C06081718180E090E090
:101B00000E5F1F4FA3010E94670E882E8618FB2DC3
:101B1000FF773F2E36FE0DC0232D2E7FA22E891477
:101B200058F434FE0BC032FC09C0832D8E7EA82EE3
:101B300005C0B82CA32C03C0B82C01C0B92CA4FE3E
:101B40000FC0FE01E80DF11D8081803321F49A2D34
:101B5000997EA92E09C0A2FE06C0B394B39404C016
:101B60008A2D867809F0B394A3FC11C0A0FE06C0AC
:101B7000B21488F4280C922C9B180EC0B21460F496
:101B8000B60180E290E00E942B0EB394F7CFB2141E
:101B900018F42B1802C0982C212CA4FE10C0B601FA
:101BA00080E390E00E942B0EA2FE17C0A1FC03C0B0
:101BB00088E790E002C088E590E0B6010CC08A2D6D
:101BC000867859F0A1FE02C08BE201C080E2A7FC3A
:101BD0008DE2B60190E00E942B0E891438F4B60114
:101BE00080E390E00E942B0E9A94F7CF8A94F30141
:101BF000E80DF11D8081B60190E00E942B0E81104E
:101C0000F5CF222009F442CEB60180E290E00E9496
:101C10002B0E2A94F6CFF6018681978102C08FEFB2
:101C20009FEF2B96E2E10C94E10EFC0105906150D0
:101C300070400110D8F7809590958E0F9F1F0895E2
:101C4000FC016150704001900110D8F7809590958B
:101C50008E0F9F1F08950F931F93CF93DF93FB0168
:101C6000238121FD03C08FEF9FEF2CC022FF16C000
:101C700046815781248135814217530744F4A0815E
:101C8000B1819D012F5F3F4F318320838C9326814B
:101C900037812F5F3F4F3783268314C08B01EC01C0
:101CA000FB010084F185E02D0995892BE1F6D8012F
:101CB00016968D919C911797019617969C938E93EB
:101CC0001697CE01DF91CF911F910F910895FA01E0
:101CD000AA27283051F1203181F1E8946F936E7F6B
:101CE0006E5F7F4F8F4F9F4FAF4FB1E03ED0B4E05C
:101CF0003CD0670F781F891F9A1FA11D680F791F9D
:101D00008A1F911DA11D6A0F711D811D911DA11DAD
:101D100020D009F468943F912AE0269F11243019BD
:101D2000305D3193DEF6CF010895462F4770405D58
:101D30004193B3E00FD0C9F7F6CF462F4F70405D07
:101D40004A3318F0495D31FD4052419302D0A9F762
:101D5000EACFB4E0A6959795879577956795BA955C
:101D6000C9F700976105710508959B01AC010A2E22
:101D700006945795479537952795BA95C9F7620FF9
:101D8000731F841F951FA01D08952F923F924F929D
:101D90005F926F927F928F929F92AF92BF92CF92FB
:101DA000DF92EF92FF920F931F93CF93DF93CDB704
:101DB000DEB7CA1BDB0B0FB6F894DEBF0FBECDBF7C
:101DC00009942A88398848885F846E847D848C844D
:101DD0009B84AA84B984C884DF80EE80FD800C8156
:101DE0001B81AA81B981CE0FD11D0FB6F894DEBF39
:0C1DF0000FBECDBFED010895F894FFCFA9
:101DFC00000000020000000082060000000000004D
:101E0C00F4020103040307030000000000000000BB
:101E1C00FD020003030306030000000000000000A5
:101E2C0009030C030F031203000000000000000064
:101E3C00150318031B031E03000000000000860797
:101E4C00060061626364656600003D3D3D3D3D3DBD
:101E5C003D3D3D41444320535452554354207661FB
:101E6C006C756573203D3D3D3D3D3D3D3D3D3D002B
:101E7C00566572746963616C20617869733A2020CD
:101E8C0020253464200A00486F72697A6F6E746181
:101E9C006C20617869733A20253464200A004C6503
:101EAC00667420736C696465723A202020202025AA
:101EBC003464200A00526967687420736C69646525
:101ECC00723A20202020253464200A00204D4350F3
:101EDC0032353135206973204E4F5420696E204EB7
:101EEC006F726D616C206D6F6465206166746572D4
:101EFC0020726573657420210073656E74204944EB
:101F0C003A2025780A0073656E74206C656E6774D0
:101F1C00683A2025640A0073656E74206D657373CE
:101F2C006167653A20003D3D3D3D3D3D3D3D3D20D9
:101F3C0053454E534F5253203D3D3D3D3D3D3D3D60
:101F4C003D3D004A4F59535449434B3A20202025DC
:101F5C0063200A00204D43503235313520697320FF
:101F6C004E4F5420696E20636F6E6669677572619F
:101F7C0074696F6E206D6F64652061667465722084
:101F8C0072657365742021006C696E653A2020209F
:101F9C00253464200A003D3D3D3D3D3D3D3D3D3DEC
:101FAC003D3D3D3D00202020205245534554002509
:101FBC007820007374617475733A2025780A006573
:101FCC0072726F7220666C61673A2025780A005233
:101FDC0045433A2025780A005445433A2025780A8F
:101FEC00002320004F7074696F6E733A00413A0001
:101FFC00414100414200414300423A00424100420B
:10200C004200424300433A004341004342004343F1
:02201C000000C2
:00000001FF
