:100000000C9460030C945B050C947D030C947D03AD
:100010000C947D030C947D030C947D030C947D0360
:100020000C947D030C947D030C947D030C947D0350
:100030000C947D030C947D030C947D030C947D0340
:100040000C947D030C947D030C947D030C947D0330
:100050000C947D030C947D030C947D030C947D0320
:100060000C947D030C947D030C947D030C947D0310
:1000700000000000005C00000C000C007C287C28C4
:1000800058DC68002410480028542840000C000068
:10009000007884008478000054385400107C1000EC
:1000A00080400000101010000040000060100C00A4
:1000B00038543800487C40004864580044542C00B0
:1000C0001C107C005C5424003854240064140C0080
:1000D00068542C0048543800004800008048000054
:1000E0001028440028282800442810000454080040
:1000F00038445C00781478007C5428003844280088
:100100007C4438007C5444007C140400384474005F
:100110007C107C00447C440020403C007C106C003F
:100120007C4040007C187C0078103C00384438004B
:100130007C1408003844B8007C146800485424003B
:10014000047C04007C407C003C603C007C307C00F3
:100150006C106C000C700C0064544C00007C44006B
:100160000C106000447C00000804080080808000BF
:1001700000040800304878007C48300030484800CF
:1001800030487C00306850001078140090A8780047
:100190007C08700050744000808074007C106800FF
:1001A000447C4000781078007808700030483000B7
:1001B000F82810003048F80078100800505828003F
:1001C000083C4800384078003840380078207800F3
:1001D0004830480098A0780048685800107884009B
:1001E000007C00008478100008040804000000006F
:1001F0000000005F00000007000700147F147F1458
:10020000242A7F2A1223130864623649552250009B
:1002100005030000001C2241000041221C00082AA6
:100220001C2A0808083E080800503000000808088A
:100230000808006060000020100804023E51494593
:100240003E00427F400042615149462141454B31C9
:100250001814127F1027454545393C4A4949300159
:10026000710905033649494936064949291E0036B0
:100270003600000056360000000814224114141401
:10028000141441221408000201510906324979412F
:100290003E7E1111117E7F494949363E414141223E
:1002A0007F4141221C7F494949417F090901013EA3
:1002B000414151327F0808087F00417F41002040C2
:1002C000413F017F081422417F404040407F0204AB
:1002D000027F7F0408107F3E4141413E7F090909AA
:1002E000063E4151215E7F09192946464949493157
:1002F00001017F01013F4040403F1F2040201F7F00
:100300002018207F631408146303047804036151E8
:1003100049454300007F4141020408102041417FCC
:100320000000040201020440404040400001020479
:100330000020545454787F4844443838444444207E
:10034000384444487F3854545418087E0901020840
:100350001454543C7F0804047800447D400020403D
:10036000443D00007F10284400417F40007C041879
:1003700004787C0804047838444444387C14141409
:1003800008081414187C7C080404084854545420A9
:10039000043F4440203C4040207C1C2040201C3C2A
:1003A0004030403C44281028440C5050503C446499
:1003B000544C44000836410000007F0000004136E4
:1003C000080002010302010000000000000000001C
:1003D000065F5F0600000000070700070700001423
:1003E0007F7F147F7F1400242E6B6B3A120000462F
:1003F0006630180C666200307A4F5D377A48000428
:1004000007030000000000001C3E634100000000E4
:1004100041633E1C000000082A3E1C1C3E2A0808BE
:10042000083E3E0808000000A0E060000000000850
:100430000808080808000000006060000000006074
:1004400030180C060301003E7F594D7F3E000042EC
:10045000427F7F40400000627359496F660000226E
:100460006349497F360000181C16137F7F10002750
:100470006745457D3900003C7E4B497930000003DB
:100480006371190F070000367F49497F3600000667
:100490004F49693F1E000000006C6C000000000026
:1004A000A0EC6C00000000081C3663410000001442
:1004B00014141414140000004163361C08000002D8
:1004C0000351590F0600003E7F415D5D1F1E007CF9
:1004D0007E13137E7C0000417F7F49497F36001CDC
:1004E0003E634141632200417F7F41637F1C0041A5
:1004F0007F7F495D416300417F7F491D0103001CEF
:100500003E6341517372007F7F08087F7F000000C7
:10051000417F7F41000000307040417F3F0100413A
:100520007F7F081C776300417F7F41406070007FC0
:100530007F060C067F7F007F7F060C187F7F001CE4
:100540003E6341633E1C00417F7F49090F06001E48
:100550003F21717F5E0000417F7F19396F46002681
:10056000674D597B32000003417F7F410300007FCC
:100570007F40407F7F00001F3F60603F1F00007F83
:100580007F3018307F7F0063771C081C776300077B
:100590004F78784F0700006773594D47637100002B
:1005A0007F7F41410000000103060C18306000000D
:1005B00041417F7F000000080C0603060C08008004
:1005C000808080808080800000030704000000207D
:1005D0007454543C784000413F7F44447C38003898
:1005E0007C44446C280000307848493F7F40003804
:1005F0007C54545C180000487E7F49030200009838
:10060000BCA4A4F87C0400417F7F08047C7800002F
:10061000447D7D4000000040C484FD7D0000004119
:100620007F7F10386C440000417F7F400000007CD9
:100630007C0C180C7C78007C7C04047C78000038EE
:100640007C44447C38000084FCF8A4243C18001846
:100650003C24A4F8FC8400447C78441C1800004826
:100660005C54547424000000043E7F442400003C89
:100670007C40403C7C40001C3C60603C1C00003CDA
:100680007C6030607C3C00446C3810386C44009CCA
:10069000BCA0A0FC7C00004C64745C4C64000008AE
:1006A000083E7741410000000000777700000041DC
:1006B00041773E0808000002030103020301000025
:1006C00011241FBECFEFD4E0DEBFCDBF14E0A0E009
:1006D000B1E0EEEBFBE202C005900D92A63CB10743
:1006E000D9F724E0A6ECB4E001C01D92AA3FB207FE
:1006F000E1F70E94FD080C94DD150C946F058C9AAF
:100700008EB588608EBD8EB581608EBD1BBC1ABC57
:100710008FB580648FBD08958FE08093001489EFBA
:1007200090E00197F1F700C00000A1E0B4E18C91E6
:10073000E8ECF4E090E09183808389EF90E001970A
:10074000F1F700C000008C9190E09383828389EFE1
:1007500090E00197F1F700C000008C9190E0958344
:10076000848389EF90E00197F1F700C000008C913D
:1007700090E0978386830895CF93DF9385E991E096
:100780000E94E512C8ECD4E089818F9388818F9311
:100790008BEB91E09F938F930E94C8128B818F9374
:1007A0008A818F9382ED91E09F938F930E94C8126C
:1007B0008D818F938C818F9389EE91E09F938F939E
:1007C0000E94C8128F818F938E818F9380E092E078
:1007D0009F938F930E94C8128DB79EB740960FB615
:1007E000F8949EBF0FBE8DBFDF91CF9108958A9878
:1007F0000E9499072FE38DE093E0215080409040C4
:10080000E1F700C0000043E06FEF8AE20E947B073F
:1008100041EB6FEF89E20E947B0745E067EC88E2DD
:100820000E947B0743E06FE18BE20E947B0740E080
:1008300060EE8FE00E947B078EE00E942907807E99
:1008400029F087E192E00E94E5120895F89485B7B7
:10085000826085BF85B78E7F85BF8FB780688FBF69
:100860008BB780648BBF789460E08CE20E945B075A
:100870000895CF92DF92EF92FF920F931F93CF9341
:10088000DF93CDB7DEB72C970FB6F894DEBF0FBE5F
:10089000CDBFE982FA820B831C832D833E834F8375
:1008A000588769877A878B879C8709811A81B80165
:1008B00076956795769567957695679581E30E941D
:1008C0005B07602F6295660F607E82E30E945B0784
:1008D0008A818F9389818F9384E492E09F938F9391
:1008E0000E94C8126B8185E30E945B078C818F9305
:1008F0008B818F9381E592E09F938F930E94C81222
:100900006B817C81AE014B5F5F4F86E30E943707AE
:100910000E946D0782E692E09F938F930E94C81217
:100920000FB6F894DEBF0FBECDBF8B819C81181629
:10093000190604F56E0195E0C90ED11C00E010E027
:100940000F2EF1E7EF2EF2E0FF2EF02DF601819150
:100950006F011F928F93FF92EF920E94C8120F5F58
:100960001F4F0F900F900F900F908B819C81081755
:10097000190764F387E093E00E94E5122C960FB606
:10098000F894DEBF0FBECDBFDF91CF911F910F91C5
:10099000FF90EF90DF90CF900895CF92DF92FF927B
:1009A0000F931F93CF93DF93EC016130710509F032
:1009B00041C081E60E942907182F82E60E9429077C
:1009C000212F30E0322F2227282B3695279532957C
:1009D00022952F7023273F7023273983288385E6AC
:1009E0000E94290790E09B838A8318161906C4F495
:1009F0006E0184E0C80ED11C0F2EF6E6FF2EF02DFE
:100A000000E010E08F2D0E942907F60181936F010D
:100A10000F5F1F4FF3948A819B810817190794F386
:100A200040E061E08CE20E947B071092D1041092BA
:100A3000D00439C062307105B1F581E70E94290701
:100A4000182F82E70E942907212F30E0382B3983A5
:100A5000288385E70E94290790E09B838A831816E4
:100A60001906C4F46E01F4E0CF0ED11C0F2EF6E788
:100A7000FF2EF02D00E010E08F2D0E942907F601D7
:100A800081936F010F5F1F4FF3948A819B81081739
:100A9000190794F340E062E08CE20E947B07109219
:100AA000D1041092D004DF91CF911F910F91FF904C
:100AB000DF90CF9008951F920F920FB60F921124DE
:100AC0008F939F9381E090E09093D1048093D00422
:100AD0009F918F910F900FBE0F901F9018951F92AE
:100AE0000F920FB60F9211240F900FBE0F901F9010
:100AF0001895EF92FF920F931F93CF93DF93CDB78B
:100B0000DEB72C970FB6F894DEBF0FBECDBF809135
:100B1000D0049091D104892B09F48BC08CE20E94FF
:100B20002907182F8DE20E942907E82E8DE10E94E7
:100B30002907F82E8CE10E942907082F1F921F9386
:100B400084E792E09F938F930E94C8121F92EF92C6
:100B500080E892E09F938F930E94C8121F92FF92A9
:100B600080E992E09F938F930E94C8121F920F9387
:100B700089E992E09F938F930E94C81213700FB679
:100B8000F894DEBF0FBECDBF09F453C0612F70E0F3
:100B9000CE0101960E94CD048AE090E00E94DE1210
:100BA0008A818F9389818F9382EA92E09F938F93BA
:100BB0000E94C8128C818F938B818F9383EB92E07C
:100BC0009F938F930E94C81288EC92E09F938F931B
:100BD0000E94C8120FB6F894DEBF0FBECDBF8B8146
:100BE0009C81181619069CF47E01F5E0EF0EF11CAD
:100BF00000E010E0F70181917F0190E00E94DE1299
:100C00000F5F1F4F8B819C81081719079CF3E980A8
:100C1000FA800B811C812D813E814F815885698529
:100C20007A858B859C850E94FC0687E093E00E9474
:100C3000E5122C960FB6F894DEBF0FBECDBFDF9144
:100C4000CF911F910F91FF90EF900895EF92FF9237
:100C50000F931F93CF93DF93CDB7DEB72C970FB6CB
:100C6000F894DEBF0FBECDBF0E9466068D830E9442
:100C70005F068E830E9494068F830E949B0688875E
:100C80000E94F5069AE2E92E95E0092FF12C10E07A
:100C90002D813E814F815885682F7A858B859C8573
:100CA0000E9439042C960FB6F894DEBF0FBECDBF5C
:100CB000DF91CF911F910F91FF90EF9008950E94C7
:100CC0008C038091C8049091C90408950E948C03FC
:100CD0008091CA049091CB0408950F931F93CF93F2
:100CE000DF930E948C03C8ECD4E0088119810E9434
:100CF0008C038A819B81023E110554F40931110550
:100D00004CF0873E910544F4499744F083E407C0D2
:100D100084E505C082E403C082E501C08CE4DF9174
:100D2000CF911F910F9108950E948C038091CC0464
:100D30009091CD0408950E948C038091CE049091EF
:100D4000CF0408950E948C032091CC043091CD04EF
:100D500044E6429FC001439F900D11246FEF70E065
:100D60000E94A012CB0108950E948C032091CE0412
:100D70003091CF0444E6429FC001439F900D11245F
:100D80006FEF70E00E94A012CB0108958BED92E00E
:100D90000E94E5120E946D06282F082E000C330BCE
:100DA0003F938F9388EF92E09F938F930E94C81296
:100DB0000E94A2069F938F9389EE91E09F938F9359
:100DC0000E94C8120E94B4069F938F9380E092E025
:100DD0009F938F930E94C8128DB79EB70C960FB643
:100DE000F8949EBF0FBE8DBF089586B3869591E09F
:100DF0008927817090E00895EF92FF920F931F93DF
:100E0000CF93DF93CDB7DEB72C970FB6F894DEBF44
:100E10000FBECDBFE982FA820E947C1289819A813D
:100E2000899751F489E093E09F938F930E94C812B1
:100E30000E947C120F900F902C960FB6F894DEBF94
:100E40000FBECDBFDF91CF911F910F91FF90EF901B
:100E50000895CF93C82FC49883E00E9498128C2FD6
:100E60000E9498120E949B12C49ACF910895EF920B
:100E7000FF920F931F93CF93DF93C82F8B017A01BB
:100E8000C49882E00E9498128C2F0E94981210162B
:100E900011064CF4E7010E0D1F1D89910E94981256
:100EA000C017D107D1F7C49ADF91CF911F910F914D
:100EB000FF90EF900895CF93DF93D82FC62FC4985B
:100EC00082E00E9498128D2F0E9498128C2F0E940F
:100ED0009812C49ADF91CF910895C49881E80E9436
:100EE0009812C49A0895C49880EA0E9498120E94A9
:100EF0009B12C49A08951F93CF93DF93182FD62F78
:100F0000C42FC49885E00E949812812F0E949812E5
:100F10008D2F0E9498128C2F0E949812C49ADF91F4
:100F2000CF911F910895C49880EC0E949812C49AA2
:100F300008950E948C120E9493078EE00E94290758
:100F4000807E803831F084E193E00E94E51281E0F8
:100F5000089580E008955D9BFECF8CB9089590BD03
:100F600089B988E18AB98EE880BD80E091E09093EC
:100F7000F7048093F60408958BB18CB108955F9BBC
:100F800003C08CB15F99FDCF0895E0E0F0E18EEAF7
:100F9000808381EA80838AED808382E1808388EC8C
:100FA000808388EA80838FE3808385ED808380E877
:100FB000808381E8808380E5808389ED808381E27E
:100FC000808380E2808382E080838BED808380E376
:100FD00080838DEA8083108284EA808386EA80831E
:100FE0008FEA808380E180830895809300100895C4
:100FF000809300120895806B809300100895806B99
:101000008093001080E890E0E0E0F2E11082A1EE31
:10101000B4E01197F1F700C000000197B9F7089507
:10102000806B8093001080E890E0E0E0F2E12FEF29
:101030002083A1EEB4E01197F1F700C00000019702
:10104000B9F7089520E030E0A0E0B0E1E0E0F2E19F
:10105000C901806B8C9380E890E010820197E9F7DA
:101060002F5F3F4F2830310599F708955F926F92B7
:101070007F928F929F92AF92BF92CF92DF92EF9228
:10108000FF920F931F93CF93DF93C12CD12CA12CF0
:101090006894BB24B4F8612C712C0F2EE12CF2E182
:1010A000FF2EF02D08E413E055245A94C601806BFE
:1010B000F501808388248394912CC62DD72D04C0FC
:1010C000EFEF8E1A9E0A2196209769F4F70150825D
:1010D000DF93CF931F930F930E94C8120F900F902E
:1010E0000F900F90EDCFF7011082DF93CF931F93F6
:1010F0000F930E94C8120F900F900F900F90E0E88E
:101100008E169104E8F2FFEFCF1ADF0A88E0C816C6
:10111000D10461F6DF91CF911F910F91FF90EF9075
:10112000DF90CF90BF90AF909F908F907F906F9007
:101130005F9008958038910590F49C012F703327BB
:10114000E0E0F0E12083807F99279595879595953C
:101150008795959587959595879540968083089571
:10116000E0E0F2E1108280EC808380ED808388ED06
:1011700080838CEF8083808388E1808380E180831B
:10118000089580979C01220F331F220F331F220FD7
:10119000331FF901E953FC4F21533C4FA0E0B2E16A
:1011A00094919C933196E217F307D1F708950F932A
:1011B0001F93CF93DF93FC0101900020E9F7319753
:1011C000E81BF90B1E161F066CF4EC018C010E0FC8
:1011D0001F1F8991082E000C990B0E94C108C0178F
:1011E000D107B9F7DF91CF911F910F910895E0E0FA
:1011F000F0E191E890838083089585B7806885BF8A
:1012000080B7806280BF8FE190E00E94AF0786E5E3
:1012100093E00E94E5120E947F030E94C5070E948E
:1012200022080E94F70388E693E00E94E5120E94DC
:1012300013112FEF8FEF92E0215080409040E1F7A3
:1012400000C000C0F0CFCF93DF93C2E0D0E081E0D8
:1012500090E00E949A08CE010E94FB0784EC93E084
:101260000E94D7082196C630D10589F7DF91CF912A
:101270000895AF92BF92CF92DF92EF92FF920F93B9
:101280001F93CF93DF937C01EB015A01690180E04A
:1012900090E00E94FB0781E090E00E949A08C7015D
:1012A0000E94D7080E94230982E090E00E94FB0779
:1012B00081E090E00E949A08C130D10559F588E795
:1012C00093E00E94D70882E090E00E94FB0784E14F
:1012D00090E00E949A08C5010E94D70883E090E040
:1012E0000E94FB0781E090E00E949A0883E090E072
:1012F0000E94FB0784E190E00E949A08C6010E94C8
:10130000D70884E090E00E94FB0781E090E00E9413
:101310009A086FC082E090E00E94FB0784E190E0B1
:101320000E949A08C5010E94D70883E090E00E94BD
:10133000FB0781E090E00E949A08C230D10559F580
:1013400088E793E00E94D70883E090E00E94FB07C3
:1013500084E190E00E949A08C6010E94D70884E0C8
:1013600090E00E94FB0781E090E00E949A0884E0F0
:1013700090E00E94FB0784E190E00E949A08C80177
:101380000E94D70885E090E00E94FB0781E090E092
:101390000E949A0847C083E090E00E94FB0784E126
:1013A00090E00E949A08C6010E94D70884E090E06D
:1013B0000E94FB0781E090E00E949A08C330D105AB
:1013C000C1F488E793E00E94D70884E090E00E948F
:1013D000FB0784E190E00E949A08C8010E94D708A8
:1013E00085E090E00E94FB0781E090E00E949A086F
:1013F00019C084E090E00E94FB0784E190E00E9425
:101400009A08C8010E94D70885E090E00E94FB0777
:1014100081E090E00E949A08249721F488E793E005
:101420000E94D70885E090E00E94FB0784E190E0ED
:101430000E949A080E94B008DF91CF911F910F91EE
:10144000FF90EF90DF90CF90BF90AF900895CF9333
:10145000DF93EEE7F1E0F183E083CEE6D1E0D387DE
:10146000C287AEE5B1E0B587A487F787E687F98341
:10147000E8832EE231E03B872A872EE131E03D8789
:101480002C872EE031E03F872E871196FC93EE9358
:101490002EE431E01B963C932E931A97EEE3F1E095
:1014A0001D96FC93EE931C970A2E1B2E1F961C92E2
:1014B0000E9211241E97B183A083F387E287F587EC
:1014C000E487F787E68720E1EEE7F1E0DC010190B1
:1014D0000D922A95E1F7DF91CF9108954F925F9297
:1014E0006F927F928F929F92AF92BF92CF92DF9234
:1014F000EF92FF920F931F93CF93DF93CDB7DEB799
:1015000060970FB6F894DEBF0FBECDBF3C01898255
:101510009A82AB82BC82CD82DE82EF82F886098716
:101520001A872B873C874D875E876F87788B4BA008
:101530005CA0E980FA80CB84DC84AD84BE848F8497
:1015400098888BE793E09F938F930E94C812098538
:101550001A852F8138854D815E81B2018B819C81F6
:101560000E9439090E946D060F900F90843549F44E
:1015700081E04816510409F47DC0E1E04E1A51089B
:1015800082C0823449F4F4E04F16510409F478C063
:101590008FEF481A580A77C0B1991AC0E1E04E1689
:1015A0005104B1F480E1F601DE01119601900D9233
:1015B0008A95E1F7F601E080F18002851385A48425
:1015C000B584868497840E942208C02ED12E5BC0E9
:1015D000B1991AC0F2E04F165104B1F480E1F5015F
:1015E000DE01119601900D928A95E1F7F501E080F8
:1015F000F180C284D38404851585868497840E94F3
:101600002208A02EB12E3FC0B19918C0F3E04F16AA
:101610005104A1F480E1F401DE01119601900D92D4
:101620008A95E1F7F401E080F180C284D384A48438
:10163000B584868497840E94220825C0B19923C06E
:10164000F4E04F165104F9F480E1F701DE01119640
:1016500001900D928A95E1F7F70100811181C28412
:10166000D384A484B584868497840E942208E02EC3
:10167000F12E09C00F2EF3E04F2E512CF02D03C098
:1016800044244394512CFA82E982DC86CB86BE86C0
:10169000AD86988A8F8680E1FE013196D301019054
:1016A0000D928A95E1F7F301F182E082D386C2863A
:1016B000B586A48697868686518A408AC30160963D
:1016C0000FB6F894DEBF0FBECDBFDF91CF911F9153
:1016D0000F91FF90EF90DF90CF90BF90AF909F90D1
:1016E0008F907F906F905F904F9008958F929F9210
:1016F000AF92BF92CF92DF92EF92FF920F931F9320
:10170000CF93DF93CDB7DEB760970FB6F894DEBF07
:101710000FBECDBFCB82DC82ED82FE820F831887A5
:1017200029873A87B40109851A852F8138854D812B
:101730005E818B819C810E94390960960FB6F89476
:10174000DEBF0FBECDBFDF91CF911F910F91FF90F4
:10175000EF90DF90CF90BF90AF909F908F900895C3
:10176000CF93DF93C0E0D0E0CE010E94F70881E084
:1017700090E00E94FB0781E290E00E949A0888E8CE
:1017800093E00E94D70883E090E00E94FB0781E18C
:1017900090E00E949A0881E993E00E94D70886E0D1
:1017A00090E00E94FB0788E090E00E949A088EE992
:1017B00093E00E94D70881EE94E00197F1F700C012
:1017C00000002196C11591E0D90771F6C0E0D1E083
:1017D000CE010E94F70881E090E00E94FB0781E2C1
:1017E00090E00E949A0888E893E00E94D70883E07E
:1017F00090E00E94FB0781E190E00E949A0881E955
:1018000093E00E94D70886E090E00E94FB0788E002
:1018100090E00E949A088EE993E00E94D70881EE3A
:1018200094E00197F1F700C00000219788F6DF915E
:10183000CF910895CF93DF93C0E0D0E0CE010E9416
:10184000F70884E090E00E94FB078CE190E00E94A2
:101850009A088DEA93E00E94D7082196C11581E08D
:10186000D80761F7C0E0D1E0CE010E94F70884E01C
:1018700090E00E94FB078CE190E00E949A088DEABC
:1018800093E00E94D708219778F7DF91CF910895D0
:10189000CF93DF93C9E0D0E084E090E00E94FB07A3
:1018A0008AE090E00E949A0887EB93E00E94D708B4
:1018B0002FED82E292E0215080409040E1F700C09D
:1018C000000084E090E00E94FB078AE090E00E9424
:1018D0009A0886EC93E00E94D7082FED82E292E00E
:1018E000215080409040E1F700C0000084E090E08B
:1018F0000E94FB078AE090E00E949A0883ED93E043
:101900000E94D7082FED82E292E021508040904063
:10191000E1F700C0000084E090E00E94FB078AE04D
:1019200090E00E949A0881EE93E00E94D7082FED84
:1019300082E292E0215080409040E1F700C0000038
:10194000219709F0A9CF0E942208DF91CF91089535
:101950008FEF90E00E94F8078FEF90E00E94F80769
:101960008FEF90E00E94F8078FEF90E00E94F80759
:101970008FEF90E00E94F8078FEF90E00E94F80749
:101980008FEF90E00E94F8078FEF90E00E94F80739
:101990008FEF90E00E94F8070895CF93DF93C0E0A7
:1019A000D0E0CE010E94FB070E94A80C2196C8300F
:1019B000D105B9F7DF91CF910895CF93DF93C0E0C0
:1019C000D0E0CE010E949A08CE010E94CD0C8BE49B
:1019D0009DE10197F1F700C000002196C038D105C4
:1019E00081F7DF91CF9108950F931F93CF93DF93EA
:1019F00081E090E00E94FB07C2E0D0E0CE010E94AF
:101A00009A08CE010597039720F081E090E00E94AC
:101A1000F8072196CB30D10589F702E010E0C1E04C
:101A2000D0E003C021960F5F1F4FCE010E949A089D
:101A3000C630D105B9F381E090E00E94F8070C3080
:101A4000110584F3CDE0D0E081E090E00E94F8073A
:101A50002197D1F7CDE0D0E081E090E00E94F80737
:101A60002197D1F7CDE0D0E081E090E00E94F80727
:101A70002197D1F7CDE0D0E081E090E00E94F80717
:101A80002197D1F7CDE0D0E081E090E00E94F80707
:101A90002197D1F7DF91CF911F910F910895EF9288
:101AA000FF920F931F93CF93DF93181619065CF4E0
:101AB0007B018C01C0E0D0E0C7010E94F8072196AD
:101AC0000C171D07C9F7DF91CF911F910F91FF9060
:101AD000EF900895CF93DF93EC01CB01880F991F0E
:101AE000880F991F880F991F0E949A08CE010E94A3
:101AF000FB07DF91CF910895EF92FF920F931F9311
:101B0000CF93DF93181619066CF47B018C01C0E0AB
:101B1000D0E0B70184E090E00E944F0D21960C17B1
:101B20001D07B9F7DF91CF911F910F91FF90EF90B3
:101B300008950F931F93CF93DF93EC01CB018A019C
:101B40000E949A08CE010E94FB071016110654F459
:101B5000C0E0D0E08FE090E00E94F80721960C17DB
:101B60001D07C1F7DF91CF911F910F910895892B28
:101B700029F18EE090E00E94F8078FE190E00E944A
:101B8000F8078FE390E00E94F8078FE790E00E944B
:101B9000F8078EEF90E00E94F8078FE790E00E9430
:101BA000F8078FE390E00E94F8078FE190E00E9431
:101BB000F8078EE090E00E94F80708958EE090E02C
:101BC0000E94F80781E190E00E94F80781E290E02E
:101BD0000E94F80781E490E00E94F80782E890E014
:101BE0000E94F80781E490E00E94F80781E290E00B
:101BF0000E94F80781E190E00E94F8078EE090E0F3
:101C00000E94F80708959C01261B370B853091052B
:101C100009F027C12230310509F46DC03CF42115CB
:101C2000310579F021303105C9F118C12430310571
:101C300009F4BBC00CF48CC02530310509F4E2C0B6
:101C40000DC183E090E00E94FB0783E190E00E94D9
:101C50009A0881E090E00E94B70D85E290E00E9432
:101C60009A0881E090E00E94B70D87E390E00E941F
:101C70009A0881E090E00E94B70D89E490E00E940C
:101C80009A0881E090E00E94B70D8BE590E00E94F9
:101C90009A0881E090E00E94B70D089583E090E0FB
:101CA0000E94FB0783E190E00E949A0881E090E0A7
:101CB0000E94B70D85E290E00E949A0881E090E0D2
:101CC0000E94B70D87E390E00E949A0881E090E0BF
:101CD0000E94B70D89E490E00E949A0881E090E0AC
:101CE0000E94B70D8BE590E00E949A0880E090E09A
:101CF0000E94B70D089583E090E00E94FB0783E106
:101D000090E00E949A0881E090E00E94B70D85E281
:101D100090E00E949A0881E090E00E94B70D87E36E
:101D200090E00E949A0881E090E00E94B70D89E45B
:101D300090E00E949A0880E090E00E94B70D8BE549
:101D400090E00E949A0880E090E00E94B70D08950C
:101D500083E090E00E94FB0783E190E00E949A08F4
:101D600081E090E00E94B70D85E290E00E949A0821
:101D700081E090E00E94B70D87E390E00E949A080E
:101D800080E090E00E94B70D89E490E00E949A08FC
:101D900080E090E00E94B70D8BE590E00E949A08E9
:101DA00080E090E00E94B70D089583E090E00E94EB
:101DB000FB0783E190E00E949A0881E090E00E9496
:101DC000B70D85E290E00E949A0880E090E00E94C2
:101DD000B70D87E390E00E949A0880E090E00E94AF
:101DE000B70D89E490E00E949A0880E090E00E949C
:101DF000B70D8BE590E00E949A0880E090E00E9489
:101E0000B70D089583E090E00E94FB0783E190E026
:101E10000E949A0880E090E00E94B70D85E290E071
:101E20000E949A0880E090E00E94B70D87E390E05E
:101E30000E949A0880E090E00E94B70D89E490E04B
:101E40000E949A0880E090E00E94B70D8BE590E038
:101E50000E949A0880E090E00E94B70D0E941A0C40
:101E600008958430910509F0D1C02230310509F47C
:101E70005BC03CF42115310569F02130310579F161
:101E8000C2C02330310509F474C02430310509F48F
:101E900095C0B9C083E090E00E94FB0783E290E028
:101EA0000E949A0881E090E00E94B70D85E390E0DF
:101EB0000E949A0881E090E00E94B70D88E490E0CB
:101EC0000E949A0881E090E00E94B70D8AE590E0B8
:101ED0000E949A0881E090E00E94B70D089583E087
:101EE00090E00E94FB0783E290E00E949A0881E064
:101EF00090E00E94B70D85E390E00E949A0881E08F
:101F000090E00E94B70D88E490E00E949A0881E07A
:101F100090E00E94B70D8AE590E00E949A0880E068
:101F200090E00E94B70D089583E090E00E94FB07C7
:101F300083E290E00E949A0881E090E00E94B70D51
:101F400085E390E00E949A0881E090E00E94B70D3E
:101F500088E490E00E949A0880E090E00E94B70D2B
:101F60008AE590E00E949A0880E090E00E94B70D18
:101F7000089583E090E00E94FB0783E290E00E94D6
:101F80009A0881E090E00E94B70D85E390E00E94FE
:101F90009A0880E090E00E94B70D88E490E00E94EB
:101FA0009A0880E090E00E94B70D8AE590E00E94D8
:101FB0009A0880E090E00E94B70D089583E090E0D9
:101FC0000E94FB0783E290E00E949A0880E090E084
:101FD0000E94B70D85E390E00E949A0880E090E0AF
:101FE0000E94B70D88E490E00E949A0880E090E09B
:101FF0000E94B70D8AE590E00E949A0880E090E088
:102000000E94B70D08950E941A0C0895039709F0D5
:1020100085C02130310551F11CF4232B51F07CC0D7
:102020002230310509F43FC02330310509F458C08E
:1020300073C083E090E00E94FB0785E290E00E947D
:102040009A0881E090E00E94B70D87E390E00E943B
:102050009A0881E090E00E94B70D89E490E00E9428
:102060009A0881E090E00E94B70D089583E090E027
:102070000E94FB0785E290E00E949A0881E090E0D0
:102080000E94B70D87E390E00E949A0881E090E0FB
:102090000E94B70D89E490E00E949A0880E090E0E9
:1020A0000E94B70D089583E090E00E94FB0785E24F
:1020B00090E00E949A0881E090E00E94B70D87E3CB
:1020C00090E00E949A0880E090E00E94B70D89E4B9
:1020D00090E00E949A0880E090E00E94B70D089579
:1020E00083E090E00E94FB0785E290E00E949A085E
:1020F00080E090E00E94B70D87E390E00E949A088C
:1021000080E090E00E94B70D89E490E00E949A0878
:1021100080E090E00E94B70D0E941A0C08950F9382
:102120001F93CF93DF93EC018B0181E090E00E943D
:10213000FB0787E290E00E949A0880EF93E00E94FC
:10214000D708B801CE010E94030E85E090E00E94FE
:10215000FB078FE090E00E949A0887EF93E00E94CF
:10216000D708DF91CF911F910F9108950E94220807
:1021700061E070E080E090E00E946A0D85E094E00C
:102180000E94D70861E070E081E090E00E946A0D53
:1021900081E090E00E94B70D63E070E081E090E0A4
:1021A0000E946A0D81E090E00E94B70D65E070E04A
:1021B00081E090E00E946A0D80E090E00E94B70DFF
:1021C00067E070E081E090E00E946A0D80E090E0BE
:1021D0000E94B70D0895CF93DF93CDB7DEB7609718
:1021E0000FB6F894DEBF0FBECDBF909394018093DD
:1021F00093019093920180939101CE0101960E94E8
:10220000270A80E1FE013196A4EEB4E001900D9220
:102210008A95E1F760960FB6F894DEBF0FBECDBF8A
:10222000DF91CF9108958F929F92AF92BF92CF92FC
:10223000DF92EF92FF920F931F93CF93DF93CDB76F
:10224000DEB76E970FB6F894DEBF0FBECDBF8EE837
:1022500094E00E94E512809190018834A1F13CF451
:10226000813409F4B1C0833409F406C111C1803549
:1022700009F4B6C0843521F08F3409F009C1ECC0EF
:1022800082E994E00E94E51283E090E00E94EB1066
:102290000E94B00B2FED83E994E0215080409040E4
:1022A000E1F700C0000088E4809390010E942208BA
:1022B0000E94F506892B09F40CC10E94220888E4CB
:1022C0008093900106C188E994E00E94E512809114
:1022D0008F018F9380918E018F938090E404909072
:1022E000E504A090E604B090E704C090E804D09024
:1022F000E904E090EA04F090EB040091EC04109102
:10230000ED042091EE043091EF044091F0045091DF
:10231000F1046091F2047091F304CE010D960E94D5
:102320006E0A82E1FE013D96A2EDB4E001900D92AD
:102330008A95E1F780E1E2EDF4E0A4EEB4E00190EB
:102340000D928A95E1F78091E2049091E3049093D5
:102350008F0180938E018091E6049091E7040F90A5
:102360000F9024E08536920721F481E48093900158
:10237000B0C08E53944009F0ACC081E08D838BE2F5
:10238000E82E89831A8281E0082F8B831C82F12C2E
:1023900010E021E03E814F81588569857A858B85E3
:1023A0009C850E943904CE010D960E94270A80E187
:1023B000FE013D96A4EEB4E001900D928A95E1F7FE
:1023C00083E48093900185C08DE994E00E94E5123A
:1023D0000E94DD0C0E94220880E58093900179C064
:1023E00087EA94E00E94E5120E9426068091C604C6
:1023F0009091C7041092C7041092C604892B69F407
:10240000609193017091940147E050E080919101B7
:10241000909192010E948F1012C06091930170916F
:10242000940161507109709394016093930147E0A6
:1024300050E080919101909192010E948F108091C3
:10244000930190919401892B09F043C00E942208C6
:102450008FE4809390013DC08CEA94E00E94E512E5
:102460000E941A0C0E94F506892B99F10E942208FD
:1024700084E5809390012DC081EB94E00E94E512E9
:102480000E9422080E94480C88E48093900121C099
:102490008DEB94E00E94E51283E090E00E94EB1047
:1024A0000E94B00B8FED93E924E0815090402040D2
:1024B000E1F700C0000088E4809390010E942208A8
:1024C0000E94F506892B29F00E94220888E4809357
:1024D00090016E960FB6F894DEBF0FBECDBFDF91B0
:1024E000CF911F910F91FF90EF90DF90CF90BF9011
:1024F000AF909F908F90089581E090E09093C704F3
:102500008093C60408958091C6049091C7041092E8
:10251000C7041092C60408956B986A9880EB87BB35
:10252000BE9881E58DB908958FB9779BFECF089548
:102530000E949412089581E60E9494128FB108952A
:1025400097FB072E16F4009407D077FD09D00E9460
:10255000B41207FC05D03EF4909581959F4F0895E5
:10256000709561957F4F0895AA1BBB1B51E107C071
:10257000AA1FBB1FA617B70710F0A61BB70B881F13
:10258000991F5A95A9F780959095BC01CD010895A2
:10259000A0E0B0E0EEECF2E10C94B615AE014B5FBA
:1025A0005F4FFA0161917191AF018091F6049091B2
:1025B000F7040E941513E2E00C94D2156091F60422
:1025C0007091F7040E940C1508950F931F93CF93F9
:1025D000DF93E091F604F091F704238121FF1BC003
:1025E0008C01D0E0C0E0F80181918F016091F60488
:1025F0007091F704DB011896ED91FC9119978823EF
:1026000031F00995892B79F3DFEFCFEFECCF8AE03A
:102610000995892B19F08FEF9FEF02C08D2F9C2F0A
:10262000DF91CF911F910F910895ABE0B0E0EBE106
:10263000F3E10C94A6156C017B018A01FC01178261
:102640001682838181FFCCC1CE0101963C01F60147
:102650009381F70193FD859193FF81917F018823F9
:1026600009F4BAC1853239F493FD859193FF8191C4
:102670007F01853229F4B60190E00E940C15E7CF66
:10268000912C212C312CFFE1F315D8F08B3279F00D
:1026900038F4803279F08332A1F4232D20611DC0FB
:1026A0008D3261F0803369F4232D216016C0832DB3
:1026B0008260382EE32DE4603E2E2AC0F32DF860B0
:1026C0001DC037FC2DC020ED280F2A3040F08E327F
:1026D000B9F436FC81C1232D2064322E19C036FE98
:1026E00006C08AE0989E200D1124922E11C0EAE0C7
:1026F0002E9E200D1124222EF32DF0623F2E08C0B5
:102700008C3621F4832D8068382E02C0883641F43F
:10271000F70193FD859193FF81917F018111B3CFE3
:10272000982F9F7D9554933028F40C5F1F4F9FE3A3
:1027300099830DC0833631F0833771F0833509F00A
:1027400059C021C0F801808189830E5F1F4F882402
:102750008394912C530113C02801F2E04F0E511CB9
:10276000F801A080B18036FE03C0692D70E002C080
:102770006FEF7FEFC5010E9401154C018201F32D1F
:10278000FF773F2E16C0280122E0420E511CF801AF
:10279000A080B18036FE03C0692D70E002C06FEFEB
:1027A0007FEFC5010E94F6144C01F32DF0683F2E17
:1027B000820133FC1BC0822D90E088169906B0F48C
:1027C000B60180E290E00E940C152A94F4CFF50146
:1027D00037FC859137FE81915F01B60190E00E9440
:1027E0000C1521102A9421E0821A91088114910479
:1027F00071F7E8C0843611F0893641F5F80137FEEB
:1028000007C060817181828193810C5F1F4F08C076
:1028100060817181072E000C880B990B0E5F1F4F92
:10282000F32DFF763F2E97FF09C090958095709508
:1028300061957F4F8F4F9F4FF0683F2E2AE030E029
:10284000A3010E944815882E861845C0853731F4AB
:10285000232D2F7EB22E2AE030E025C0932D997FC4
:10286000B92E8F36C1F018F4883579F0B5C08037AD
:1028700019F0883721F0B0C0E92FE061BE2EB4FE18
:102880000DC0FB2DF460BF2E09C034FE0AC0292FF5
:102890002660B22E06C028E030E005C020E130E01E
:1028A00002C020E132E0F801B7FE07C0608171810B
:1028B000828193810C5F1F4F06C06081718180E02F
:1028C00090E00E5F1F4FA3010E944815882E8618C6
:1028D000FB2DFF773F2E36FE0DC0232D2E7FA22E1F
:1028E000891458F434FE0BC032FC09C0832D8E7E4F
:1028F000A82E05C0B82CA32C03C0B82C01C0B92C3D
:10290000A4FE0FC0FE01E80DF11D8081803321F48B
:102910009A2D997EA92E09C0A2FE06C0B394B39445
:1029200004C08A2D867809F0B394A3FC11C0A0FEE0
:1029300006C0B21488F4280C922C9B180EC0B21456
:1029400060F4B60180E290E00E940C15B394F7CFDA
:10295000B21418F42B1802C0982C212CA4FE10C01D
:10296000B60180E390E00E940C15A2FE17C0A1FC06
:1029700003C088E790E002C088E590E0B6010CC093
:102980008A2D867859F0A1FE02C08BE201C080E258
:10299000A7FC8DE2B60190E00E940C15891438F472
:1029A000B60180E390E00E940C159A94F7CF8A94C8
:1029B000F301E80DF11D8081B60190E00E940C1535
:1029C0008110F5CF222009F442CEB60180E290E0DA
:1029D0000E940C152A94F6CFF6018681978102C0D9
:1029E0008FEF9FEF2B96E2E10C94C215FC0105904E
:1029F000615070400110D8F7809590958E0F9F1F01
:102A00000895FC016150704001900110D8F7809545
:102A100090958E0F9F1F08950F931F93CF93DF9371
:102A2000FB01238121FD03C08FEF9FEF2CC022FF0C
:102A300016C046815781248135814217530744F4DB
:102A4000A081B1819D012F5F3F4F318320838C9303
:102A5000268137812F5F3F4F3783268314C08B0138
:102A6000EC01FB010084F185E02D0995892BE1F64D
:102A7000D80116968D919C911797019617969C9365
:102A80008E931697CE01DF91CF911F910F910895EC
:102A9000FA01AA27283051F1203181F1E8946F938F
:102AA0006E7F6E5F7F4F8F4F9F4FAF4FB1E03ED035
:102AB000B4E03CD0670F781F891F9A1FA11D680FD3
:102AC000791F8A1F911DA11D6A0F711D811D911D06
:102AD000A11D20D009F468943F912AE0269F11247B
:102AE0003019305D3193DEF6CF010895462F4770DF
:102AF000405D4193B3E00FD0C9F7F6CF462F4F703A
:102B0000405D4A3318F0495D31FD4052419302D097
:102B1000A9F7EACFB4E0A69597958795779567953D
:102B2000BA95C9F700976105710508959B01AC013D
:102B30000A2E06945795479537952795BA95C9F764
:102B4000620F731F841F951FA01D08952F923F923F
:102B50004F925F926F927F928F929F92AF92BF92AD
:102B6000CF92DF92EF92FF920F931F93CF93DF9359
:102B7000CDB7DEB7CA1BDB0B0FB6F894DEBF0FBEB6
:102B8000CDBF09942A88398848885F846E847D8403
:102B90008C849B84AA84B984C884DF80EE80FD8005
:102BA0000C811B81AA81B981CE0FD11D0FB6F8947B
:0E2BB000DEBF0FBECDBFED010895F894FFCF3C
:102BBE000000000200000000AB0700000000000053
:102BCE000C040803080308030000000000000000C6
:102BDE0011040803080308030000000000000000B1
:102BEE00180408030803080300000000000000009A
:102BFE001D0425042E043404000000000000000013
:102C0E003E04080308030803000000000000000053
:102C1E004A0453045D040803000000000000000095
:102C2E0065046A046F0476040000000000000000D2
:102C3E007B048004850408030000000000000100EE
:102C4E0054030003003D3D3D3D3D3D3D3D3D414472
:102C5E0043205354525543542076616C756573204E
:102C6E003D3D3D3D3D3D3D3D3D3D005665727469EA
:102C7E0063616C20617869733A20202025346420CA
:102C8E000A00486F72697A6F6E74616C20617869A0
:102C9E00733A20253464200A004C65667420736CE8
:102CAE00696465723A2020202020253464200A00B1
:102CBE00526967687420736C696465723A202020CB
:102CCE0020253464200A00204D4350323531352002
:102CDE006973204E4F5420696E204E6F726D616C79
:102CEE00206D6F6465206166746572207265736510
:102CFE007420210073656E742049443A2025780AA9
:102D0E000073656E74206C656E6774683A20256476
:102D1E000A0073656E74206D6573736167653A2082
:102D2E00002578007374617475733A2025780A0053
:102D3E006572726F7220666C61673A2025780A00A0
:102D4E005245433A2025780A005445433A202578C7
:102D5E000A0072656365697665642049443A2025E8
:102D6E00780A007265636569766564206C656E67C6
:102D7E0074683A2025640A00726563656976656435
:102D8E00206D6573736167653A20003D3D3D3D3DA5
:102D9E003D3D3D3D2053454E534F5253203D3D3D0D
:102DAE003D3D3D3D3D3D3D004A4F59535449434BFA
:102DBE003A2020202563200A00474F414C21212133
:102DCE00210A0D00204D43503235313520697320D4
:102DDE004E4F5420696E20636F6E6669677572611F
:102DEE0074696F6E206D6F64652061667465722004
:102DFE0072657365742021006C696E653A2020201F
:102E0E00253464200A003D3D3D3D3D20524553454D
:102E1E0054203D3D3D3D3D003D3D3D3D204C4F4F01
:102E2E0050203D3D3D3D0A00232000696E204D613E
:102E3E006B65204D454E550047524F55502034304E
:102E4E00004279676765726E2032303231004C6F06
:102E5E007569732026204D696368656C0047414D86
:102E6E0045204F5645520043616C69627261746928
:102E7E006F6E2020200043616C6962726174696F0D
:102E8E006E2E0043616C6962726174696F6E2E2ED4
:102E9E000043616C6962726174696F6E2E2E2E0032
:102EAE006C697665733A00646966666963756C74FD
:102EBE00793A2078004C696665733A00484152446D
:102ECE00004E4F524D414C0045415359004352451F
:102EDE0044495453004C6F756973202E42002020D4
:102EEE00202026004D696368656C202E53004341F7
:102EFE004C4942524154494F4E0053455454494E49
:102F0E0047530043616C6962726174650043726578
:102F1E006469747300504C41590065617379006E99
:102F2E006F726D616C006861726400484F4D4500B0
:102F3E00506C61790053657474696E6773006865CF
:102F4E0079005469746C6500686F6D6500616E6917
:102F5E006D6174696F6E00706C6179006F76657269
:102F6E000063616C6962726174696F6E006465669C
:062F7E0061756C74000097
:00000001FF
